{
  "address": "0x9cfe43306c8AC04e6023e203Fff8a7f191DBC596",
  "abi": [
    {
      "inputs": [],
      "name": "IMAGE",
      "outputs": [
        {
          "internalType": "string",
          "name": "",
          "type": "string"
        }
      ],
      "stateMutability": "pure",
      "type": "function"
    }
  ],
  "transactionHash": "0x28851e2d6687413f82f012e0fec14621786bb60980d42a1c61afc1d7478a4c7c",
  "args": [],
  "numDeployments": 1,
  "solcInputHash": "b403881eb8ecaac2a65725374c6108a4",
  "bytecode": "0x6127b361003a600b82828239805160001a60731461002d57634e487b7160e01b600052600060045260246000fd5b30600052607381538281f3fe73000000000000000000000000000000000000000030146080604052600436106100355760003560e01c80630506eb401461003a575b600080fd5b610042610058565b60405161004f919061007b565b60405180910390f35b6060604051806126c0016040528061268f81526020016100ef61268f9139905090565b600060208083528351808285015260005b818110156100a85785810183015185820160400152820161008c565b818111156100ba576000604083870101525b50601f017fffffffffffffffffffffffffffffffffffffffffffffffffffffffffffffffe01692909201604001939250505056fe3c696d61676520687265663d22646174613a696d6167652f6a70673b6261736536342c2f396a2f34514159525868705a67414153556b714141674141414141414141414141414141502f734142464564574e7265514142414151414141426b4141442f34514e6e6148523063446f764c32357a4c6d466b62324a6c4c6d4e7662533934595841764d5334774c7741385033687759574e725a585167596d566e6157343949752b377679496761575139496c63315454424e63454e6c61476c49656e4a6c5533704f56474e3661324d355a43492f5069413865447034625842745a585268494868746247357a4f6e6739496d466b62324a6c4f6d357a4f6d316c64474576496942344f6e68746348527250534a425a4739695a53425954564167513239795a5341334c6a4574597a41774d4341334f53343559324e6a4e47526c4f544d73494449774d6a49764d444d764d5451744d5451364d4463364d6a496749434167494341674943492b494478795a475936556b5247494868746247357a4f6e4a6b5a6a30696148523063446f764c336433647935334d793576636d63764d546b354f5338774d6938794d6931795a47597463336c75644746344c57357a4979492b494478795a4759365247567a59334a706348527062323467636d526d4f6d46696233563050534969494868746247357a4f6e68746345314e50534a6f644852774f693876626e4d7559575276596d5575593239744c336868634338784c6a4176625730764969423462577875637a707a64464a6c5a6a30696148523063446f764c32357a4c6d466b62324a6c4c6d4e7662533934595841764d5334774c334e556558426c4c314a6c63323931636d4e6c556d566d4979496765473173626e4d366547317750534a6f644852774f693876626e4d7559575276596d5575593239744c336868634338784c6a4176496942346258424e54547050636d6c6e6157356862455276593356745a57353053555139496b4a43516b4d314e6a68454d5446424d6b5646525441354e555a45526a5a47526a4931516b45314d544935496942346258424e5454704562324e316257567564456c4550534a34625841755a476c6b4f6a55774d554d7952446734513059314d44457852554d354e55557952455133516a59334e55457752444e46496942346258424e5454704a626e4e305957356a5a556c4550534a346258417561576c6b4f6a55774d554d7952446733513059314d44457852554d354e55557952455133516a59334e55457752444e46496942346258413651334a6c59585276636c527662327739496b466b62324a6c4946426f6233527663326876634341794d4449794945316859326c756447397a6143492b494478346258424e545470455a584a70646d566b526e4a766253427a64464a6c5a6a7070626e4e305957356a5a556c4550534a346258417561576c6b4f6d52694e7a526a4f5451324c544d35597a67744e4756694e5331685a4446684c574d304f4752685a54646d596a45775a434967633352535a5759365a47396a6457316c626e524a52443069516b4a43517a55324f4551784d554579525556464d446b31526b52474e6b5a474d6a5643515455784d6a6b694c7a3467504339795a4759365247567a59334a70634852706232342b49447776636d526d4f6c4a45526a3467504339344f6e68746347316c6447452b4944772f654842685932746c6443426c626d5139496e4969507a372f3767414f51575276596d55415a4d4141414141422f3973416841414241514542415145424151454241514542415145424151454241514542415145424151454241514542415145424151454241514542415145424167494341674943416749434167494441774d4441774d4441774d44415145424151454241514942415149434167454341674d4441774d4441774d4441774d4441774d4441774d4441774d4441774d4441774d4441774d4441774d4441774d4441774d4441774d4441774d4441774d444177502f774141524341486f416841444152454141684542417845422f385141586741424141494341774542415141414141414141414141414155474241634341776b4941516f4241514143417741444151454141414141414141414141414642674d45427749494351454b4541454141414141414141414141414141414141414141414551454141414141414141414141414141414141414141412f396f4144414d4241414952417845415077442b594e494f684141414a70685341414144486279434141415a4c49327741414672566c3049414142327631734141414a35354d594141445a4b6b4f316741414e66724970594141444a5243784141414c53784a4141414276647864374c4141414e554c7335634141416b424c6741414e7671533667414141356f645a674141474d6b316541656154327a664b454141424e4d4b5141414159376551514141444a5a473241414174617375684141414f312b746741414250504a6a414141624a5568327341414272395a464c4141415a4b49574941414261574a494141414e37754c765a594141427168646e4c67414145674a634141427439535855414141484e44724d414141786b6d7277447a5365326235516741414a70685341414144486279434141415a4c49327741414672566c3049414142327631734141414a35354d594141445a4b6b4f316741414e66724970594141444a5243784141414c53784a4141414276647864374c4141414e554c7335634141416b424c6741414e7671533667414141356f645a674141474d6b316541656154327a664b454141424e4d4b5141414159376551514141444a5a473241414174617375684141414f312b746741414250504a6a414141624a5568327341414272395a464c4141415a4b49574941414261574a494141414e37754c765a594141427168646e4c67414145674a634141427439535855414141484e44724d414141786b6d7277447a6765326a354f674141496366674141437a73626441414159725862674141435761615a41414157466b625141414379744e5a5141414538707a70594141434654716d6741414a56484c6741414173794f5351414143794b3636454141416c6b55756f414143486271726741414e67716b36654141416e455773774141434b65534c41656572322f664a51414142446a3841414157646a626f41414446613763414141537a54544941414377736a61414141575670724b4141416e6c4f644c41414151716455304141424b6f3563414141466d52795341414157525858516741414573696c3141414151376456634141427346556e54774141453469316d4141415254795259447a31653337354b414141496366674141437a73626441414159725862674141435761615a41414157466b625141414379744e5a5141414538707a70594141434654716d6741414a56484c6741414173794f5351414143794b3636454141416c6b55756f414143486271726741414e67716b36654141416e455773774141434b65534c41656572322f664a51414142446a3841414157646a626f41414446613763414141537a54544941414377736a61414141575670724b4141416e6c4f644c41414151716455304141424b6f3563414141466d52795341414157525858516741414573696c3141414151376456634141427346556e54774141453469316d4141415254795259447a7665337a354d4141414939756f3041414259316158634141426c50464e6741414f316e6134414143526244534141416274633965774141414476566466774141465857317a73414142653057736f414143705078674141416248566431594141427a616a5a4141415a714654344141445a71734f756741414d6c4a494941414262466464434165544c3368664473414142487431476741414c477253376741414d7034707341414232733758414141534c59615141414464726e723241414141643672722b41414171363275646741414c3269316c414141564a2b4d4141414459367275724141414f625562494141444e517166414141624e566831304141426b704a424141414c5972726f5144795a65384c34646741414939756f3041414259316158634141426c50464e6741414f316e6134414143526244534141416274633965774141414476566466774141465857317a73414142653057736f414143705078674141416248566431594141427a616a5a4141415a714654344141445a71734f756741414d6c4a494941414262466464434165544c3368664473414142487431476741414c477253376741414d7034707341414232733758414141534c59615141414464726e723241414141643672722b41414171363275646741414c3269316c414141564a2b4d4141414459367275724141414f625562494141444e517166414141624e566831304141426b704a424141414c5972726f5144796a653654346f4141414f6c4b6f454141425a31546457414141596a625259414144765336494141415a79754c65414141324130562f414141566847744d414142644742506741414c38685851514141465759326f41414132417262705141414359614b534141415731574852674141474b3330554141417337476c774141456f7169614165586a3357664830414142307056416741414c4f716271774141444562614c41414164365852414141444f567862774141477747697634414143734931706741414c6f774a38414142666b4b3643414141717a473141414147774662644b4141415444525351414143327177364d41414178572b69674141466e5930754141416c4655545144793865367a342b6741414f6c4b6f454141425a31546457414141596a625259414144765336494141415a79754c65414141324130562f414141566847744d414142644742506741414c38685851514141465759326f41414132417262705141414359614b534141415731574852674141474b3330554141417337476c774141456f7169614165586a3357664830414142307056416741414c4f716271774141444562614c41414164365852414141444f567862774141477747697634414143734931706741414c6f774a38414142666b4b3643414141717a473141414147774662644b4141415444525351414143327177364d41414178572b69674141466e5930754141416c46555451447a74653754354a6741414935727630414141414141426b4e31484141414f44785359414143327177364f4141416b5559734941414357524b654141416461655141414143797177765941414363514b3741414149746e5259414143394b7136474141416e4565736f41414355595779414141366e693377414147316c546441416561623362664867414142484e642b674141414141414d68756f3441414277654b54414141573157485277414145696a466841414153794a547741414472547941414141575657463741414154694258594141424673364c414141587056585177414145346a316c414141536a4332514141485538572b414141327371626f41447a5465376234384141414935727630414141414141426b4e31484141414f44785359414143327177364f4141416b5559734941414357524b654141416461655141414143797177765941414363514b3741414149746e5259414143394b7136474141416e4565736f41414355595779414141366e693377414147316c546441416561623362664867414142484e642b674141414141414d68756f3441414277654b54414141573157485277414145696a466841414153794a547741414472547941414141575657463741414154694258594141424673364c414141587056585177414145346a316c414141536a4332514141485538572b414141327371626f41447a6165354c354b6741414a42744938414142687052436741414d786753674141435956746377414148597a764d4141425956526450414141526151566f4141425a58676b774141474d6846754141415831533354514141465a574e5777414146795578306b41414231764e726741414c30676c39414141624e554a3130414142304d6a6241656372335a664755414142494e70486741414d4e4b49554141426d4d4355414141544374726d414141374764356741414c43714c70344141434c5343744141414c4b38456d414141786b4974774141432b71573661414141724b78713241414175536d4f6b6741414f74357463414142656b45766f4141445a71684f756741414f686b6259447a6c65374c34796741414a42744938414142687052436741414d786753674141435956746377414148597a764d4141425956526450414141526151566f4141425a58676b774141474d6846754141415831533354514141465a574e5777414146795578306b41414231764e726741414c30676c39414141624e554a3130414142304d6a6241656372335a664755414142494e70486741414d4e4b49554141426d4d4355414141544374726d414141374764356741414c43714c70344141434c5343744141414c4b38456d414141786b4974774141432b71573661414141724b78713241414175536d4f6b6741414f74357463414142656b45766f4141445a71684f756741414f686b6259447a6d65383734714141414f4c4b6a774141473745577541414144692f556d41414170374969414141457768566941414163304d7551414144395a4730414141374764726741414a6851485951414147552f47414141424e50464e4141414d355846774141415874576e5167414145676945754141417471505841414142746c58303441386a483044664551414142785a556541414133596931774141416358366b77414146505a45514141416d454b73514141446d686c794141416672493267414148597a74634141424d4b413743414141796e34774141414a7034706f4141426e4b34754141414339713036454141416b45516c77414146745236344141414e73712b6e41486b592b676234694141414f4c4b6a774141473745577541414144692f556d41414170374969414141457768566941414163304d7551414144395a4730414141374764726741414a6851485951414147552f47414141424e50464e4141414d355846774141415874576e5167414145676945754141417471505841414142746c58303441386a483044664551414142785a556541414133596931774141416358366b77414146505a45514141416d454b73514141446d686c794141416672493267414148597a74634141424d4b413743414141796e34774141414a7034706f4141426e4b34754141414339713036454141416b45516c77414146745236344141414e73712b6e41486a693939337847414141537a4b78414141507546784a37764141414e4a4f6c75436741414b73787451414142626b55756f4141437576316f4141414c797179384141414a4a6854594141434f52795341414164436252414141437771717641414144693132344141416b555174774141432f4b34364d414141744349537741414338712b7334447951652f7234684141414a5a6c59674141483343346b3933674141476b6e533342514141465759326f41414174794b5855414142585836304141414635565a65414141456b7770734141424849354a4141414f684e6f67414142595656586741414278613763414141534b495734414142666c6364474141415768454a594141426556665763423549506631385167414145737973514141443768635365377741414453547062676f414143724d62554141415735464c7141414172723961414141433871737641414143535955324141416a6b636b67414148516d3051414141734b717277414141347464754141414a46454c634141417679754f6a4141414c51694573414141764b76724f41386b4876362b4951414143575a57494141423977754a506434414142704a30747755414142566d4e714141414c63696c3141414156312b744141414265565758674141424a4d4b6241414152794f53514141446f54614941414157465656344141416357753341414145696946754141415835584852674141466f524357414141586c58316e4165524436465068694141412b696e4733744741414172615165494141444154536f67414150314a4d41414144644c6c727534414144574b344f5a6741414c6b67316e414141624255523277414142684c4f7251414144505143336741414970714e6b4141423349354a4141414c63685632414141624752536441414154794a576f414142494e5a4941504952394133776a4141416652546a62326a4141415674495045414142674a705551414148366b6d41414142756c79313363414142724663484d774141467951617a6741414e6771493759414141776c6e566f4141426e6f42627741414555314779414141376b636b67414146755171374141414e6a49704f6741414a354572554141416b47736b41486b492b67623452674141506f70787437526741414b326b4869414141774530714941414439535441414141335335613775414141316975446d5941414335494e5a77414147775645647341414159537a71304141417a304174344141434b616a5a41414164794f53514141433349566467414147786b556e5141414538695671414141534457534144794566514e38497741414830553432396f774141466253447841414159436156454141422b704a67414141627063746433414141617858427a4d414142636b477334414144594b694f324141414d4a5a31614141415a36415738414142464e52736741414f35484a49414142626b4b757741414459794b546f41414365524b314141414a42724a4142355276664a385677414148346a5569414141737254544941414467384777414141744b4a573041414274315158527741414775466f55734141426656596453414141585a58463741414164547a5451414143757371444141415937535351414143364946616741414669596b344141416d326f32514141477a6c506458414141584a57567341654e5436515067384141412f45616b514141466c61615a414141634867324141414670524b326741414e757143364f414141317774436c6741414c3672447151414143374b3476594141447165616141414156316c51594141444861535341414158524172554141417354456e4141414532314779414141326370377134414143354b797467447871665342384867414148346a5569414141737254544941414467384777414141744b4a573041414274315158527741414775466f55734141426656596453414141585a58463741414164547a5451414143757371444141415937535351414143364946616741414669596b344141416d326f32514141477a6c506458414141584a57567341654e5436515067384141412f45616b514141466c61615a414141634867324141414670524b326741414e757143364f414141317774436c6741414c3672447151414143374b3476594141447165616141414156316c51594141444861535341414158524172554141417354456e4141414532314779414141326370377134414143354b79746744783266535a384941414148467274554141427339793937464141414d46507134414141354e786f6741414e704f644f3541414149564a716b4141417369714f764141414c616a32384141416878746741414d706953414141446b686b67414141744b4e57454141424f76424a6741414a4a474a59414142665659587341414266465958414234345070632b44344141446931327141414132653565396967414147436e3163414141636d343051414147306e4f6e63674141454b6b3153414141575256485867414146745237654141415134327741414755784a4141414279517951414141576c4772434141416e58676b774141456b6a45734141417671734c324141417669734c674138634830756642384141427861375641414162506376657851414144425436754141414f5463614941414461546e547551414143465361704141414c49716a7277414143326f3976414141496362594141444b596b6741414135495a494141414c536a56684141415472775359414143535269574141415831574637414141587857467741654f44365850672b414141347464716741414e6e755876596f41414267703958414141484a754e45414142744a7a70334941414243704e55674141466b5652313441414262556533674141454f4e734141426c4d5351414141636b4d6b41414146705271776741414a31344a4d4141424a49784c4141414c367243396741414c3472433441504770394b58774e414141533672756c6741414c32683178414141566c6248507741414678563963774141474177704141414275647a78323041414261555176494141434e5a6b4741414133346f7a7249414144533765595141414753794e4d41414233736239414141625955313173414142674d6a38414141583154313141414159375a5967486b692b687a34534141414a6456335377414146375136346741414b79746a6e3441414334712b755941414441595567414141334f35343761414141744b49586b414142477379444141416238555a316b4141427064764d494141444a5a476d41414137324e2b6741414e734b6136324141417747522b4141414c367036366741414d64737351447952665135384a414141457571377059414143396f6463514141465a57787a38414142635666584d414142674d4b51414141626e63386474414141576c454c794141416a575a426741414e2b4b4d36794141413075336d454141426b736a544141416437472f5141414732464e64624141415944492f4141414639553964514141474f325749423549766f632b4567414143585664307341414265304f7549414143737259352b414141754b76726d414141774746494141414e7a75654f326741414c5369463541414152724d67774141472f4647645a4141416158627a43414141795752706741414f396a666f41414462436d75746741414d426b66674141432b7165756f41414448624c4541386c5876382b486f414143784d53514141415a544f3277414148346a6b36414141327770726f67414144426243574141416267637564674141415631765049414142767451316741414166556a6e4c324241414166486270376b77414144445a336d4141416b5559746f414143665143584141415835553354414141484e2b4d674141444e61626441655037364a76672b4141417354456b41414147557a74734141422b49354f6741414e734b6136494141417757776c6741414734484c6e594141414664627a794141416237554e59414141483149357939675141414878323665354d414141773264356741414a46474c614141416e30416c774141462b564e30774141427a666a494141417a576d3351486a2b2b696234506741414c45784a414141426c4d376241414166694f546f41414462436d75694141414d46734a5941414275427935324141414258573838674141472b3144574141414239534f637659454141423864756e75544141414d4e6e6559414143525269326741414a39414a63414142666c54644d414141633334794141414d3170743042342f766f6d2b4434414143784d53514141415a544f3277414148346a6b36414141327770726f67414144426243574141416267637564674141415631765049414142767451316741414166556a6e4c324241414166486270376b77414144445a336d4141416b5559746f414143665143584141415835553354414141484e2b4d674141444e61626441654e37365150676341414176694c5845414142566d4e714141414a3148706b41414261304f766f41414378494e6367414147305656586741414272394c6f674141423657765568374c6741414e534c437659414144567a6f6a6e5941414357613764414141533758574d4141424b4946506741414c676846754141415a6243385141414732314464434165444c366d50353551414146385261346741414b737874514141424f6f394d6741414c57683139414141574a42726b41414132697171384141414e66706445414141505331366b505a634141427152595637414141617564456337414141537a58626f414143586136786741414a5241703841414263454974774141444c59586941414132326f626f5144775a6655782f504b41414176694c5845414142566d4e714141414a3148706b41414261304f766f41414378494e6367414147305656586741414272394c6f674141423657765568374c6741414e534c437659414144567a6f6a6e5941414357613764414141533758574d4141424b4946506741414c676846754141415a6243385141414732314464434165444c366d50353551414146385261346741414b737874514141424f6f394d6741414c57683139414141574a42726b41414132697171384141414e66706445414141505331366b505a634141427152595637414141617564456337414141537a58626f414143586136786741414a5241703841414263454974774141444c59586941414132326f626f5144776d6654782f5038414141414e6c7167362b41414131326e6e5067414146385261344141414a5643725541414173374b7a6741414c4d6f7a71494141436a4c417241414144367563476532514141436b72477141414143344e316841414162595542324541414248743568414141526a77654141414459797072534141417643455734414142456f644e67504535394c337750414141624c564231384141427274504f664141414c34693177414141537146576f4141425a32566e414141575a526e555141414647574257414141483163344d3973674141464a574e55414141467762724341414132776f44734941414350627a434141416a48673841414147786c54576b41414265454974774141434a51366241654a7a3658766765414141325771447234414144586165632b41414158784672674141416c554b74514141437a73724f41414173796a4f6f6741414b4d734373414141507135775a375a4141414b5373616f4141414c6733574541414274685148595141414565336d45414142475042344141414e6a4b6d74494141433849526267414145536830324138546e3076664138414142737455485877414147753038353841414176694c58414141424b6f5661674141466e5a57634141425a6c476452414141555a59465941414166567a677a3279414141556c59315141414158427573494141446243674f776741414939764d494141434d6544774141416247564e615141414634516933414141496c44707342347276704d2b4659414143314b5975514141437672496777414147784664644e4141416437535a6741414667624b64414141533672725141414179336d31774141483672362f414141506f686f70304141426655653367414146756338645741414164374b6b6741414659527157414141577867624941414378494e4e6741414b6b386d2b412f2f32513d3d222077696474683d2232363422206865696768743d22323434222f3ea2646970667358221220c04f68dd116659ee4f314f1d69c50c92e06e12bd84340805b62f826312930d9f64736f6c63430008090033",
  "devdoc": {
    "kind": "dev",
    "methods": {},
    "version": 1
  },
  "userdoc": {
    "kind": "user",
    "methods": {},
    "version": 1
  },
  "storageLayout": {
    "storage": [],
    "types": null
  }
}