{
  "address": "0x97fba1c8Cd757b429A5A41970e1EDfaA0aC60336",
  "abi": [
    {
      "inputs": [],
      "name": "IMAGE",
      "outputs": [
        {
          "internalType": "string",
          "name": "",
          "type": "string"
        }
      ],
      "stateMutability": "pure",
      "type": "function"
    }
  ],
  "transactionHash": "0xa868692471822e77b402c5e7f278c6ed23f462174f5cf969628f841a8e870d86",
  "args": [],
  "numDeployments": 2,
  "solcInputHash": "d4f4be53d7a4d379d682f733428c1e1c",
  "bytecode": "0x61125b61003a600b82828239805160001a60731461002d57634e487b7160e01b600052600060045260246000fd5b30600052607381538281f3fe73000000000000000000000000000000000000000030146080604052600436106100355760003560e01c80630506eb401461003a575b600080fd5b610042610058565b60405161004f919061007b565b60405180910390f35b606060405180611160016040528061113781526020016100ef6111379139905090565b600060208083528351808285015260005b818110156100a85785810183015185820160400152820161008c565b818111156100ba576000604083870101525b50601f017fffffffffffffffffffffffffffffffffffffffffffffffffffffffffffffffe01692909201604001939250505056fe3c696d61676520687265663d22646174613a696d6167652f706e673b6261736536342c6956424f5277304b47676f414141414e53556845556741414151674141414549434159414141436a396d722f414141414358424957584d41414173544141414c457745416d7077594141414141584e535230494172733463365141414141526e51553142414143786a777638595155414141784f53555242564867423764314e623252484763587835366c37753232504a32386b4b4368534e75786777596276762b427a73414b7841495167795754696c2b362b52645831454745505a34484f4d3149552f5838616532484a70617136645539337539566e386f2b2f583376386c2b3353592b76506676522f792f6e376c37426474777a5859517a5277724e6b6a344d37794a4470722b6571396643337059643569574d755a62337931394d762f735a6d32794958633048375a5079356e4c5957396b79326558334d653343652b39572f50675848487344504651454251434967414567454241434a674141677265314652707a48333241767359566a2f75313038662b57572f44582b76457578754b5073347774716e675859796b617733387a4a4b5067387051387647544a47504e503975364378686a657364387475646c37322b66314c5a684c6e76324c504e34496558376135704158382b326531756462636637376e4576344471742f5979377a4c54317a4d6e4f5831344b626f632f4a4641526e6963302f67487441754f755a59797a6d49474d7066664d33646a6e3741624850785830556d472b566e734c47537777414567454251434967414567454241434a67414167455241414a41494367455241414a41494341415341514641496941415341514541496d41414341524541416b41674b417447612b2f2b48317a6679412f6c375a5856463455564149305a726642394661526c7639376f4f4b6a7061394a4b4d6931724f67792b4563766f7131745044486d647452734366377562663749416f4b66544a4c2f6975413964436546377538485366775a425a6e6246754c633047627a5a64582f686858683478314463766336447a366853546e6330485479303359545471354650772f457550583838472f7533764244625633713768626d2b2b616e46797a46636739747650654b53696443663566444141664567454251434967414567454241434a67414167455241414a41494367455241414a41494341415341514641496941415341514541496d41414341524541416b41674b41524541416b4e6250663358313741664c76375a3439594e58422f56346a6e6862554936537131394c7459336c64624d77706839476b7271464d546c375867706171635a636f706e6a3741314d2f7658704e78554e5441587a6d4e66586252386253326d6e6775747a4833366232746166696e53734d6362584a577872653945364d797661334c507a31414257554d395430664154666c5051336c6855384677724b39597a777145587443655654435a4c537652387a583851794b49624b69724f7968622b3257395255767649537777414567454251434967414567454241434a67414167455241414a41494367455241414a41494341415341514641496941415341514541496d41414341524541416b41674b41744c5a2b65766144313963396270723351664c4c2b505650586f587431585859446d4d65792b4a39754c367650667168347350316668376e545559755a673944525266456d4d4a324637374c3031694f484f636b622f30536b2b36577a6b7a66704e2f4438446a6d6367354c626d4e5448384b32766d7a4a754470327535316e747548737a55656d4c42686a4f5935783341732f44302f426336324b4135687a505774526b34356a3367512f68472b4f342f624f7a47747a444d2b34453372426731724f7831753365476175357853654c53694d41664268455241414a41494367455241414a41494341415341514641496941415341514541496d41414341524541416b41674b41524541416b4167494142494241554169494142496139362b2b4d6b354974335073382f664c2f677365727166385a396d36557a7a43676436316e5373784f59574838525464344b3774374f586f706b4c6d7239653866425355426754707a475a6b7a6e494d737434776e64625542697a7a6c344a637a336e744d2f39507058323678632f4b57697a3263394e775233566a77566a7a44596f6435684c5154765050445466687132664e2f7636784f3234516a666d706c786d4155354251395a643977745763743449356e702b4d62362b4c6b693854394e76794c7137375065685a563666652f2f2b3453554741496d41414341524541416b41674b41524541416b41674941424942415541694941424942415141695941414942455141435143416f42455141435143416741456745425143496741456a723973587a646f75636b5648526e7454394e707338686133337441754c63683366334861724d596e2b646731586639763331692f4c3637456e722f324c76487a744e72314562482f6f30652f434d71395048737a3158422b6a662f7846755072564e324e525a71585533546a344a32397673363352626d374478544d4941424942415541694941424942415141695941414942455141435143416f424551414351434167414567454251434967414567454241434a67414167455241414a41494367455241414a44573976474c4f7057437370694b76706d70627758356c664f664f614d356a594e5a4f7a4e2b50612f4e497045357a4b646a4d75597765545632354d706654372f7a31354f3337616d6b794a6e4b6455592f684358624a64723554626a365655486a30745678444f53653258584d35614e777258455448305a4653766a6e6238776a2f626e4d612b3657516657434d654a704f54334e4263304770695538343970307631427133417a70582b635244743164542b76524c6d613131644276727034756b694f502b7731756d62392f38473975586d49416b41674941424942415541694941424942415141695941414942455141435143416f424551414351434167414567454251434967414567454241434a6741416745524141704457326c345578667048444844473757556979442b535073532f483755615a383341374377713259782b6d722b4f626c2b755837382f524837304a7a5a4b5835537038742b48335a4d7a6167316475536376344f6f587648503744376d6c4d704a2f44305338742b736b76374668666c6e3773323278582f5052785078586445616163643761356e4a7a6c4b4c30694f50306e624830376a726c343753696e663051382f75306848473363554b392f563743655834357a3868696556383050694d4d497a6f654368714a5a674f4d2b794c36356a336a776275352b332b50305679396b4a6c3569414a41494341415341514641496941415341514541496d41414341524541416b41674b41524541416b41674941424942415541694941424942415141695941414942455141435143416f433074765839636f75655a6e4847374d786f5035587338597465496e746b46685467744949436a2f7333646a74562b7a7a6a2b4a6d354c7a6c4c645079436c6661627443395235695873515671507668595578735362734e324f74567837362b6c726a3470626b47635141435143416f424551414351434167414567454251434967414567454241434a67414167455241414a41494367455241414a41494341415341514641496941415341514541496d41414343742f65724654325a505258706c46546b62545670422b555a423130765069734b59483739357731537370365664474a4f393257504d37566975773162514f524e3939764363777459664369375132522b6a62786d62653332576a506262734b337650596649384f2b46696a482b4d343672346a6c537854794b354471626e4d774a7a634e6e6a6a4562746e494a327a364e677249754f32674b396d5233446e73394d787a633563787a306a373231384e4c4441415341514641496941415341514541496d41414341524541416b41674b41524541416b41674941424942415541694941424942415141695941414942455141435143416f4330766c6469386e507267386943736f45356b594a7873685755695977783075777436486d4948462b32395279323754774c4c7349793932514e303379734c43693432507a4833466e6f30397a4476347739756662583837384c59317a3572766e49566644387072654b674367595932624d556e423473766d4e58387431395055325841566c55424758372b79326c357a37595a2b33326244794b6c79392b64646e475850703775476662543672582f6e46537777414567454251434967414567454241434a67414167455241414a41494367455241414a41494341415341514641496941415341514541496d41414341524541416b41674b41744c3566316a452f792b3731482f516676336b71756c3536393964547076394575696c6d2f304b2f684b2b673379494f3435765a4c44483746394c74673268523833685a314c6955376c78617752676a494c5958357954484155783367624d77707141764a692f2b4950506339494c313247646e6a6e456f754c6b505a2f2f3839653869746a64686d59667638476e596a6c2b4658776331433162634d65614e38445a38443247482b5072524f47396d325573753478366b4d41624142305241414a41494341415341514641496941415341514541496d41414341524541416b41674b41524541416b416749414249424155416949414249424151416959414149424551414b5131766e765250724a6b394661514732354c305044776c7956636551363776364f39486c3966686964373949752f4a7a485834786247724431794e54646c722f76364e6d7837593547356f485963513179465a526267724d64773966575438423933317a47514f5562667871366170554437544d34764c303546485651767141434c754c7a3178326950666c62316d564e75513976636a30745244352f647274594c6d75766d474b65776262504679563351534d336d687539737044714537316851395a5a46312b63634c6c3569414a41494341415341514641496941415341514541496d41414341524541416b41674b41524541416b416749414249424155416949414249424151416959414149424551414b54313875666e50386a462f7a6a37316a504f5a372f4c5966756e50385a654e57414f303438393075314757534f577238493365796e63726f4343457032357077575648324d65462f2f3678444c6d346e5654394e6a47337436484b2f504f766f48367645446476454239724b663736316b766633702b64584b64362f4d6d4e3850683463452f5055744241564f2f6d514f467053383541734c626b7a794f7032746d36644875682f466c37737465426d55583449533972377631624164456a6875796d795648325a6659306e39436e52632f494c492f6a70417779336a32674c674c46793878414567454241434a67414167455241414a41494367455241414a41494341415341514641496941415341514541496d41414341524541416b41674b41524541416b416749414e4c36736a696b62326c3369637975693137514a6c4c5352394c6639523834747537334a31515576635337716746376e50514c53534a4b316c4d78547438506e446c4962754f63464253514648693664396277394847562f66577332347378336a356b504a7074554d736834334264554c357863752f4b7037506e626c50656a33482b62683741367a4847397757682b6570704c4d76442b4c723335394b2f443939743978384a2b6978584f59646c4a6d2f363532334c7a2f7a436d4f574c3863323779446d626e397272635045534134424551414351434167414567454251434967414567454241434a67414167455241414a41494367455241414a414943414153415146414969414153415145414f6e662b4575547266572f59496341414141415355564f524b35435949493d222077696474683d2232363422206865696768743d22323434222f3ea2646970667358221220a93384296f1918e6ee832cbc755bdfbf1e6316f3814824dd8780da63f636a7e564736f6c63430008090033",
  "devdoc": {
    "kind": "dev",
    "methods": {},
    "version": 1
  },
  "userdoc": {
    "kind": "user",
    "methods": {},
    "version": 1
  },
  "storageLayout": {
    "storage": [],
    "types": null
  }
}