{
  "address": "0x556fC7F326370BcEE8683fD89c5BEA301fB8Ea58",
  "abi": [
    {
      "anonymous": false,
      "inputs": [
        {
          "indexed": true,
          "internalType": "address",
          "name": "owner",
          "type": "address"
        },
        {
          "indexed": true,
          "internalType": "address",
          "name": "approved",
          "type": "address"
        },
        {
          "indexed": true,
          "internalType": "uint256",
          "name": "tokenId",
          "type": "uint256"
        }
      ],
      "name": "Approval",
      "type": "event"
    },
    {
      "anonymous": false,
      "inputs": [
        {
          "indexed": true,
          "internalType": "address",
          "name": "owner",
          "type": "address"
        },
        {
          "indexed": true,
          "internalType": "address",
          "name": "operator",
          "type": "address"
        },
        {
          "indexed": false,
          "internalType": "bool",
          "name": "approved",
          "type": "bool"
        }
      ],
      "name": "ApprovalForAll",
      "type": "event"
    },
    {
      "anonymous": false,
      "inputs": [
        {
          "indexed": false,
          "internalType": "uint8",
          "name": "version",
          "type": "uint8"
        }
      ],
      "name": "Initialized",
      "type": "event"
    },
    {
      "anonymous": false,
      "inputs": [
        {
          "indexed": true,
          "internalType": "bytes32",
          "name": "role",
          "type": "bytes32"
        },
        {
          "indexed": true,
          "internalType": "bytes32",
          "name": "previousAdminRole",
          "type": "bytes32"
        },
        {
          "indexed": true,
          "internalType": "bytes32",
          "name": "newAdminRole",
          "type": "bytes32"
        }
      ],
      "name": "RoleAdminChanged",
      "type": "event"
    },
    {
      "anonymous": false,
      "inputs": [
        {
          "indexed": true,
          "internalType": "bytes32",
          "name": "role",
          "type": "bytes32"
        },
        {
          "indexed": true,
          "internalType": "address",
          "name": "account",
          "type": "address"
        },
        {
          "indexed": true,
          "internalType": "address",
          "name": "sender",
          "type": "address"
        }
      ],
      "name": "RoleGranted",
      "type": "event"
    },
    {
      "anonymous": false,
      "inputs": [
        {
          "indexed": true,
          "internalType": "bytes32",
          "name": "role",
          "type": "bytes32"
        },
        {
          "indexed": true,
          "internalType": "address",
          "name": "account",
          "type": "address"
        },
        {
          "indexed": true,
          "internalType": "address",
          "name": "sender",
          "type": "address"
        }
      ],
      "name": "RoleRevoked",
      "type": "event"
    },
    {
      "anonymous": false,
      "inputs": [
        {
          "indexed": true,
          "internalType": "address",
          "name": "from",
          "type": "address"
        },
        {
          "indexed": true,
          "internalType": "address",
          "name": "to",
          "type": "address"
        },
        {
          "indexed": true,
          "internalType": "uint256",
          "name": "tokenId",
          "type": "uint256"
        }
      ],
      "name": "Transfer",
      "type": "event"
    },
    {
      "inputs": [],
      "name": "DEFAULT_ADMIN_ROLE",
      "outputs": [
        {
          "internalType": "bytes32",
          "name": "",
          "type": "bytes32"
        }
      ],
      "stateMutability": "view",
      "type": "function"
    },
    {
      "inputs": [],
      "name": "MANAGER_ROLE",
      "outputs": [
        {
          "internalType": "bytes32",
          "name": "",
          "type": "bytes32"
        }
      ],
      "stateMutability": "view",
      "type": "function"
    },
    {
      "inputs": [
        {
          "internalType": "address",
          "name": "to",
          "type": "address"
        },
        {
          "internalType": "uint256",
          "name": "tokenId",
          "type": "uint256"
        }
      ],
      "name": "approve",
      "outputs": [],
      "stateMutability": "nonpayable",
      "type": "function"
    },
    {
      "inputs": [
        {
          "internalType": "address",
          "name": "owner",
          "type": "address"
        }
      ],
      "name": "balanceOf",
      "outputs": [
        {
          "internalType": "uint256",
          "name": "",
          "type": "uint256"
        }
      ],
      "stateMutability": "view",
      "type": "function"
    },
    {
      "inputs": [
        {
          "internalType": "address",
          "name": "contributor",
          "type": "address"
        }
      ],
      "name": "contributionPointOf",
      "outputs": [
        {
          "internalType": "int256",
          "name": "",
          "type": "int256"
        }
      ],
      "stateMutability": "view",
      "type": "function"
    },
    {
      "inputs": [
        {
          "internalType": "address",
          "name": "contributor",
          "type": "address"
        },
        {
          "internalType": "uint256",
          "name": "orderId",
          "type": "uint256"
        }
      ],
      "name": "contributionRecordByIndex",
      "outputs": [
        {
          "components": [
            {
              "internalType": "uint32",
              "name": "tagId",
              "type": "uint32"
            },
            {
              "internalType": "uint32",
              "name": "time",
              "type": "uint32"
            },
            {
              "internalType": "uint32",
              "name": "point",
              "type": "uint32"
            }
          ],
          "internalType": "struct IContributionStruct.ContributionRecord",
          "name": "",
          "type": "tuple"
        }
      ],
      "stateMutability": "view",
      "type": "function"
    },
    {
      "inputs": [
        {
          "internalType": "address",
          "name": "contributor",
          "type": "address"
        }
      ],
      "name": "contributionRecordCounts",
      "outputs": [
        {
          "internalType": "uint256",
          "name": "",
          "type": "uint256"
        }
      ],
      "stateMutability": "view",
      "type": "function"
    },
    {
      "inputs": [
        {
          "internalType": "address",
          "name": "contributor",
          "type": "address"
        },
        {
          "internalType": "uint256",
          "name": "start",
          "type": "uint256"
        },
        {
          "internalType": "uint256",
          "name": "nums",
          "type": "uint256"
        }
      ],
      "name": "contributionRecords",
      "outputs": [
        {
          "components": [
            {
              "internalType": "uint32",
              "name": "tagId",
              "type": "uint32"
            },
            {
              "internalType": "uint32",
              "name": "time",
              "type": "uint32"
            },
            {
              "internalType": "uint32",
              "name": "point",
              "type": "uint32"
            }
          ],
          "internalType": "struct IContributionStruct.ContributionRecord[]",
          "name": "records",
          "type": "tuple[]"
        }
      ],
      "stateMutability": "view",
      "type": "function"
    },
    {
      "inputs": [
        {
          "internalType": "address",
          "name": "contributor",
          "type": "address"
        }
      ],
      "name": "contributorIdOf",
      "outputs": [
        {
          "internalType": "uint256",
          "name": "",
          "type": "uint256"
        }
      ],
      "stateMutability": "view",
      "type": "function"
    },
    {
      "inputs": [
        {
          "internalType": "address",
          "name": "contributor",
          "type": "address"
        },
        {
          "internalType": "uint32",
          "name": "tagId",
          "type": "uint32"
        },
        {
          "internalType": "uint32",
          "name": "point",
          "type": "uint32"
        }
      ],
      "name": "createRecord",
      "outputs": [],
      "stateMutability": "nonpayable",
      "type": "function"
    },
    {
      "inputs": [
        {
          "internalType": "string",
          "name": "desc",
          "type": "string"
        }
      ],
      "name": "createTag",
      "outputs": [
        {
          "internalType": "uint32",
          "name": "tagId",
          "type": "uint32"
        }
      ],
      "stateMutability": "nonpayable",
      "type": "function"
    },
    {
      "inputs": [
        {
          "internalType": "address",
          "name": "contributor",
          "type": "address"
        },
        {
          "internalType": "uint256",
          "name": "orderId",
          "type": "uint256"
        }
      ],
      "name": "deleteRecord",
      "outputs": [
        {
          "components": [
            {
              "internalType": "uint32",
              "name": "tagId",
              "type": "uint32"
            },
            {
              "internalType": "uint32",
              "name": "time",
              "type": "uint32"
            },
            {
              "internalType": "uint32",
              "name": "point",
              "type": "uint32"
            }
          ],
          "internalType": "struct IContributionStruct.ContributionRecord",
          "name": "record",
          "type": "tuple"
        }
      ],
      "stateMutability": "nonpayable",
      "type": "function"
    },
    {
      "inputs": [
        {
          "internalType": "uint256",
          "name": "tokenId",
          "type": "uint256"
        }
      ],
      "name": "getApproved",
      "outputs": [
        {
          "internalType": "address",
          "name": "",
          "type": "address"
        }
      ],
      "stateMutability": "view",
      "type": "function"
    },
    {
      "inputs": [
        {
          "internalType": "bytes32",
          "name": "role",
          "type": "bytes32"
        }
      ],
      "name": "getRoleAdmin",
      "outputs": [
        {
          "internalType": "bytes32",
          "name": "",
          "type": "bytes32"
        }
      ],
      "stateMutability": "view",
      "type": "function"
    },
    {
      "inputs": [
        {
          "internalType": "bytes32",
          "name": "role",
          "type": "bytes32"
        },
        {
          "internalType": "address",
          "name": "account",
          "type": "address"
        }
      ],
      "name": "grantRole",
      "outputs": [],
      "stateMutability": "nonpayable",
      "type": "function"
    },
    {
      "inputs": [
        {
          "internalType": "bytes32",
          "name": "role",
          "type": "bytes32"
        },
        {
          "internalType": "address",
          "name": "account",
          "type": "address"
        }
      ],
      "name": "hasRole",
      "outputs": [
        {
          "internalType": "bool",
          "name": "",
          "type": "bool"
        }
      ],
      "stateMutability": "view",
      "type": "function"
    },
    {
      "inputs": [
        {
          "internalType": "string",
          "name": "name_",
          "type": "string"
        },
        {
          "internalType": "string",
          "name": "symbol_",
          "type": "string"
        }
      ],
      "name": "initialize",
      "outputs": [],
      "stateMutability": "nonpayable",
      "type": "function"
    },
    {
      "inputs": [
        {
          "internalType": "address",
          "name": "owner",
          "type": "address"
        },
        {
          "internalType": "address",
          "name": "operator",
          "type": "address"
        }
      ],
      "name": "isApprovedForAll",
      "outputs": [
        {
          "internalType": "bool",
          "name": "",
          "type": "bool"
        }
      ],
      "stateMutability": "view",
      "type": "function"
    },
    {
      "inputs": [
        {
          "internalType": "bytes[]",
          "name": "data",
          "type": "bytes[]"
        }
      ],
      "name": "multicall",
      "outputs": [
        {
          "internalType": "bytes[]",
          "name": "results",
          "type": "bytes[]"
        }
      ],
      "stateMutability": "nonpayable",
      "type": "function"
    },
    {
      "inputs": [],
      "name": "name",
      "outputs": [
        {
          "internalType": "string",
          "name": "",
          "type": "string"
        }
      ],
      "stateMutability": "view",
      "type": "function"
    },
    {
      "inputs": [
        {
          "internalType": "uint256",
          "name": "tokenId",
          "type": "uint256"
        }
      ],
      "name": "ownerOf",
      "outputs": [
        {
          "internalType": "address",
          "name": "",
          "type": "address"
        }
      ],
      "stateMutability": "view",
      "type": "function"
    },
    {
      "inputs": [
        {
          "internalType": "bytes32",
          "name": "role",
          "type": "bytes32"
        },
        {
          "internalType": "address",
          "name": "account",
          "type": "address"
        }
      ],
      "name": "renounceRole",
      "outputs": [],
      "stateMutability": "nonpayable",
      "type": "function"
    },
    {
      "inputs": [
        {
          "internalType": "bytes32",
          "name": "role",
          "type": "bytes32"
        },
        {
          "internalType": "address",
          "name": "account",
          "type": "address"
        }
      ],
      "name": "revokeRole",
      "outputs": [],
      "stateMutability": "nonpayable",
      "type": "function"
    },
    {
      "inputs": [
        {
          "internalType": "address",
          "name": "from",
          "type": "address"
        },
        {
          "internalType": "address",
          "name": "to",
          "type": "address"
        },
        {
          "internalType": "uint256",
          "name": "tokenId",
          "type": "uint256"
        }
      ],
      "name": "safeTransferFrom",
      "outputs": [],
      "stateMutability": "nonpayable",
      "type": "function"
    },
    {
      "inputs": [
        {
          "internalType": "address",
          "name": "from",
          "type": "address"
        },
        {
          "internalType": "address",
          "name": "to",
          "type": "address"
        },
        {
          "internalType": "uint256",
          "name": "tokenId",
          "type": "uint256"
        },
        {
          "internalType": "bytes",
          "name": "data",
          "type": "bytes"
        }
      ],
      "name": "safeTransferFrom",
      "outputs": [],
      "stateMutability": "nonpayable",
      "type": "function"
    },
    {
      "inputs": [
        {
          "internalType": "address",
          "name": "operator",
          "type": "address"
        },
        {
          "internalType": "bool",
          "name": "approved",
          "type": "bool"
        }
      ],
      "name": "setApprovalForAll",
      "outputs": [],
      "stateMutability": "nonpayable",
      "type": "function"
    },
    {
      "inputs": [
        {
          "internalType": "bytes4",
          "name": "interfaceId",
          "type": "bytes4"
        }
      ],
      "name": "supportsInterface",
      "outputs": [
        {
          "internalType": "bool",
          "name": "",
          "type": "bool"
        }
      ],
      "stateMutability": "view",
      "type": "function"
    },
    {
      "inputs": [],
      "name": "symbol",
      "outputs": [
        {
          "internalType": "string",
          "name": "",
          "type": "string"
        }
      ],
      "stateMutability": "view",
      "type": "function"
    },
    {
      "inputs": [
        {
          "internalType": "uint32",
          "name": "tagId",
          "type": "uint32"
        }
      ],
      "name": "tagDescription",
      "outputs": [
        {
          "internalType": "string",
          "name": "",
          "type": "string"
        }
      ],
      "stateMutability": "view",
      "type": "function"
    },
    {
      "inputs": [
        {
          "internalType": "uint256",
          "name": "contributorId",
          "type": "uint256"
        }
      ],
      "name": "tokenURI",
      "outputs": [
        {
          "internalType": "string",
          "name": "",
          "type": "string"
        }
      ],
      "stateMutability": "view",
      "type": "function"
    },
    {
      "inputs": [],
      "name": "totalSupply",
      "outputs": [
        {
          "internalType": "uint256",
          "name": "",
          "type": "uint256"
        }
      ],
      "stateMutability": "view",
      "type": "function"
    },
    {
      "inputs": [],
      "name": "totalTags",
      "outputs": [
        {
          "internalType": "uint256",
          "name": "",
          "type": "uint256"
        }
      ],
      "stateMutability": "view",
      "type": "function"
    },
    {
      "inputs": [
        {
          "internalType": "address",
          "name": "from",
          "type": "address"
        },
        {
          "internalType": "address",
          "name": "to",
          "type": "address"
        },
        {
          "internalType": "uint256",
          "name": "tokenId",
          "type": "uint256"
        }
      ],
      "name": "transferFrom",
      "outputs": [],
      "stateMutability": "nonpayable",
      "type": "function"
    },
    {
      "inputs": [
        {
          "internalType": "address",
          "name": "contributor",
          "type": "address"
        },
        {
          "internalType": "uint256",
          "name": "orderId",
          "type": "uint256"
        },
        {
          "internalType": "uint32",
          "name": "point",
          "type": "uint32"
        }
      ],
      "name": "updateRecord",
      "outputs": [],
      "stateMutability": "nonpayable",
      "type": "function"
    },
    {
      "inputs": [
        {
          "internalType": "uint32",
          "name": "tagId",
          "type": "uint32"
        },
        {
          "internalType": "string",
          "name": "desc",
          "type": "string"
        }
      ],
      "name": "updateTagDescription",
      "outputs": [],
      "stateMutability": "nonpayable",
      "type": "function"
    },
    {
      "inputs": [
        {
          "internalType": "uint32",
          "name": "amount",
          "type": "uint32"
        },
        {
          "internalType": "address",
          "name": "to",
          "type": "address"
        },
        {
          "internalType": "bytes",
          "name": "data",
          "type": "bytes"
        }
      ],
      "name": "usePoint",
      "outputs": [],
      "stateMutability": "nonpayable",
      "type": "function"
    }
  ],
  "transactionHash": "0x6bacd39a0c2499e128ef1ac7fa2a20f483f5d70d1c73cee218203a183a94bad3",
  "args": [],
  "numDeployments": 2,
  "solcInputHash": "02d9f995c11ec0cd39e2eba4e6723a04",
  "bytecode": "0x608060405234801561001057600080fd5b5061488d806100206000396000f3fe608060405234801561001057600080fd5b506004361061025b5760003560e01c806367cf96aa11610145578063b88d4fde116100bd578063d547741f1161008c578063e985e9c511610071578063e985e9c5146105b4578063ec87621c146105fd578063f02ab9871461062457600080fd5b8063d547741f1461058e578063dc9adfa8146105a157600080fd5b8063b88d4fde1461051f578063c185bd1014610532578063c87b56dd14610545578063c9ddc2641461055857600080fd5b806395d89b4111610114578063a22cb465116100f9578063a22cb465146104d9578063ac9650d8146104ec578063b85891ea1461050c57600080fd5b806395d89b41146104c9578063a217fddf146104d157600080fd5b806367cf96aa1461044a57806370a082311461045d5780637a6d40031461047057806391d148541461048357600080fd5b8063248a9ca3116101d85780633f6782d2116101a75780634585cdc11161018c5780634585cdc1146104115780634cd88b76146104245780636352211e1461043757600080fd5b80633f6782d2146103c857806342842e0e146103fe57600080fd5b8063248a9ca31461035f5780632f2ff15d1461038257806336568abe146103955780633be09cb7146103a857600080fd5b8063095ea7b31161022f5780631f36d212116102145780631f36d21214610304578063210661b71461032c57806323b872dd1461034c57600080fd5b8063095ea7b3146102e757806318160ddd146102fc57600080fd5b8062e9236f1461026057806301ffc9a71461027757806306fdde031461029a578063081812fc146102af575b600080fd5b60fd545b6040519081526020015b60405180910390f35b61028a610285366004613884565b610637565b604051901515815260200161026e565b6102a2610657565b60405161026e9190613917565b6102c26102bd36600461392a565b6106e9565b60405173ffffffffffffffffffffffffffffffffffffffff909116815260200161026e565b6102fa6102f5366004613967565b61071d565b005b60ff54610264565b610317610312366004613a74565b6108af565b60405163ffffffff909116815260200161026e565b61033f61033a366004613967565b6109b1565b60405161026e9190613aa9565b6102fa61035a366004613ad6565b610cb2565b61026461036d36600461392a565b60009081526097602052604090206001015490565b6102fa610390366004613b12565b610d53565b6102fa6103a3366004613b12565b610d78565b6103bb6103b6366004613b3e565b610e2b565b60405161026e9190613b71565b6102646103d6366004613bde565b73ffffffffffffffffffffffffffffffffffffffff16600090815260fb602052604090205490565b6102fa61040c366004613ad6565b611069565b6102a261041f366004613c0d565b611084565b6102fa610432366004613c28565b611139565b6102c261044536600461392a565b6112f2565b610264610458366004613bde565b61137e565b61026461046b366004613bde565b61141a565b6102fa61047e366004613c8c565b6114e8565b61028a610491366004613b12565b600091825260976020908152604080842073ffffffffffffffffffffffffffffffffffffffff93909316845291905290205460ff1690565b6102a2611805565b610264600081565b6102fa6104e7366004613cc8565b611814565b6104ff6104fa366004613d04565b61181f565b60405161026e9190613d79565b6102fa61051a366004613df9565b611914565b6102fa61052d366004613e87565b611a58565b6102fa610540366004613f03565b611afa565b6102a261055336600461392a565b611da9565b610264610566366004613bde565b73ffffffffffffffffffffffffffffffffffffffff16600090815260fc602052604090205490565b6102fa61059c366004613b12565b611eb7565b6102fa6105af366004613f3d565b611edc565b61028a6105c2366004613f81565b73ffffffffffffffffffffffffffffffffffffffff9182166000908152606a6020908152604080832093909416825291909152205460ff1690565b6102647faf290d8680820aad922855f39b306097b20e28774d6c1ad35a20325630c3a02c81565b61033f610632366004613967565b61201c565b6000610642826120bc565b8061065157506106518261219f565b92915050565b60606065805461066690613fab565b80601f016020809104026020016040519081016040528092919081815260200182805461069290613fab565b80156106df5780601f106106b4576101008083540402835291602001916106df565b820191906000526020600020905b8154815290600101906020018083116106c257829003601f168201915b5050505050905090565b60006106f4826121f5565b5060009081526069602052604090205473ffffffffffffffffffffffffffffffffffffffff1690565b6000610728826112f2565b90508073ffffffffffffffffffffffffffffffffffffffff168373ffffffffffffffffffffffffffffffffffffffff1614156107eb576040517f08c379a000000000000000000000000000000000000000000000000000000000815260206004820152602160248201527f4552433732313a20617070726f76616c20746f2063757272656e74206f776e6560448201527f720000000000000000000000000000000000000000000000000000000000000060648201526084015b60405180910390fd5b3373ffffffffffffffffffffffffffffffffffffffff82161480610814575061081481336105c2565b6108a0576040517f08c379a000000000000000000000000000000000000000000000000000000000815260206004820152603e60248201527f4552433732313a20617070726f76652063616c6c6572206973206e6f7420746f60448201527f6b656e206f776e6572206e6f7220617070726f76656420666f7220616c6c000060648201526084016107e2565b6108aa8383612283565b505050565b3360009081527fe0601880cdabed0469f97fd15da07fe74fbbb126935f404539f62180845d005f602052604081205460ff16610947576040517f08c379a000000000000000000000000000000000000000000000000000000000815260206004820152600c60248201527f4f4e4c59204d414e41474552000000000000000000000000000000000000000060448201526064016107e2565b60fd5463ffffffff1161095957600080fd5b60fd8054600181018255600091909152825161099c917f9346ac6dd7de6b96975fec380d4d994c4c12e6a8897544f22915316cc6cca280019060208501906137bd565b5060fd546106519060019061402e565b919050565b60408051606081018252600080825260208083018290528284018290523382527fe0601880cdabed0469f97fd15da07fe74fbbb126935f404539f62180845d005f9052919091205460ff16610a62576040517f08c379a000000000000000000000000000000000000000000000000000000000815260206004820152600c60248201527f4f4e4c59204d414e41474552000000000000000000000000000000000000000060448201526064016107e2565b73ffffffffffffffffffffffffffffffffffffffff8316600090815260fb602052604090208054819084908110610a9b57610a9b614045565b600091825260209182902060408051606081018252919092015463ffffffff80821683526401000000008204811694830194909452680100000000000000009004909216908201529150825b8154610af59060019061402e565b811015610bfc5781610b08826001614074565b81548110610b1857610b18614045565b90600052602060002001828281548110610b3457610b34614045565b6000918252602090912082549101805463ffffffff9283167fffffffffffffffffffffffffffffffffffffffffffffffffffffffff0000000082168117835584547fffffffffffffffffffffffffffffffffffffffffffffffff0000000000000000909216176401000000009182900484169091021780825592547fffffffffffffffffffffffffffffffffffffffff00000000ffffffffffffffff909316680100000000000000009384900490921690920217905580610bf48161408c565b915050610ae7565b5080805480610c0d57610c0d6140c5565b6000828152602090207fffffffffffffffffffffffffffffffffffffffffffffffffffffffffffffffff908201810180547fffffffffffffffffffffffffffffffffffffffff000000000000000000000000169055019055604082015163ffffffff1673ffffffffffffffffffffffffffffffffffffffff8516600090815260fc602052604081208054909190610ca59084906140f4565b9091555091949350505050565b610cbc3382612323565b610d48576040517f08c379a000000000000000000000000000000000000000000000000000000000815260206004820152602e60248201527f4552433732313a2063616c6c6572206973206e6f7420746f6b656e206f776e6560448201527f72206e6f7220617070726f76656400000000000000000000000000000000000060648201526084016107e2565b6108aa8383836123e3565b600082815260976020526040902060010154610d6e81612655565b6108aa838361265f565b73ffffffffffffffffffffffffffffffffffffffff81163314610e1d576040517f08c379a000000000000000000000000000000000000000000000000000000000815260206004820152602f60248201527f416363657373436f6e74726f6c3a2063616e206f6e6c792072656e6f756e636560448201527f20726f6c657320666f722073656c66000000000000000000000000000000000060648201526084016107e2565b610e278282612753565b5050565b73ffffffffffffffffffffffffffffffffffffffff8316600090815260fb60209081526040808320805482518185028101850190935280835260609493849084015b82821015610ec6576000848152602090819020604080516060810182529185015463ffffffff80821684526401000000008204811684860152680100000000000000009091041690820152825260019092019101610e6d565b5050505090506000610efc60018587610edf9190614074565b610ee9919061402e565b60018451610ef7919061402e565b61280e565b905080851115610f68576040517f08c379a000000000000000000000000000000000000000000000000000000000815260206004820152600a60248201527f4e4f205245434f5244530000000000000000000000000000000000000000000060448201526064016107e2565b610f72858261402e565b610f7d906001614074565b67ffffffffffffffff811115610f9557610f95613991565b604051908082528060200260200182016040528015610ffe57816020015b60408051606081018252600080825260208083018290529282015282527fffffffffffffffffffffffffffffffffffffffffffffffffffffffffffffffff909201910181610fb35790505b509250845b81811161105f5782818151811061101c5761101c614045565b6020026020010151848783611031919061402e565b8151811061104157611041614045565b602002602001018190525080806110579061408c565b915050611003565b5050509392505050565b6108aa83838360405180602001604052806000815250611a58565b606060fd8263ffffffff168154811061109f5761109f614045565b9060005260206000200180546110b490613fab565b80601f01602080910402602001604051908101604052809291908181526020018280546110e090613fab565b801561112d5780601f106111025761010080835404028352916020019161112d565b820191906000526020600020905b81548152906001019060200180831161111057829003601f168201915b50505050509050919050565b600054610100900460ff16158080156111595750600054600160ff909116105b806111735750303b158015611173575060005460ff166001145b6111ff576040517f08c379a000000000000000000000000000000000000000000000000000000000815260206004820152602e60248201527f496e697469616c697a61626c653a20636f6e747261637420697320616c72656160448201527f647920696e697469616c697a656400000000000000000000000000000000000060648201526084016107e2565b600080547fffffffffffffffffffffffffffffffffffffffffffffffffffffffffffffff00166001179055801561125d57600080547fffffffffffffffffffffffffffffffffffffffffffffffffffffffffffff00ff166101001790555b6112678383612826565b61126f6128c7565b6112776128c7565b611282600033612960565b61128b3361296a565b80156108aa57600080547fffffffffffffffffffffffffffffffffffffffffffffffffffffffffffff00ff169055604051600181527f7f26b83ff96e1f2b6a682f133852f6798a09c465da95921460cefb38474024989060200160405180910390a1505050565b60008181526067602052604081205473ffffffffffffffffffffffffffffffffffffffff1680610651576040517f08c379a000000000000000000000000000000000000000000000000000000000815260206004820152601860248201527f4552433732313a20696e76616c696420746f6b656e204944000000000000000060448201526064016107e2565b60008061138a8361141a565b116113f1576040517f08c379a000000000000000000000000000000000000000000000000000000000815260206004820152600d60248201527f4e4f204d454d424552534849500000000000000000000000000000000000000060448201526064016107e2565b5073ffffffffffffffffffffffffffffffffffffffff16600090815260fe602052604090205490565b600073ffffffffffffffffffffffffffffffffffffffff82166114bf576040517f08c379a000000000000000000000000000000000000000000000000000000000815260206004820152602960248201527f4552433732313a2061646472657373207a65726f206973206e6f74206120766160448201527f6c6964206f776e6572000000000000000000000000000000000000000000000060648201526084016107e2565b5073ffffffffffffffffffffffffffffffffffffffff1660009081526068602052604090205490565b3360009081527fe0601880cdabed0469f97fd15da07fe74fbbb126935f404539f62180845d005f602052604090205460ff16611580576040517f08c379a000000000000000000000000000000000000000000000000000000000815260206004820152600c60248201527f4f4e4c59204d414e41474552000000000000000000000000000000000000000060448201526064016107e2565b60008163ffffffff16116115f0576040517f08c379a000000000000000000000000000000000000000000000000000000000815260206004820152600860248201527f4e4f54205a45524f00000000000000000000000000000000000000000000000060448201526064016107e2565b73ffffffffffffffffffffffffffffffffffffffff8316600090815260fb6020526040902054821061167e576040517f08c379a000000000000000000000000000000000000000000000000000000000815260206004820152601060248201527f494e56414c4944204f524445522049440000000000000000000000000000000060448201526064016107e2565b73ffffffffffffffffffffffffffffffffffffffff8316600090815260fb602052604081208054849081106116b5576116b5614045565b60009182526020808320919091015473ffffffffffffffffffffffffffffffffffffffff8716835260fb909152604090912080546801000000000000000090920463ffffffff16925083918590811061171057611710614045565b600091825260209091200180547fffffffffffffffffffffffffffffffffffffffff00000000ffffffffffffffff166801000000000000000063ffffffff9384160217905582811690821610156117b75761177761176e8284614168565b63ffffffff1690565b73ffffffffffffffffffffffffffffffffffffffff8516600090815260fc6020526040812080549091906117ac90849061418d565b909155506117ff9050565b6117c461176e8383614168565b73ffffffffffffffffffffffffffffffffffffffff8516600090815260fc6020526040812080549091906117f99084906140f4565b90915550505b50505050565b60606066805461066690613fab565b610e273383836129b6565b60608167ffffffffffffffff81111561183a5761183a613991565b60405190808252806020026020018201604052801561186d57816020015b60608152602001906001900390816118585790505b50905060005b8281101561190d576118dd3085858481811061189157611891614045565b90506020028101906118a39190614201565b8080601f016020809104026020016040519081016040528093929190818152602001838380828437600092019190915250612ae492505050565b8282815181106118ef576118ef614045565b602002602001018190525080806119059061408c565b915050611873565b5092915050565b33600090815260fc602052604081205490811380156119395750808563ffffffff1611155b61199f576040517f08c379a000000000000000000000000000000000000000000000000000000000815260206004820152600c60248201527f494e53554646494349454e54000000000000000000000000000000000000000060448201526064016107e2565b33600090815260fc60205260408120805463ffffffff881692906119c49084906140f4565b90915550506040517fc7bc33f000000000000000000000000000000000000000000000000000000000815273ffffffffffffffffffffffffffffffffffffffff85169063c7bc33f090611a1f9088908790879060040161426d565b600060405180830381600087803b158015611a3957600080fd5b505af1158015611a4d573d6000803e3d6000fd5b505050505050505050565b611a623383612323565b611aee576040517f08c379a000000000000000000000000000000000000000000000000000000000815260206004820152602e60248201527f4552433732313a2063616c6c6572206973206e6f7420746f6b656e206f776e6560448201527f72206e6f7220617070726f76656400000000000000000000000000000000000060648201526084016107e2565b6117ff84848484612c23565b3360009081527fe0601880cdabed0469f97fd15da07fe74fbbb126935f404539f62180845d005f602052604090205460ff16611b92576040517f08c379a000000000000000000000000000000000000000000000000000000000815260206004820152600c60248201527f4f4e4c59204d414e41474552000000000000000000000000000000000000000060448201526064016107e2565b60fd5463ffffffff831610611c03576040517f08c379a000000000000000000000000000000000000000000000000000000000815260206004820152600e60248201527f494e56414c49442054414720494400000000000000000000000000000000000060448201526064016107e2565b60008163ffffffff1611611c73576040517f08c379a000000000000000000000000000000000000000000000000000000000815260206004820152600860248201527f4e4f54205a45524f00000000000000000000000000000000000000000000000060448201526064016107e2565b611c7c8361141a565b611c8957611c898361296a565b73ffffffffffffffffffffffffffffffffffffffff8316600090815260fb60209081526040808320815160608101835263ffffffff808816825242811682860190815287821694830194855283546001810185559387529490952090519101805493519251851668010000000000000000027fffffffffffffffffffffffffffffffffffffffff00000000ffffffffffffffff938616640100000000027fffffffffffffffffffffffffffffffffffffffffffffffff000000000000000090951692909516919091179290921716919091179055611d6a8163ffffffff1690565b73ffffffffffffffffffffffffffffffffffffffff8416600090815260fc602052604081208054909190611d9f90849061418d565b9091555050505050565b60606000611db6836112f2565b73ffffffffffffffffffffffffffffffffffffffff8116600090815260fc6020526040812054919250808213611e1b57611df7611df2836142c7565b612cc6565b604051602001611e07919061431c565b604051602081830303815290604052611e24565b611e2482612cc6565b90506000611e8a611e3487612cc6565b73ffffffffffffffffffffffffffffffffffffffff8616600090815260fb6020526040902054611e6390612cc6565b84604051602001611e7693929190614361565b604051602081830303815290604052612df8565b905080604051602001611e9d91906145e9565b604051602081830303815290604052945050505050919050565b600082815260976020526040902060010154611ed281612655565b6108aa8383612753565b3360009081527fe0601880cdabed0469f97fd15da07fe74fbbb126935f404539f62180845d005f602052604090205460ff16611f74576040517f08c379a000000000000000000000000000000000000000000000000000000000815260206004820152600c60248201527f4f4e4c59204d414e41474552000000000000000000000000000000000000000060448201526064016107e2565b60fd5463ffffffff831610611fe5576040517f08c379a000000000000000000000000000000000000000000000000000000000815260206004820152600e60248201527f494e56414c49442054414720494400000000000000000000000000000000000060448201526064016107e2565b8060fd8363ffffffff1681548110611fff57611fff614045565b9060005260206000200190805190602001906108aa9291906137bd565b604080516060810182526000808252602080830182905282840182905273ffffffffffffffffffffffffffffffffffffffff8616825260fb90529190912080548390811061206c5761206c614045565b600091825260209182902060408051606081018252919092015463ffffffff8082168352640100000000820481169483019490945268010000000000000000900490921690820152905092915050565b60007fffffffff0000000000000000000000000000000000000000000000000000000082167f80ac58cd00000000000000000000000000000000000000000000000000000000148061214f57507fffffffff0000000000000000000000000000000000000000000000000000000082167f5b5e139f00000000000000000000000000000000000000000000000000000000145b8061065157507f01ffc9a7000000000000000000000000000000000000000000000000000000007fffffffff00000000000000000000000000000000000000000000000000000000831614610651565b60007fffffffff0000000000000000000000000000000000000000000000000000000082167f7965db0b0000000000000000000000000000000000000000000000000000000014806106515750610651826120bc565b60008181526067602052604090205473ffffffffffffffffffffffffffffffffffffffff16612280576040517f08c379a000000000000000000000000000000000000000000000000000000000815260206004820152601860248201527f4552433732313a20696e76616c696420746f6b656e204944000000000000000060448201526064016107e2565b50565b600081815260696020526040902080547fffffffffffffffffffffffff00000000000000000000000000000000000000001673ffffffffffffffffffffffffffffffffffffffff841690811790915581906122dd826112f2565b73ffffffffffffffffffffffffffffffffffffffff167f8c5be1e5ebec7d5bd14f71427d1e84f3dd0314c0f7b2291e5b200ac8c7c3b92560405160405180910390a45050565b60008061232f836112f2565b90508073ffffffffffffffffffffffffffffffffffffffff168473ffffffffffffffffffffffffffffffffffffffff16148061239d575073ffffffffffffffffffffffffffffffffffffffff8082166000908152606a602090815260408083209388168352929052205460ff165b806123db57508373ffffffffffffffffffffffffffffffffffffffff166123c3846106e9565b73ffffffffffffffffffffffffffffffffffffffff16145b949350505050565b8273ffffffffffffffffffffffffffffffffffffffff16612403826112f2565b73ffffffffffffffffffffffffffffffffffffffff16146124a6576040517f08c379a000000000000000000000000000000000000000000000000000000000815260206004820152602560248201527f4552433732313a207472616e736665722066726f6d20696e636f72726563742060448201527f6f776e657200000000000000000000000000000000000000000000000000000060648201526084016107e2565b73ffffffffffffffffffffffffffffffffffffffff8216612548576040517f08c379a0000000000000000000000000000000000000000000000000000000008152602060048201526024808201527f4552433732313a207472616e7366657220746f20746865207a65726f2061646460448201527f726573730000000000000000000000000000000000000000000000000000000060648201526084016107e2565b612553838383612f4c565b61255e600082612283565b73ffffffffffffffffffffffffffffffffffffffff8316600090815260686020526040812080546001929061259490849061402e565b909155505073ffffffffffffffffffffffffffffffffffffffff821660009081526068602052604081208054600192906125cf908490614074565b909155505060008181526067602052604080822080547fffffffffffffffffffffffff00000000000000000000000000000000000000001673ffffffffffffffffffffffffffffffffffffffff86811691821790925591518493918716917fddf252ad1be2c89b69c2b068fc378daa952ba7f163c4a11628f55a4df523b3ef91a4505050565b6122808133612fca565b600082815260976020908152604080832073ffffffffffffffffffffffffffffffffffffffff8516845290915290205460ff16610e2757600082815260976020908152604080832073ffffffffffffffffffffffffffffffffffffffff85168452909152902080547fffffffffffffffffffffffffffffffffffffffffffffffffffffffffffffff001660011790556126f53390565b73ffffffffffffffffffffffffffffffffffffffff168173ffffffffffffffffffffffffffffffffffffffff16837f2f8788117e7eff1d82e926ec794901d17c78024a50270940304540a733656f0d60405160405180910390a45050565b600082815260976020908152604080832073ffffffffffffffffffffffffffffffffffffffff8516845290915290205460ff1615610e2757600082815260976020908152604080832073ffffffffffffffffffffffffffffffffffffffff8516808552925280832080547fffffffffffffffffffffffffffffffffffffffffffffffffffffffffffffff0016905551339285917ff6391f5c32d9c69d2a47ea670b442974b53935d1edc7fd64eb21e047a839171b9190a45050565b600081831061281d578161281f565b825b9392505050565b600054610100900460ff166128bd576040517f08c379a000000000000000000000000000000000000000000000000000000000815260206004820152602b60248201527f496e697469616c697a61626c653a20636f6e7472616374206973206e6f74206960448201527f6e697469616c697a696e6700000000000000000000000000000000000000000060648201526084016107e2565b610e27828261309c565b600054610100900460ff1661295e576040517f08c379a000000000000000000000000000000000000000000000000000000000815260206004820152602b60248201527f496e697469616c697a61626c653a20636f6e7472616374206973206e6f74206960448201527f6e697469616c697a696e6700000000000000000000000000000000000000000060648201526084016107e2565b565b610e27828261265f565b6129768160ff5461315a565b60ff805473ffffffffffffffffffffffffffffffffffffffff8316600090815260fe602052604081208290559091906129ae8361408c565b919050555050565b8173ffffffffffffffffffffffffffffffffffffffff168373ffffffffffffffffffffffffffffffffffffffff161415612a4c576040517f08c379a000000000000000000000000000000000000000000000000000000000815260206004820152601960248201527f4552433732313a20617070726f766520746f2063616c6c65720000000000000060448201526064016107e2565b73ffffffffffffffffffffffffffffffffffffffff8381166000818152606a602090815260408083209487168084529482529182902080547fffffffffffffffffffffffffffffffffffffffffffffffffffffffffffffff001686151590811790915591519182527f17307eab39ab6107e8899845ad3d59bd9653f200f220920489ca2b5937696c31910160405180910390a3505050565b606073ffffffffffffffffffffffffffffffffffffffff83163b612b8a576040517f08c379a000000000000000000000000000000000000000000000000000000000815260206004820152602660248201527f416464726573733a2064656c65676174652063616c6c20746f206e6f6e2d636f60448201527f6e7472616374000000000000000000000000000000000000000000000000000060648201526084016107e2565b6000808473ffffffffffffffffffffffffffffffffffffffff1684604051612bb2919061462e565b600060405180830381855af49150503d8060008114612bed576040519150601f19603f3d011682016040523d82523d6000602084013e612bf2565b606091505b5091509150612c1a828260405180606001604052806027815260200161483160279139613328565b95945050505050565b612c2e8484846123e3565b612c3a8484848461337b565b6117ff576040517f08c379a000000000000000000000000000000000000000000000000000000000815260206004820152603260248201527f4552433732313a207472616e7366657220746f206e6f6e20455243373231526560448201527f63656976657220696d706c656d656e746572000000000000000000000000000060648201526084016107e2565b606081612d0657505060408051808201909152600181527f3000000000000000000000000000000000000000000000000000000000000000602082015290565b8160005b8115612d305780612d1a8161408c565b9150612d299050600a83614679565b9150612d0a565b60008167ffffffffffffffff811115612d4b57612d4b613991565b6040519080825280601f01601f191660200182016040528015612d75576020820181803683370190505b5090505b84156123db57612d8a60018361402e565b9150612d97600a8661468d565b612da2906030614074565b60f81b818381518110612db757612db7614045565b60200101907effffffffffffffffffffffffffffffffffffffffffffffffffffffffffffff1916908160001a905350612df1600a86614679565b9450612d79565b6060815160001415612e1857505060408051602081019091526000815290565b60006040518060600160405280604081526020016147f16040913990506000600384516002612e479190614074565b612e519190614679565b612e5c9060046146a1565b67ffffffffffffffff811115612e7457612e74613991565b6040519080825280601f01601f191660200182016040528015612e9e576020820181803683370190505b509050600182016020820185865187015b80821015612f0a576003820191508151603f8160121c168501518453600184019350603f81600c1c168501518453600184019350603f8160061c168501518453600184019350603f8116850151845350600183019250612eaf565b5050600386510660018114612f265760028114612f3957612f41565b603d6001830353603d6002830353612f41565b603d60018303535b509195945050505050565b73ffffffffffffffffffffffffffffffffffffffff8316156108aa576040517f08c379a000000000000000000000000000000000000000000000000000000000815260206004820152601060248201527f4e4f542d5452414e5346455241424c450000000000000000000000000000000060448201526064016107e2565b600082815260976020908152604080832073ffffffffffffffffffffffffffffffffffffffff8516845290915290205460ff16610e27576130228173ffffffffffffffffffffffffffffffffffffffff16601461357a565b61302d83602061357a565b60405160200161303e9291906146de565b604080517fffffffffffffffffffffffffffffffffffffffffffffffffffffffffffffffe0818403018152908290527f08c379a00000000000000000000000000000000000000000000000000000000082526107e291600401613917565b600054610100900460ff16613133576040517f08c379a000000000000000000000000000000000000000000000000000000000815260206004820152602b60248201527f496e697469616c697a61626c653a20636f6e7472616374206973206e6f74206960448201527f6e697469616c697a696e6700000000000000000000000000000000000000000060648201526084016107e2565b81516131469060659060208501906137bd565b5080516108aa9060669060208401906137bd565b73ffffffffffffffffffffffffffffffffffffffff82166131d7576040517f08c379a000000000000000000000000000000000000000000000000000000000815260206004820181905260248201527f4552433732313a206d696e7420746f20746865207a65726f206164647265737360448201526064016107e2565b60008181526067602052604090205473ffffffffffffffffffffffffffffffffffffffff1615613263576040517f08c379a000000000000000000000000000000000000000000000000000000000815260206004820152601c60248201527f4552433732313a20746f6b656e20616c7265616479206d696e7465640000000060448201526064016107e2565b61326f60008383612f4c565b73ffffffffffffffffffffffffffffffffffffffff821660009081526068602052604081208054600192906132a5908490614074565b909155505060008181526067602052604080822080547fffffffffffffffffffffffff00000000000000000000000000000000000000001673ffffffffffffffffffffffffffffffffffffffff861690811790915590518392907fddf252ad1be2c89b69c2b068fc378daa952ba7f163c4a11628f55a4df523b3ef908290a45050565b6060831561333757508161281f565b8251156133475782518084602001fd5b816040517f08c379a00000000000000000000000000000000000000000000000000000000081526004016107e29190613917565b600073ffffffffffffffffffffffffffffffffffffffff84163b1561356f576040517f150b7a0200000000000000000000000000000000000000000000000000000000815273ffffffffffffffffffffffffffffffffffffffff85169063150b7a02906133f290339089908890889060040161475f565b602060405180830381600087803b15801561340c57600080fd5b505af192505050801561345a575060408051601f3d9081017fffffffffffffffffffffffffffffffffffffffffffffffffffffffffffffffe01682019092526134579181019061479e565b60015b613524573d808015613488576040519150601f19603f3d011682016040523d82523d6000602084013e61348d565b606091505b50805161351c576040517f08c379a000000000000000000000000000000000000000000000000000000000815260206004820152603260248201527f4552433732313a207472616e7366657220746f206e6f6e20455243373231526560448201527f63656976657220696d706c656d656e746572000000000000000000000000000060648201526084016107e2565b805181602001fd5b7fffffffff00000000000000000000000000000000000000000000000000000000167f150b7a02000000000000000000000000000000000000000000000000000000001490506123db565b506001949350505050565b606060006135898360026146a1565b613594906002614074565b67ffffffffffffffff8111156135ac576135ac613991565b6040519080825280601f01601f1916602001820160405280156135d6576020820181803683370190505b5090507f30000000000000000000000000000000000000000000000000000000000000008160008151811061360d5761360d614045565b60200101907effffffffffffffffffffffffffffffffffffffffffffffffffffffffffffff1916908160001a9053507f78000000000000000000000000000000000000000000000000000000000000008160018151811061367057613670614045565b60200101907effffffffffffffffffffffffffffffffffffffffffffffffffffffffffffff1916908160001a90535060006136ac8460026146a1565b6136b7906001614074565b90505b6001811115613754577f303132333435363738396162636465660000000000000000000000000000000085600f16601081106136f8576136f8614045565b1a60f81b82828151811061370e5761370e614045565b60200101907effffffffffffffffffffffffffffffffffffffffffffffffffffffffffffff1916908160001a90535060049490941c9361374d816147bb565b90506136ba565b50831561281f576040517f08c379a000000000000000000000000000000000000000000000000000000000815260206004820181905260248201527f537472696e67733a20686578206c656e67746820696e73756666696369656e7460448201526064016107e2565b8280546137c990613fab565b90600052602060002090601f0160209004810192826137eb5760008555613831565b82601f1061380457805160ff1916838001178555613831565b82800160010185558215613831579182015b82811115613831578251825591602001919060010190613816565b5061383d929150613841565b5090565b5b8082111561383d5760008155600101613842565b7fffffffff000000000000000000000000000000000000000000000000000000008116811461228057600080fd5b60006020828403121561389657600080fd5b813561281f81613856565b60005b838110156138bc5781810151838201526020016138a4565b838111156117ff5750506000910152565b600081518084526138e58160208601602086016138a1565b601f017fffffffffffffffffffffffffffffffffffffffffffffffffffffffffffffffe0169290920160200192915050565b60208152600061281f60208301846138cd565b60006020828403121561393c57600080fd5b5035919050565b803573ffffffffffffffffffffffffffffffffffffffff811681146109ac57600080fd5b6000806040838503121561397a57600080fd5b61398383613943565b946020939093013593505050565b7f4e487b7100000000000000000000000000000000000000000000000000000000600052604160045260246000fd5b600067ffffffffffffffff808411156139db576139db613991565b604051601f85017fffffffffffffffffffffffffffffffffffffffffffffffffffffffffffffffe0908116603f01168101908282118183101715613a2157613a21613991565b81604052809350858152868686011115613a3a57600080fd5b858560208301376000602087830101525050509392505050565b600082601f830112613a6557600080fd5b61281f838335602085016139c0565b600060208284031215613a8657600080fd5b813567ffffffffffffffff811115613a9d57600080fd5b6123db84828501613a54565b606081016106518284805163ffffffff908116835260208083015182169084015260409182015116910152565b600080600060608486031215613aeb57600080fd5b613af484613943565b9250613b0260208501613943565b9150604084013590509250925092565b60008060408385031215613b2557600080fd5b82359150613b3560208401613943565b90509250929050565b600080600060608486031215613b5357600080fd5b613b5c84613943565b95602085013595506040909401359392505050565b6020808252825182820181905260009190848201906040850190845b81811015613bd257613bbf838551805163ffffffff908116835260208083015182169084015260409182015116910152565b9284019260609290920191600101613b8d565b50909695505050505050565b600060208284031215613bf057600080fd5b61281f82613943565b803563ffffffff811681146109ac57600080fd5b600060208284031215613c1f57600080fd5b61281f82613bf9565b60008060408385031215613c3b57600080fd5b823567ffffffffffffffff80821115613c5357600080fd5b613c5f86838701613a54565b93506020850135915080821115613c7557600080fd5b50613c8285828601613a54565b9150509250929050565b600080600060608486031215613ca157600080fd5b613caa84613943565b925060208401359150613cbf60408501613bf9565b90509250925092565b60008060408385031215613cdb57600080fd5b613ce483613943565b915060208301358015158114613cf957600080fd5b809150509250929050565b60008060208385031215613d1757600080fd5b823567ffffffffffffffff80821115613d2f57600080fd5b818501915085601f830112613d4357600080fd5b813581811115613d5257600080fd5b8660208260051b8501011115613d6757600080fd5b60209290920196919550909350505050565b6000602080830181845280855180835260408601915060408160051b870101925083870160005b82811015613dec577fffffffffffffffffffffffffffffffffffffffffffffffffffffffffffffffc0888603018452613dda8583516138cd565b94509285019290850190600101613da0565b5092979650505050505050565b60008060008060608587031215613e0f57600080fd5b613e1885613bf9565b9350613e2660208601613943565b9250604085013567ffffffffffffffff80821115613e4357600080fd5b818701915087601f830112613e5757600080fd5b813581811115613e6657600080fd5b886020828501011115613e7857600080fd5b95989497505060200194505050565b60008060008060808587031215613e9d57600080fd5b613ea685613943565b9350613eb460208601613943565b925060408501359150606085013567ffffffffffffffff811115613ed757600080fd5b8501601f81018713613ee857600080fd5b613ef7878235602084016139c0565b91505092959194509250565b600080600060608486031215613f1857600080fd5b613f2184613943565b9250613f2f60208501613bf9565b9150613cbf60408501613bf9565b60008060408385031215613f5057600080fd5b613f5983613bf9565b9150602083013567ffffffffffffffff811115613f7557600080fd5b613c8285828601613a54565b60008060408385031215613f9457600080fd5b613f9d83613943565b9150613b3560208401613943565b600181811c90821680613fbf57607f821691505b60208210811415613ff9577f4e487b7100000000000000000000000000000000000000000000000000000000600052602260045260246000fd5b50919050565b7f4e487b7100000000000000000000000000000000000000000000000000000000600052601160045260246000fd5b60008282101561404057614040613fff565b500390565b7f4e487b7100000000000000000000000000000000000000000000000000000000600052603260045260246000fd5b6000821982111561408757614087613fff565b500190565b60007fffffffffffffffffffffffffffffffffffffffffffffffffffffffffffffffff8214156140be576140be613fff565b5060010190565b7f4e487b7100000000000000000000000000000000000000000000000000000000600052603160045260246000fd5b6000808312837f80000000000000000000000000000000000000000000000000000000000000000183128115161561412e5761412e613fff565b837f7fffffffffffffffffffffffffffffffffffffffffffffffffffffffffffffff01831381161561416257614162613fff565b50500390565b600063ffffffff8381169083168181101561418557614185613fff565b039392505050565b6000808212827f7fffffffffffffffffffffffffffffffffffffffffffffffffffffffffffffff038413811516156141c7576141c7613fff565b827f80000000000000000000000000000000000000000000000000000000000000000384128116156141fb576141fb613fff565b50500190565b60008083357fffffffffffffffffffffffffffffffffffffffffffffffffffffffffffffffe184360301811261423657600080fd5b83018035915067ffffffffffffffff82111561425157600080fd5b60200191503681900382131561426657600080fd5b9250929050565b63ffffffff8416815260406020820152816040820152818360608301376000818301606090810191909152601f9092017fffffffffffffffffffffffffffffffffffffffffffffffffffffffffffffffe016010192915050565b60007f80000000000000000000000000000000000000000000000000000000000000008214156142f9576142f9613fff565b5060000390565b600081516143128185602086016138a1565b9290920192915050565b7f2d000000000000000000000000000000000000000000000000000000000000008152600082516143548160018501602087016138a1565b9190910160010192915050565b7f7b0000000000000000000000000000000000000000000000000000000000000081527f226e616d65223a2022434f4e5452494255544f522023000000000000000000006001820152600084516143bf8160178501602089016138a1565b7f222c2000000000000000000000000000000000000000000000000000000000006017918401918201527f226465736372697074696f6e223a202250414e47454120436f6e747269627574601a8201527f696f6e20506f696e742c2074686973204e465420726570726573656e74732063603a8201527f6f6e747269627574696f6e20706f696e7420666f722050414e47454120636f6e605a8201527f7472696275746f7273222c000000000000000000000000000000000000000000607a8201527f2261747472696275746573223a205b000000000000000000000000000000000060858201527f7b2274726169745f74797065223a226e756d4f66436f6e747269627574696f6e60948201527f73222c2276616c7565223a00000000000000000000000000000000000000000060b48201526145df6145b661458d61458761453861450f60bf87018b614300565b7f7d2c000000000000000000000000000000000000000000000000000000000000815260020190565b7f7b2274726169745f74797065223a22746f74616c506f696e7473222c2276616c81527f7565223a00000000000000000000000000000000000000000000000000000000602082015260240190565b87614300565b7f7d5d000000000000000000000000000000000000000000000000000000000000815260020190565b7f7d00000000000000000000000000000000000000000000000000000000000000815260010190565b9695505050505050565b7f646174613a6170706c69636174696f6e2f6a736f6e3b6261736536342c00000081526000825161462181601d8501602087016138a1565b91909101601d0192915050565b600082516146408184602087016138a1565b9190910192915050565b7f4e487b7100000000000000000000000000000000000000000000000000000000600052601260045260246000fd5b6000826146885761468861464a565b500490565b60008261469c5761469c61464a565b500690565b6000817fffffffffffffffffffffffffffffffffffffffffffffffffffffffffffffffff04831182151516156146d9576146d9613fff565b500290565b7f416363657373436f6e74726f6c3a206163636f756e74200000000000000000008152600083516147168160178501602088016138a1565b7f206973206d697373696e6720726f6c652000000000000000000000000000000060179184019182015283516147538160288401602088016138a1565b01602801949350505050565b600073ffffffffffffffffffffffffffffffffffffffff8087168352808616602084015250836040830152608060608301526145df60808301846138cd565b6000602082840312156147b057600080fd5b815161281f81613856565b6000816147ca576147ca613fff565b507fffffffffffffffffffffffffffffffffffffffffffffffffffffffffffffffff019056fe4142434445464748494a4b4c4d4e4f505152535455565758595a6162636465666768696a6b6c6d6e6f707172737475767778797a303132333435363738392b2f416464726573733a206c6f772d6c6576656c2064656c65676174652063616c6c206661696c6564a2646970667358221220b343d2859c133ffd3d85e6ebade50793ba44feb2f667247dff9118e9c3677d1164736f6c63430008090033",
  "devdoc": {
    "kind": "dev",
    "methods": {
      "approve(address,uint256)": {
        "details": "See {IERC721-approve}."
      },
      "balanceOf(address)": {
        "details": "See {IERC721-balanceOf}."
      },
      "getApproved(uint256)": {
        "details": "See {IERC721-getApproved}."
      },
      "getRoleAdmin(bytes32)": {
        "details": "Returns the admin role that controls `role`. See {grantRole} and {revokeRole}. To change a role's admin, use {_setRoleAdmin}."
      },
      "grantRole(bytes32,address)": {
        "details": "Grants `role` to `account`. If `account` had not been already granted `role`, emits a {RoleGranted} event. Requirements: - the caller must have ``role``'s admin role. May emit a {RoleGranted} event."
      },
      "hasRole(bytes32,address)": {
        "details": "Returns `true` if `account` has been granted `role`."
      },
      "isApprovedForAll(address,address)": {
        "details": "See {IERC721-isApprovedForAll}."
      },
      "multicall(bytes[])": {
        "details": "Receives and executes a batch of function calls on this contract."
      },
      "name()": {
        "details": "See {IERC721Metadata-name}."
      },
      "ownerOf(uint256)": {
        "details": "See {IERC721-ownerOf}."
      },
      "renounceRole(bytes32,address)": {
        "details": "Revokes `role` from the calling account. Roles are often managed via {grantRole} and {revokeRole}: this function's purpose is to provide a mechanism for accounts to lose their privileges if they are compromised (such as when a trusted device is misplaced). If the calling account had been revoked `role`, emits a {RoleRevoked} event. Requirements: - the caller must be `account`. May emit a {RoleRevoked} event."
      },
      "revokeRole(bytes32,address)": {
        "details": "Revokes `role` from `account`. If `account` had been granted `role`, emits a {RoleRevoked} event. Requirements: - the caller must have ``role``'s admin role. May emit a {RoleRevoked} event."
      },
      "safeTransferFrom(address,address,uint256)": {
        "details": "See {IERC721-safeTransferFrom}."
      },
      "safeTransferFrom(address,address,uint256,bytes)": {
        "details": "See {IERC721-safeTransferFrom}."
      },
      "setApprovalForAll(address,bool)": {
        "details": "See {IERC721-setApprovalForAll}."
      },
      "symbol()": {
        "details": "See {IERC721Metadata-symbol}."
      },
      "transferFrom(address,address,uint256)": {
        "details": "See {IERC721-transferFrom}."
      }
    },
    "version": 1
  },
  "userdoc": {
    "kind": "user",
    "methods": {
      "createRecord(address,uint32,uint32)": {
        "notice": "create contribution record"
      },
      "deleteRecord(address,uint256)": {
        "notice": "delete contribution record"
      },
      "tagDescription(uint32)": {
        "notice": "return contribution tag description"
      },
      "updateRecord(address,uint256,uint32)": {
        "notice": "modify contribution record"
      }
    },
    "notice": "Contribution Point membership NFT",
    "version": 1
  },
  "storageLayout": {
    "storage": [
      {
        "astId": 419,
        "contract": "contracts/ContributionPoint.sol:ContributionPoint",
        "label": "_initialized",
        "offset": 0,
        "slot": "0",
        "type": "t_uint8"
      },
      {
        "astId": 422,
        "contract": "contracts/ContributionPoint.sol:ContributionPoint",
        "label": "_initializing",
        "offset": 1,
        "slot": "0",
        "type": "t_bool"
      },
      {
        "astId": 1900,
        "contract": "contracts/ContributionPoint.sol:ContributionPoint",
        "label": "__gap",
        "offset": 0,
        "slot": "1",
        "type": "t_array(t_uint256)50_storage"
      },
      {
        "astId": 2279,
        "contract": "contracts/ContributionPoint.sol:ContributionPoint",
        "label": "__gap",
        "offset": 0,
        "slot": "51",
        "type": "t_array(t_uint256)50_storage"
      },
      {
        "astId": 592,
        "contract": "contracts/ContributionPoint.sol:ContributionPoint",
        "label": "_name",
        "offset": 0,
        "slot": "101",
        "type": "t_string_storage"
      },
      {
        "astId": 594,
        "contract": "contracts/ContributionPoint.sol:ContributionPoint",
        "label": "_symbol",
        "offset": 0,
        "slot": "102",
        "type": "t_string_storage"
      },
      {
        "astId": 598,
        "contract": "contracts/ContributionPoint.sol:ContributionPoint",
        "label": "_owners",
        "offset": 0,
        "slot": "103",
        "type": "t_mapping(t_uint256,t_address)"
      },
      {
        "astId": 602,
        "contract": "contracts/ContributionPoint.sol:ContributionPoint",
        "label": "_balances",
        "offset": 0,
        "slot": "104",
        "type": "t_mapping(t_address,t_uint256)"
      },
      {
        "astId": 606,
        "contract": "contracts/ContributionPoint.sol:ContributionPoint",
        "label": "_tokenApprovals",
        "offset": 0,
        "slot": "105",
        "type": "t_mapping(t_uint256,t_address)"
      },
      {
        "astId": 612,
        "contract": "contracts/ContributionPoint.sol:ContributionPoint",
        "label": "_operatorApprovals",
        "offset": 0,
        "slot": "106",
        "type": "t_mapping(t_address,t_mapping(t_address,t_bool))"
      },
      {
        "astId": 1454,
        "contract": "contracts/ContributionPoint.sol:ContributionPoint",
        "label": "__gap",
        "offset": 0,
        "slot": "107",
        "type": "t_array(t_uint256)44_storage"
      },
      {
        "astId": 39,
        "contract": "contracts/ContributionPoint.sol:ContributionPoint",
        "label": "_roles",
        "offset": 0,
        "slot": "151",
        "type": "t_mapping(t_bytes32,t_struct(RoleData)34_storage)"
      },
      {
        "astId": 338,
        "contract": "contracts/ContributionPoint.sol:ContributionPoint",
        "label": "__gap",
        "offset": 0,
        "slot": "152",
        "type": "t_array(t_uint256)49_storage"
      },
      {
        "astId": 2009,
        "contract": "contracts/ContributionPoint.sol:ContributionPoint",
        "label": "__gap",
        "offset": 0,
        "slot": "201",
        "type": "t_array(t_uint256)50_storage"
      },
      {
        "astId": 3105,
        "contract": "contracts/ContributionPoint.sol:ContributionPoint",
        "label": "_contributionRecords",
        "offset": 0,
        "slot": "251",
        "type": "t_mapping(t_address,t_array(t_struct(ContributionRecord)3961_storage)dyn_storage)"
      },
      {
        "astId": 3109,
        "contract": "contracts/ContributionPoint.sol:ContributionPoint",
        "label": "_pointOf",
        "offset": 0,
        "slot": "252",
        "type": "t_mapping(t_address,t_int256)"
      },
      {
        "astId": 3112,
        "contract": "contracts/ContributionPoint.sol:ContributionPoint",
        "label": "_tagDescriptions",
        "offset": 0,
        "slot": "253",
        "type": "t_array(t_string_storage)dyn_storage"
      },
      {
        "astId": 3116,
        "contract": "contracts/ContributionPoint.sol:ContributionPoint",
        "label": "_contributorIdOf",
        "offset": 0,
        "slot": "254",
        "type": "t_mapping(t_address,t_uint256)"
      },
      {
        "astId": 3118,
        "contract": "contracts/ContributionPoint.sol:ContributionPoint",
        "label": "_contributorCounter",
        "offset": 0,
        "slot": "255",
        "type": "t_uint256"
      }
    ],
    "types": {
      "t_address": {
        "encoding": "inplace",
        "label": "address",
        "numberOfBytes": "20"
      },
      "t_array(t_string_storage)dyn_storage": {
        "base": "t_string_storage",
        "encoding": "dynamic_array",
        "label": "string[]",
        "numberOfBytes": "32"
      },
      "t_array(t_struct(ContributionRecord)3961_storage)dyn_storage": {
        "base": "t_struct(ContributionRecord)3961_storage",
        "encoding": "dynamic_array",
        "label": "struct IContributionStruct.ContributionRecord[]",
        "numberOfBytes": "32"
      },
      "t_array(t_uint256)44_storage": {
        "base": "t_uint256",
        "encoding": "inplace",
        "label": "uint256[44]",
        "numberOfBytes": "1408"
      },
      "t_array(t_uint256)49_storage": {
        "base": "t_uint256",
        "encoding": "inplace",
        "label": "uint256[49]",
        "numberOfBytes": "1568"
      },
      "t_array(t_uint256)50_storage": {
        "base": "t_uint256",
        "encoding": "inplace",
        "label": "uint256[50]",
        "numberOfBytes": "1600"
      },
      "t_bool": {
        "encoding": "inplace",
        "label": "bool",
        "numberOfBytes": "1"
      },
      "t_bytes32": {
        "encoding": "inplace",
        "label": "bytes32",
        "numberOfBytes": "32"
      },
      "t_int256": {
        "encoding": "inplace",
        "label": "int256",
        "numberOfBytes": "32"
      },
      "t_mapping(t_address,t_array(t_struct(ContributionRecord)3961_storage)dyn_storage)": {
        "encoding": "mapping",
        "key": "t_address",
        "label": "mapping(address => struct IContributionStruct.ContributionRecord[])",
        "numberOfBytes": "32",
        "value": "t_array(t_struct(ContributionRecord)3961_storage)dyn_storage"
      },
      "t_mapping(t_address,t_bool)": {
        "encoding": "mapping",
        "key": "t_address",
        "label": "mapping(address => bool)",
        "numberOfBytes": "32",
        "value": "t_bool"
      },
      "t_mapping(t_address,t_int256)": {
        "encoding": "mapping",
        "key": "t_address",
        "label": "mapping(address => int256)",
        "numberOfBytes": "32",
        "value": "t_int256"
      },
      "t_mapping(t_address,t_mapping(t_address,t_bool))": {
        "encoding": "mapping",
        "key": "t_address",
        "label": "mapping(address => mapping(address => bool))",
        "numberOfBytes": "32",
        "value": "t_mapping(t_address,t_bool)"
      },
      "t_mapping(t_address,t_uint256)": {
        "encoding": "mapping",
        "key": "t_address",
        "label": "mapping(address => uint256)",
        "numberOfBytes": "32",
        "value": "t_uint256"
      },
      "t_mapping(t_bytes32,t_struct(RoleData)34_storage)": {
        "encoding": "mapping",
        "key": "t_bytes32",
        "label": "mapping(bytes32 => struct AccessControlUpgradeable.RoleData)",
        "numberOfBytes": "32",
        "value": "t_struct(RoleData)34_storage"
      },
      "t_mapping(t_uint256,t_address)": {
        "encoding": "mapping",
        "key": "t_uint256",
        "label": "mapping(uint256 => address)",
        "numberOfBytes": "32",
        "value": "t_address"
      },
      "t_string_storage": {
        "encoding": "bytes",
        "label": "string",
        "numberOfBytes": "32"
      },
      "t_struct(ContributionRecord)3961_storage": {
        "encoding": "inplace",
        "label": "struct IContributionStruct.ContributionRecord",
        "members": [
          {
            "astId": 3956,
            "contract": "contracts/ContributionPoint.sol:ContributionPoint",
            "label": "tagId",
            "offset": 0,
            "slot": "0",
            "type": "t_uint32"
          },
          {
            "astId": 3958,
            "contract": "contracts/ContributionPoint.sol:ContributionPoint",
            "label": "time",
            "offset": 4,
            "slot": "0",
            "type": "t_uint32"
          },
          {
            "astId": 3960,
            "contract": "contracts/ContributionPoint.sol:ContributionPoint",
            "label": "point",
            "offset": 8,
            "slot": "0",
            "type": "t_uint32"
          }
        ],
        "numberOfBytes": "32"
      },
      "t_struct(RoleData)34_storage": {
        "encoding": "inplace",
        "label": "struct AccessControlUpgradeable.RoleData",
        "members": [
          {
            "astId": 31,
            "contract": "contracts/ContributionPoint.sol:ContributionPoint",
            "label": "members",
            "offset": 0,
            "slot": "0",
            "type": "t_mapping(t_address,t_bool)"
          },
          {
            "astId": 33,
            "contract": "contracts/ContributionPoint.sol:ContributionPoint",
            "label": "adminRole",
            "offset": 0,
            "slot": "1",
            "type": "t_bytes32"
          }
        ],
        "numberOfBytes": "64"
      },
      "t_uint256": {
        "encoding": "inplace",
        "label": "uint256",
        "numberOfBytes": "32"
      },
      "t_uint32": {
        "encoding": "inplace",
        "label": "uint32",
        "numberOfBytes": "4"
      },
      "t_uint8": {
        "encoding": "inplace",
        "label": "uint8",
        "numberOfBytes": "1"
      }
    }
  }
}