{
  "address": "0xd49f731B1283e977b4A692d1e5dc4a851a21A673",
  "abi": [
    {
      "anonymous": false,
      "inputs": [
        {
          "indexed": true,
          "internalType": "address",
          "name": "owner",
          "type": "address"
        },
        {
          "indexed": true,
          "internalType": "address",
          "name": "approved",
          "type": "address"
        },
        {
          "indexed": true,
          "internalType": "uint256",
          "name": "tokenId",
          "type": "uint256"
        }
      ],
      "name": "Approval",
      "type": "event"
    },
    {
      "anonymous": false,
      "inputs": [
        {
          "indexed": true,
          "internalType": "address",
          "name": "owner",
          "type": "address"
        },
        {
          "indexed": true,
          "internalType": "address",
          "name": "operator",
          "type": "address"
        },
        {
          "indexed": false,
          "internalType": "bool",
          "name": "approved",
          "type": "bool"
        }
      ],
      "name": "ApprovalForAll",
      "type": "event"
    },
    {
      "anonymous": false,
      "inputs": [
        {
          "indexed": false,
          "internalType": "uint8",
          "name": "version",
          "type": "uint8"
        }
      ],
      "name": "Initialized",
      "type": "event"
    },
    {
      "anonymous": false,
      "inputs": [
        {
          "indexed": true,
          "internalType": "address",
          "name": "previousOwner",
          "type": "address"
        },
        {
          "indexed": true,
          "internalType": "address",
          "name": "newOwner",
          "type": "address"
        }
      ],
      "name": "OwnershipTransferred",
      "type": "event"
    },
    {
      "anonymous": false,
      "inputs": [
        {
          "indexed": true,
          "internalType": "bytes32",
          "name": "role",
          "type": "bytes32"
        },
        {
          "indexed": true,
          "internalType": "bytes32",
          "name": "previousAdminRole",
          "type": "bytes32"
        },
        {
          "indexed": true,
          "internalType": "bytes32",
          "name": "newAdminRole",
          "type": "bytes32"
        }
      ],
      "name": "RoleAdminChanged",
      "type": "event"
    },
    {
      "anonymous": false,
      "inputs": [
        {
          "indexed": true,
          "internalType": "bytes32",
          "name": "role",
          "type": "bytes32"
        },
        {
          "indexed": true,
          "internalType": "address",
          "name": "account",
          "type": "address"
        },
        {
          "indexed": true,
          "internalType": "address",
          "name": "sender",
          "type": "address"
        }
      ],
      "name": "RoleGranted",
      "type": "event"
    },
    {
      "anonymous": false,
      "inputs": [
        {
          "indexed": true,
          "internalType": "bytes32",
          "name": "role",
          "type": "bytes32"
        },
        {
          "indexed": true,
          "internalType": "address",
          "name": "account",
          "type": "address"
        },
        {
          "indexed": true,
          "internalType": "address",
          "name": "sender",
          "type": "address"
        }
      ],
      "name": "RoleRevoked",
      "type": "event"
    },
    {
      "anonymous": false,
      "inputs": [
        {
          "indexed": true,
          "internalType": "address",
          "name": "from",
          "type": "address"
        },
        {
          "indexed": true,
          "internalType": "address",
          "name": "to",
          "type": "address"
        },
        {
          "indexed": true,
          "internalType": "uint256",
          "name": "tokenId",
          "type": "uint256"
        }
      ],
      "name": "Transfer",
      "type": "event"
    },
    {
      "inputs": [],
      "name": "DEFAULT_ADMIN_ROLE",
      "outputs": [
        {
          "internalType": "bytes32",
          "name": "",
          "type": "bytes32"
        }
      ],
      "stateMutability": "view",
      "type": "function"
    },
    {
      "inputs": [],
      "name": "MANAGER_ROLE",
      "outputs": [
        {
          "internalType": "bytes32",
          "name": "",
          "type": "bytes32"
        }
      ],
      "stateMutability": "view",
      "type": "function"
    },
    {
      "inputs": [
        {
          "internalType": "address",
          "name": "to",
          "type": "address"
        },
        {
          "internalType": "uint256",
          "name": "tokenId",
          "type": "uint256"
        }
      ],
      "name": "approve",
      "outputs": [],
      "stateMutability": "nonpayable",
      "type": "function"
    },
    {
      "inputs": [
        {
          "internalType": "address",
          "name": "owner",
          "type": "address"
        }
      ],
      "name": "balanceOf",
      "outputs": [
        {
          "internalType": "uint256",
          "name": "",
          "type": "uint256"
        }
      ],
      "stateMutability": "view",
      "type": "function"
    },
    {
      "inputs": [
        {
          "internalType": "address",
          "name": "contributor",
          "type": "address"
        }
      ],
      "name": "contributionPointOf",
      "outputs": [
        {
          "internalType": "int256",
          "name": "",
          "type": "int256"
        }
      ],
      "stateMutability": "view",
      "type": "function"
    },
    {
      "inputs": [
        {
          "internalType": "address",
          "name": "contributor",
          "type": "address"
        },
        {
          "internalType": "uint256",
          "name": "orderId",
          "type": "uint256"
        }
      ],
      "name": "contributionRecordByIndex",
      "outputs": [
        {
          "components": [
            {
              "internalType": "uint32",
              "name": "tagId",
              "type": "uint32"
            },
            {
              "internalType": "uint32",
              "name": "time",
              "type": "uint32"
            },
            {
              "internalType": "uint32",
              "name": "point",
              "type": "uint32"
            }
          ],
          "internalType": "struct IContributionStruct.ContributionRecord",
          "name": "",
          "type": "tuple"
        }
      ],
      "stateMutability": "view",
      "type": "function"
    },
    {
      "inputs": [
        {
          "internalType": "address",
          "name": "contributor",
          "type": "address"
        }
      ],
      "name": "contributionRecordCounts",
      "outputs": [
        {
          "internalType": "uint256",
          "name": "",
          "type": "uint256"
        }
      ],
      "stateMutability": "view",
      "type": "function"
    },
    {
      "inputs": [
        {
          "internalType": "address",
          "name": "contributor",
          "type": "address"
        },
        {
          "internalType": "uint256",
          "name": "start",
          "type": "uint256"
        },
        {
          "internalType": "uint256",
          "name": "nums",
          "type": "uint256"
        }
      ],
      "name": "contributionRecords",
      "outputs": [
        {
          "components": [
            {
              "internalType": "uint32",
              "name": "tagId",
              "type": "uint32"
            },
            {
              "internalType": "uint32",
              "name": "time",
              "type": "uint32"
            },
            {
              "internalType": "uint32",
              "name": "point",
              "type": "uint32"
            }
          ],
          "internalType": "struct IContributionStruct.ContributionRecord[]",
          "name": "records",
          "type": "tuple[]"
        }
      ],
      "stateMutability": "view",
      "type": "function"
    },
    {
      "inputs": [
        {
          "internalType": "address",
          "name": "contributor",
          "type": "address"
        }
      ],
      "name": "contributorIdOf",
      "outputs": [
        {
          "internalType": "uint256",
          "name": "",
          "type": "uint256"
        }
      ],
      "stateMutability": "view",
      "type": "function"
    },
    {
      "inputs": [
        {
          "internalType": "address",
          "name": "contributor",
          "type": "address"
        },
        {
          "internalType": "uint32",
          "name": "tagId",
          "type": "uint32"
        },
        {
          "internalType": "uint32",
          "name": "point",
          "type": "uint32"
        }
      ],
      "name": "createRecord",
      "outputs": [],
      "stateMutability": "nonpayable",
      "type": "function"
    },
    {
      "inputs": [
        {
          "internalType": "string",
          "name": "desc",
          "type": "string"
        }
      ],
      "name": "createTag",
      "outputs": [
        {
          "internalType": "uint32",
          "name": "tagId",
          "type": "uint32"
        }
      ],
      "stateMutability": "nonpayable",
      "type": "function"
    },
    {
      "inputs": [
        {
          "internalType": "address",
          "name": "contributor",
          "type": "address"
        },
        {
          "internalType": "uint256",
          "name": "orderId",
          "type": "uint256"
        }
      ],
      "name": "deleteRecord",
      "outputs": [
        {
          "components": [
            {
              "internalType": "uint32",
              "name": "tagId",
              "type": "uint32"
            },
            {
              "internalType": "uint32",
              "name": "time",
              "type": "uint32"
            },
            {
              "internalType": "uint32",
              "name": "point",
              "type": "uint32"
            }
          ],
          "internalType": "struct IContributionStruct.ContributionRecord",
          "name": "record",
          "type": "tuple"
        }
      ],
      "stateMutability": "nonpayable",
      "type": "function"
    },
    {
      "inputs": [
        {
          "internalType": "uint256",
          "name": "tokenId",
          "type": "uint256"
        }
      ],
      "name": "getApproved",
      "outputs": [
        {
          "internalType": "address",
          "name": "",
          "type": "address"
        }
      ],
      "stateMutability": "view",
      "type": "function"
    },
    {
      "inputs": [
        {
          "internalType": "bytes32",
          "name": "role",
          "type": "bytes32"
        }
      ],
      "name": "getRoleAdmin",
      "outputs": [
        {
          "internalType": "bytes32",
          "name": "",
          "type": "bytes32"
        }
      ],
      "stateMutability": "view",
      "type": "function"
    },
    {
      "inputs": [
        {
          "internalType": "bytes32",
          "name": "role",
          "type": "bytes32"
        },
        {
          "internalType": "address",
          "name": "account",
          "type": "address"
        }
      ],
      "name": "grantRole",
      "outputs": [],
      "stateMutability": "nonpayable",
      "type": "function"
    },
    {
      "inputs": [
        {
          "internalType": "bytes32",
          "name": "role",
          "type": "bytes32"
        },
        {
          "internalType": "address",
          "name": "account",
          "type": "address"
        }
      ],
      "name": "hasRole",
      "outputs": [
        {
          "internalType": "bool",
          "name": "",
          "type": "bool"
        }
      ],
      "stateMutability": "view",
      "type": "function"
    },
    {
      "inputs": [
        {
          "internalType": "string",
          "name": "name_",
          "type": "string"
        },
        {
          "internalType": "string",
          "name": "symbol_",
          "type": "string"
        }
      ],
      "name": "initialize",
      "outputs": [],
      "stateMutability": "nonpayable",
      "type": "function"
    },
    {
      "inputs": [
        {
          "internalType": "address",
          "name": "owner",
          "type": "address"
        },
        {
          "internalType": "address",
          "name": "operator",
          "type": "address"
        }
      ],
      "name": "isApprovedForAll",
      "outputs": [
        {
          "internalType": "bool",
          "name": "",
          "type": "bool"
        }
      ],
      "stateMutability": "view",
      "type": "function"
    },
    {
      "inputs": [
        {
          "internalType": "bytes[]",
          "name": "data",
          "type": "bytes[]"
        }
      ],
      "name": "multicall",
      "outputs": [
        {
          "internalType": "bytes[]",
          "name": "results",
          "type": "bytes[]"
        }
      ],
      "stateMutability": "nonpayable",
      "type": "function"
    },
    {
      "inputs": [],
      "name": "name",
      "outputs": [
        {
          "internalType": "string",
          "name": "",
          "type": "string"
        }
      ],
      "stateMutability": "view",
      "type": "function"
    },
    {
      "inputs": [],
      "name": "owner",
      "outputs": [
        {
          "internalType": "address",
          "name": "",
          "type": "address"
        }
      ],
      "stateMutability": "view",
      "type": "function"
    },
    {
      "inputs": [
        {
          "internalType": "uint256",
          "name": "tokenId",
          "type": "uint256"
        }
      ],
      "name": "ownerOf",
      "outputs": [
        {
          "internalType": "address",
          "name": "",
          "type": "address"
        }
      ],
      "stateMutability": "view",
      "type": "function"
    },
    {
      "inputs": [],
      "name": "renounceOwnership",
      "outputs": [],
      "stateMutability": "nonpayable",
      "type": "function"
    },
    {
      "inputs": [
        {
          "internalType": "bytes32",
          "name": "role",
          "type": "bytes32"
        },
        {
          "internalType": "address",
          "name": "account",
          "type": "address"
        }
      ],
      "name": "renounceRole",
      "outputs": [],
      "stateMutability": "nonpayable",
      "type": "function"
    },
    {
      "inputs": [
        {
          "internalType": "bytes32",
          "name": "role",
          "type": "bytes32"
        },
        {
          "internalType": "address",
          "name": "account",
          "type": "address"
        }
      ],
      "name": "revokeRole",
      "outputs": [],
      "stateMutability": "nonpayable",
      "type": "function"
    },
    {
      "inputs": [
        {
          "internalType": "address",
          "name": "from",
          "type": "address"
        },
        {
          "internalType": "address",
          "name": "to",
          "type": "address"
        },
        {
          "internalType": "uint256",
          "name": "tokenId",
          "type": "uint256"
        }
      ],
      "name": "safeTransferFrom",
      "outputs": [],
      "stateMutability": "nonpayable",
      "type": "function"
    },
    {
      "inputs": [
        {
          "internalType": "address",
          "name": "from",
          "type": "address"
        },
        {
          "internalType": "address",
          "name": "to",
          "type": "address"
        },
        {
          "internalType": "uint256",
          "name": "tokenId",
          "type": "uint256"
        },
        {
          "internalType": "bytes",
          "name": "data",
          "type": "bytes"
        }
      ],
      "name": "safeTransferFrom",
      "outputs": [],
      "stateMutability": "nonpayable",
      "type": "function"
    },
    {
      "inputs": [
        {
          "internalType": "address",
          "name": "operator",
          "type": "address"
        },
        {
          "internalType": "bool",
          "name": "approved",
          "type": "bool"
        }
      ],
      "name": "setApprovalForAll",
      "outputs": [],
      "stateMutability": "nonpayable",
      "type": "function"
    },
    {
      "inputs": [
        {
          "internalType": "bytes4",
          "name": "interfaceId",
          "type": "bytes4"
        }
      ],
      "name": "supportsInterface",
      "outputs": [
        {
          "internalType": "bool",
          "name": "",
          "type": "bool"
        }
      ],
      "stateMutability": "view",
      "type": "function"
    },
    {
      "inputs": [],
      "name": "symbol",
      "outputs": [
        {
          "internalType": "string",
          "name": "",
          "type": "string"
        }
      ],
      "stateMutability": "view",
      "type": "function"
    },
    {
      "inputs": [
        {
          "internalType": "uint32",
          "name": "tagId",
          "type": "uint32"
        }
      ],
      "name": "tagDescription",
      "outputs": [
        {
          "internalType": "string",
          "name": "",
          "type": "string"
        }
      ],
      "stateMutability": "view",
      "type": "function"
    },
    {
      "inputs": [
        {
          "internalType": "uint256",
          "name": "contributorId",
          "type": "uint256"
        }
      ],
      "name": "tokenURI",
      "outputs": [
        {
          "internalType": "string",
          "name": "",
          "type": "string"
        }
      ],
      "stateMutability": "view",
      "type": "function"
    },
    {
      "inputs": [],
      "name": "totalSupply",
      "outputs": [
        {
          "internalType": "uint256",
          "name": "",
          "type": "uint256"
        }
      ],
      "stateMutability": "view",
      "type": "function"
    },
    {
      "inputs": [],
      "name": "totalTags",
      "outputs": [
        {
          "internalType": "uint256",
          "name": "",
          "type": "uint256"
        }
      ],
      "stateMutability": "view",
      "type": "function"
    },
    {
      "inputs": [
        {
          "internalType": "address",
          "name": "from",
          "type": "address"
        },
        {
          "internalType": "address",
          "name": "to",
          "type": "address"
        },
        {
          "internalType": "uint256",
          "name": "tokenId",
          "type": "uint256"
        }
      ],
      "name": "transferFrom",
      "outputs": [],
      "stateMutability": "nonpayable",
      "type": "function"
    },
    {
      "inputs": [
        {
          "internalType": "address",
          "name": "newOwner",
          "type": "address"
        }
      ],
      "name": "transferOwnership",
      "outputs": [],
      "stateMutability": "nonpayable",
      "type": "function"
    },
    {
      "inputs": [
        {
          "internalType": "address",
          "name": "contributor",
          "type": "address"
        },
        {
          "internalType": "uint256",
          "name": "orderId",
          "type": "uint256"
        },
        {
          "internalType": "uint32",
          "name": "point",
          "type": "uint32"
        }
      ],
      "name": "updateRecord",
      "outputs": [],
      "stateMutability": "nonpayable",
      "type": "function"
    },
    {
      "inputs": [
        {
          "internalType": "uint32",
          "name": "tagId",
          "type": "uint32"
        },
        {
          "internalType": "string",
          "name": "desc",
          "type": "string"
        }
      ],
      "name": "updateTagDescription",
      "outputs": [],
      "stateMutability": "nonpayable",
      "type": "function"
    },
    {
      "inputs": [
        {
          "internalType": "uint32",
          "name": "amount",
          "type": "uint32"
        },
        {
          "internalType": "address",
          "name": "to",
          "type": "address"
        },
        {
          "internalType": "bytes",
          "name": "data",
          "type": "bytes"
        }
      ],
      "name": "usePoint",
      "outputs": [],
      "stateMutability": "nonpayable",
      "type": "function"
    }
  ],
  "transactionHash": "0xd63876d91f0dd568788fd4daca86c5f82e7d84a5e357cdca53fd273fb4e7c404",
  "args": [],
  "numDeployments": 5,
  "solcInputHash": "f66c64487076a856d9d5384e6313147d",
  "bytecode": "0x608060405234801561001057600080fd5b5061566480620000216000396000f3fe608060405234801561001057600080fd5b50600436106102ac5760003560e01c806370a082311161017b578063b88d4fde116100d8578063dc9adfa81161008c578063ec87621c11610071578063ec87621c14610678578063f02ab9871461069f578063f2fde38b146106b257600080fd5b8063dc9adfa81461061c578063e985e9c51461062f57600080fd5b8063c87b56dd116100bd578063c87b56dd146105bf578063c9ddc264146105d2578063d547741f1461060957600080fd5b8063b88d4fde14610599578063c185bd10146105ac57600080fd5b806395d89b411161012f578063a22cb46511610114578063a22cb46514610553578063ac9650d814610566578063b85891ea1461058657600080fd5b806395d89b4114610543578063a217fddf1461054b57600080fd5b80637a6d4003116101605780637a6d4003146104cc5780638da5cb5b146104df57806391d14854146104fd57600080fd5b806370a08231146104b1578063715018a6146104c457600080fd5b8063248a9ca31161022957806342842e0e116101dd5780634cd88b76116101c25780634cd88b76146104785780636352211e1461048b57806367cf96aa1461049e57600080fd5b806342842e0e146104525780634585cdc11461046557600080fd5b806336568abe1161020e57806336568abe146103e85780633be09cb7146103fb5780633f6782d21461041b57600080fd5b8063248a9ca3146103b25780632f2ff15d146103d557600080fd5b8063095ea7b3116102805780631f36d212116102655780631f36d21214610357578063210661b71461037f57806323b872dd1461039f57600080fd5b8063095ea7b31461033957806318160ddd1461034e57600080fd5b8062e9236f146102b157806301ffc9a7146102c957806306fdde03146102ec578063081812fc14610301575b600080fd5b61012f545b6040519081526020015b60405180910390f35b6102dc6102d73660046142de565b6106c5565b60405190151581526020016102c0565b6102f46106e5565b6040516102c09190614371565b61031461030f366004614384565b610777565b60405173ffffffffffffffffffffffffffffffffffffffff90911681526020016102c0565b61034c6103473660046143bf565b6107ab565b005b610131546102b6565b61036a61036536600461450d565b61093d565b60405163ffffffff90911681526020016102c0565b61039261038d3660046143bf565b610a3d565b6040516102c09190614542565b61034c6103ad36600461456f565b610d40565b6102b66103c0366004614384565b60009081526097602052604090206001015490565b61034c6103e33660046145b0565b610de1565b61034c6103f63660046145b0565b610e06565b61040e6104093660046145e0565b610eb9565b6040516102c09190614615565b6102b6610429366004614682565b73ffffffffffffffffffffffffffffffffffffffff16600090815261012d602052604090205490565b61034c61046036600461456f565b6110f8565b6102f46104733660046146b1565b611113565b61034c6104863660046146ce565b6111c9565b610314610499366004614384565b61138a565b6102b66104ac366004614682565b611416565b6102b66104bf366004614682565b6114b3565b61034c611581565b61034c6104da366004614732565b611595565b60fb5473ffffffffffffffffffffffffffffffffffffffff16610314565b6102dc61050b3660046145b0565b600091825260976020908152604080842073ffffffffffffffffffffffffffffffffffffffff93909316845291905290205460ff1690565b6102f46118b7565b6102b6600081565b61034c610561366004614774565b6118c6565b6105796105743660046147a7565b6118d1565b6040516102c0919061481c565b61034c61059436600461489c565b6119c6565b61034c6105a736600461492e565b611b0c565b61034c6105ba3660046149ae565b611bae565b6102f46105cd366004614384565b611e60565b6102b66105e0366004614682565b73ffffffffffffffffffffffffffffffffffffffff16600090815261012e602052604090205490565b61034c6106173660046145b0565b611e6b565b61034c61062a3660046149ee565b611e90565b6102dc61063d366004614a34565b73ffffffffffffffffffffffffffffffffffffffff9182166000908152606a6020908152604080832093909416825291909152205460ff1690565b6102b67faf290d8680820aad922855f39b306097b20e28774d6c1ad35a20325630c3a02c81565b6103926106ad3660046143bf565b611fd2565b61034c6106c0366004614682565b612073565b60006106d08261212a565b806106df57506106df8261220d565b92915050565b6060606580546106f490614a62565b80601f016020809104026020016040519081016040528092919081815260200182805461072090614a62565b801561076d5780601f106107425761010080835404028352916020019161076d565b820191906000526020600020905b81548152906001019060200180831161075057829003601f168201915b5050505050905090565b600061078282612263565b5060009081526069602052604090205473ffffffffffffffffffffffffffffffffffffffff1690565b60006107b68261138a565b90508073ffffffffffffffffffffffffffffffffffffffff168373ffffffffffffffffffffffffffffffffffffffff161415610879576040517f08c379a000000000000000000000000000000000000000000000000000000000815260206004820152602160248201527f4552433732313a20617070726f76616c20746f2063757272656e74206f776e6560448201527f720000000000000000000000000000000000000000000000000000000000000060648201526084015b60405180910390fd5b3373ffffffffffffffffffffffffffffffffffffffff821614806108a257506108a2813361063d565b61092e576040517f08c379a000000000000000000000000000000000000000000000000000000000815260206004820152603e60248201527f4552433732313a20617070726f76652063616c6c6572206973206e6f7420746f60448201527f6b656e206f776e6572206e6f7220617070726f76656420666f7220616c6c00006064820152608401610870565b61093883836122ee565b505050565b3360009081527fe0601880cdabed0469f97fd15da07fe74fbbb126935f404539f62180845d005f602052604081205460ff166109d5576040517f08c379a000000000000000000000000000000000000000000000000000000000815260206004820152600c60248201527f4f4e4c59204d414e4147455200000000000000000000000000000000000000006044820152606401610870565b61012f5463ffffffff116109e857600080fd5b61012f80546001810182556000919091528251610a2c917f232da9e50dad2971456a78fb5cd6ff6b75019984d6e918139ce990999420f97901906020850190614217565b5061012f546106df90600190614adf565b60408051606081018252600080825260208083018290528284018290523382527fe0601880cdabed0469f97fd15da07fe74fbbb126935f404539f62180845d005f9052919091205460ff16610aee576040517f08c379a000000000000000000000000000000000000000000000000000000000815260206004820152600c60248201527f4f4e4c59204d414e4147455200000000000000000000000000000000000000006044820152606401610870565b73ffffffffffffffffffffffffffffffffffffffff8316600090815261012d602052604090208054819084908110610b2857610b28614af6565b600091825260209182902060408051606081018252919092015463ffffffff80821683526401000000008204811694830194909452680100000000000000009004909216908201529150825b8154610b8290600190614adf565b811015610c895781610b95826001614b25565b81548110610ba557610ba5614af6565b90600052602060002001828281548110610bc157610bc1614af6565b6000918252602090912082549101805463ffffffff9283167fffffffffffffffffffffffffffffffffffffffffffffffffffffffff0000000082168117835584547fffffffffffffffffffffffffffffffffffffffffffffffff0000000000000000909216176401000000009182900484169091021780825592547fffffffffffffffffffffffffffffffffffffffff00000000ffffffffffffffff909316680100000000000000009384900490921690920217905580610c8181614b3d565b915050610b74565b5080805480610c9a57610c9a614b76565b6000828152602090207fffffffffffffffffffffffffffffffffffffffffffffffffffffffffffffffff908201810180547fffffffffffffffffffffffffffffffffffffffff000000000000000000000000169055019055604082015163ffffffff1673ffffffffffffffffffffffffffffffffffffffff8516600090815261012e602052604081208054909190610d33908490614ba5565b9091555091949350505050565b610d4a338261238e565b610dd6576040517f08c379a000000000000000000000000000000000000000000000000000000000815260206004820152602e60248201527f4552433732313a2063616c6c6572206973206e6f7420746f6b656e206f776e6560448201527f72206e6f7220617070726f7665640000000000000000000000000000000000006064820152608401610870565b61093883838361244e565b600082815260976020526040902060010154610dfc816126c0565b61093883836126ca565b73ffffffffffffffffffffffffffffffffffffffff81163314610eab576040517f08c379a000000000000000000000000000000000000000000000000000000000815260206004820152602f60248201527f416363657373436f6e74726f6c3a2063616e206f6e6c792072656e6f756e636560448201527f20726f6c657320666f722073656c6600000000000000000000000000000000006064820152608401610870565b610eb582826127be565b5050565b73ffffffffffffffffffffffffffffffffffffffff8316600090815261012d60209081526040808320805482518185028101850190935280835260609493849084015b82821015610f55576000848152602090819020604080516060810182529185015463ffffffff80821684526401000000008204811684860152680100000000000000009091041690820152825260019092019101610efc565b5050505090506000610f8b60018587610f6e9190614b25565b610f789190614adf565b60018451610f869190614adf565b612879565b905080851115610ff7576040517f08c379a000000000000000000000000000000000000000000000000000000000815260206004820152600a60248201527f4e4f205245434f524453000000000000000000000000000000000000000000006044820152606401610870565b6110018582614adf565b61100c906001614b25565b67ffffffffffffffff811115611024576110246143eb565b60405190808252806020026020018201604052801561108d57816020015b60408051606081018252600080825260208083018290529282015282527fffffffffffffffffffffffffffffffffffffffffffffffffffffffffffffffff9092019101816110425790505b509250845b8181116110ee578281815181106110ab576110ab614af6565b60200260200101518487836110c09190614adf565b815181106110d0576110d0614af6565b602002602001018190525080806110e690614b3d565b915050611092565b5050509392505050565b61093883838360405180602001604052806000815250611b0c565b606061012f8263ffffffff168154811061112f5761112f614af6565b90600052602060002001805461114490614a62565b80601f016020809104026020016040519081016040528092919081815260200182805461117090614a62565b80156111bd5780601f10611192576101008083540402835291602001916111bd565b820191906000526020600020905b8154815290600101906020018083116111a057829003601f168201915b50505050509050919050565b600054610100900460ff16158080156111e95750600054600160ff909116105b806112035750303b158015611203575060005460ff166001145b61128f576040517f08c379a000000000000000000000000000000000000000000000000000000000815260206004820152602e60248201527f496e697469616c697a61626c653a20636f6e747261637420697320616c72656160448201527f647920696e697469616c697a65640000000000000000000000000000000000006064820152608401610870565b600080547fffffffffffffffffffffffffffffffffffffffffffffffffffffffffffffff0016600117905580156112ed57600080547fffffffffffffffffffffffffffffffffffffffffffffffffffffffffffff00ff166101001790555b6112f78383612891565b6112ff612932565b611307612932565b6113126000336129c9565b61131b336129d3565b611323612a22565b801561093857600080547fffffffffffffffffffffffffffffffffffffffffffffffffffffffffffff00ff169055604051600181527f7f26b83ff96e1f2b6a682f133852f6798a09c465da95921460cefb38474024989060200160405180910390a1505050565b60008181526067602052604081205473ffffffffffffffffffffffffffffffffffffffff16806106df576040517f08c379a000000000000000000000000000000000000000000000000000000000815260206004820152601860248201527f4552433732313a20696e76616c696420746f6b656e20494400000000000000006044820152606401610870565b600080611422836114b3565b11611489576040517f08c379a000000000000000000000000000000000000000000000000000000000815260206004820152600d60248201527f4e4f204d454d42455253484950000000000000000000000000000000000000006044820152606401610870565b5073ffffffffffffffffffffffffffffffffffffffff166000908152610130602052604090205490565b600073ffffffffffffffffffffffffffffffffffffffff8216611558576040517f08c379a000000000000000000000000000000000000000000000000000000000815260206004820152602960248201527f4552433732313a2061646472657373207a65726f206973206e6f74206120766160448201527f6c6964206f776e657200000000000000000000000000000000000000000000006064820152608401610870565b5073ffffffffffffffffffffffffffffffffffffffff1660009081526068602052604090205490565b611589612ac1565b6115936000612b42565b565b3360009081527fe0601880cdabed0469f97fd15da07fe74fbbb126935f404539f62180845d005f602052604090205460ff1661162d576040517f08c379a000000000000000000000000000000000000000000000000000000000815260206004820152600c60248201527f4f4e4c59204d414e4147455200000000000000000000000000000000000000006044820152606401610870565b60008163ffffffff161161169d576040517f08c379a000000000000000000000000000000000000000000000000000000000815260206004820152600860248201527f4e4f54205a45524f0000000000000000000000000000000000000000000000006044820152606401610870565b73ffffffffffffffffffffffffffffffffffffffff8316600090815261012d6020526040902054821061172c576040517f08c379a000000000000000000000000000000000000000000000000000000000815260206004820152601060248201527f494e56414c4944204f52444552204944000000000000000000000000000000006044820152606401610870565b73ffffffffffffffffffffffffffffffffffffffff8316600090815261012d6020526040812080548490811061176457611764614af6565b60009182526020808320919091015473ffffffffffffffffffffffffffffffffffffffff8716835261012d909152604090912080546801000000000000000090920463ffffffff1692508391859081106117c0576117c0614af6565b600091825260209091200180547fffffffffffffffffffffffffffffffffffffffff00000000ffffffffffffffff166801000000000000000063ffffffff9384160217905582811690821610156118685761182761181e8284614c19565b63ffffffff1690565b73ffffffffffffffffffffffffffffffffffffffff8516600090815261012e60205260408120805490919061185d908490614c3e565b909155506118b19050565b61187561181e8383614c19565b73ffffffffffffffffffffffffffffffffffffffff8516600090815261012e6020526040812080549091906118ab908490614ba5565b90915550505b50505050565b6060606680546106f490614a62565b610eb5338383612bb9565b60608167ffffffffffffffff8111156118ec576118ec6143eb565b60405190808252806020026020018201604052801561191f57816020015b606081526020019060019003908161190a5790505b50905060005b828110156119bf5761198f3085858481811061194357611943614af6565b90506020028101906119559190614cb2565b8080601f016020809104026020016040519081016040528093929190818152602001838380828437600092019190915250612ce792505050565b8282815181106119a1576119a1614af6565b602002602001018190525080806119b790614b3d565b915050611925565b5092915050565b33600090815261012e602052604081205490811380156119ec5750808563ffffffff1611155b611a52576040517f08c379a000000000000000000000000000000000000000000000000000000000815260206004820152600c60248201527f494e53554646494349454e5400000000000000000000000000000000000000006044820152606401610870565b33600090815261012e60205260408120805463ffffffff88169290611a78908490614ba5565b90915550506040517fc7bc33f000000000000000000000000000000000000000000000000000000000815273ffffffffffffffffffffffffffffffffffffffff85169063c7bc33f090611ad390889087908790600401614d1e565b600060405180830381600087803b158015611aed57600080fd5b505af1158015611b01573d6000803e3d6000fd5b505050505050505050565b611b16338361238e565b611ba2576040517f08c379a000000000000000000000000000000000000000000000000000000000815260206004820152602e60248201527f4552433732313a2063616c6c6572206973206e6f7420746f6b656e206f776e6560448201527f72206e6f7220617070726f7665640000000000000000000000000000000000006064820152608401610870565b6118b184848484612e26565b3360009081527fe0601880cdabed0469f97fd15da07fe74fbbb126935f404539f62180845d005f602052604090205460ff16611c46576040517f08c379a000000000000000000000000000000000000000000000000000000000815260206004820152600c60248201527f4f4e4c59204d414e4147455200000000000000000000000000000000000000006044820152606401610870565b61012f5463ffffffff831610611cb8576040517f08c379a000000000000000000000000000000000000000000000000000000000815260206004820152600e60248201527f494e56414c4944205441472049440000000000000000000000000000000000006044820152606401610870565b60008163ffffffff1611611d28576040517f08c379a000000000000000000000000000000000000000000000000000000000815260206004820152600860248201527f4e4f54205a45524f0000000000000000000000000000000000000000000000006044820152606401610870565b611d31836114b3565b611d3e57611d3e836129d3565b73ffffffffffffffffffffffffffffffffffffffff8316600090815261012d60209081526040808320815160608101835263ffffffff808816825242811682860190815287821694830194855283546001810185559387529490952090519101805493519251851668010000000000000000027fffffffffffffffffffffffffffffffffffffffff00000000ffffffffffffffff938616640100000000027fffffffffffffffffffffffffffffffffffffffffffffffff000000000000000090951692909516919091179290921716919091179055611e208163ffffffff1690565b73ffffffffffffffffffffffffffffffffffffffff8416600090815261012e602052604081208054909190611e56908490614c3e565b9091555050505050565b60606106df82612ec9565b600082815260976020526040902060010154611e86816126c0565b61093883836127be565b3360009081527fe0601880cdabed0469f97fd15da07fe74fbbb126935f404539f62180845d005f602052604090205460ff16611f28576040517f08c379a000000000000000000000000000000000000000000000000000000000815260206004820152600c60248201527f4f4e4c59204d414e4147455200000000000000000000000000000000000000006044820152606401610870565b61012f5463ffffffff831610611f9a576040517f08c379a000000000000000000000000000000000000000000000000000000000815260206004820152600e60248201527f494e56414c4944205441472049440000000000000000000000000000000000006044820152606401610870565b8061012f8363ffffffff1681548110611fb557611fb5614af6565b906000526020600020019080519060200190610938929190614217565b604080516060810182526000808252602080830182905282840182905273ffffffffffffffffffffffffffffffffffffffff8616825261012d90529190912080548390811061202357612023614af6565b600091825260209182902060408051606081018252919092015463ffffffff8082168352640100000000820481169483019490945268010000000000000000900490921690820152905092915050565b61207b612ac1565b73ffffffffffffffffffffffffffffffffffffffff811661211e576040517f08c379a000000000000000000000000000000000000000000000000000000000815260206004820152602660248201527f4f776e61626c653a206e6577206f776e657220697320746865207a65726f206160448201527f64647265737300000000000000000000000000000000000000000000000000006064820152608401610870565b61212781612b42565b50565b60007fffffffff0000000000000000000000000000000000000000000000000000000082167f80ac58cd0000000000000000000000000000000000000000000000000000000014806121bd57507fffffffff0000000000000000000000000000000000000000000000000000000082167f5b5e139f00000000000000000000000000000000000000000000000000000000145b806106df57507f01ffc9a7000000000000000000000000000000000000000000000000000000007fffffffff000000000000000000000000000000000000000000000000000000008316146106df565b60007fffffffff0000000000000000000000000000000000000000000000000000000082167f7965db0b0000000000000000000000000000000000000000000000000000000014806106df57506106df8261212a565b60008181526067602052604090205473ffffffffffffffffffffffffffffffffffffffff16612127576040517f08c379a000000000000000000000000000000000000000000000000000000000815260206004820152601860248201527f4552433732313a20696e76616c696420746f6b656e20494400000000000000006044820152606401610870565b600081815260696020526040902080547fffffffffffffffffffffffff00000000000000000000000000000000000000001673ffffffffffffffffffffffffffffffffffffffff841690811790915581906123488261138a565b73ffffffffffffffffffffffffffffffffffffffff167f8c5be1e5ebec7d5bd14f71427d1e84f3dd0314c0f7b2291e5b200ac8c7c3b92560405160405180910390a45050565b60008061239a8361138a565b90508073ffffffffffffffffffffffffffffffffffffffff168473ffffffffffffffffffffffffffffffffffffffff161480612408575073ffffffffffffffffffffffffffffffffffffffff8082166000908152606a602090815260408083209388168352929052205460ff165b8061244657508373ffffffffffffffffffffffffffffffffffffffff1661242e84610777565b73ffffffffffffffffffffffffffffffffffffffff16145b949350505050565b8273ffffffffffffffffffffffffffffffffffffffff1661246e8261138a565b73ffffffffffffffffffffffffffffffffffffffff1614612511576040517f08c379a000000000000000000000000000000000000000000000000000000000815260206004820152602560248201527f4552433732313a207472616e736665722066726f6d20696e636f72726563742060448201527f6f776e65720000000000000000000000000000000000000000000000000000006064820152608401610870565b73ffffffffffffffffffffffffffffffffffffffff82166125b3576040517f08c379a0000000000000000000000000000000000000000000000000000000008152602060048201526024808201527f4552433732313a207472616e7366657220746f20746865207a65726f2061646460448201527f72657373000000000000000000000000000000000000000000000000000000006064820152608401610870565b6125be838383613163565b6125c96000826122ee565b73ffffffffffffffffffffffffffffffffffffffff831660009081526068602052604081208054600192906125ff908490614adf565b909155505073ffffffffffffffffffffffffffffffffffffffff8216600090815260686020526040812080546001929061263a908490614b25565b909155505060008181526067602052604080822080547fffffffffffffffffffffffff00000000000000000000000000000000000000001673ffffffffffffffffffffffffffffffffffffffff86811691821790925591518493918716917fddf252ad1be2c89b69c2b068fc378daa952ba7f163c4a11628f55a4df523b3ef91a4505050565b61212781336131e1565b600082815260976020908152604080832073ffffffffffffffffffffffffffffffffffffffff8516845290915290205460ff16610eb557600082815260976020908152604080832073ffffffffffffffffffffffffffffffffffffffff85168452909152902080547fffffffffffffffffffffffffffffffffffffffffffffffffffffffffffffff001660011790556127603390565b73ffffffffffffffffffffffffffffffffffffffff168173ffffffffffffffffffffffffffffffffffffffff16837f2f8788117e7eff1d82e926ec794901d17c78024a50270940304540a733656f0d60405160405180910390a45050565b600082815260976020908152604080832073ffffffffffffffffffffffffffffffffffffffff8516845290915290205460ff1615610eb557600082815260976020908152604080832073ffffffffffffffffffffffffffffffffffffffff8516808552925280832080547fffffffffffffffffffffffffffffffffffffffffffffffffffffffffffffff0016905551339285917ff6391f5c32d9c69d2a47ea670b442974b53935d1edc7fd64eb21e047a839171b9190a45050565b6000818310612888578161288a565b825b9392505050565b600054610100900460ff16612928576040517f08c379a000000000000000000000000000000000000000000000000000000000815260206004820152602b60248201527f496e697469616c697a61626c653a20636f6e7472616374206973206e6f74206960448201527f6e697469616c697a696e670000000000000000000000000000000000000000006064820152608401610870565b610eb582826132b3565b600054610100900460ff16611593576040517f08c379a000000000000000000000000000000000000000000000000000000000815260206004820152602b60248201527f496e697469616c697a61626c653a20636f6e7472616374206973206e6f74206960448201527f6e697469616c697a696e670000000000000000000000000000000000000000006064820152608401610870565b610eb582826126ca565b6129e08161013154613371565b610131805473ffffffffffffffffffffffffffffffffffffffff8316600090815261013060205260408120829055909190612a1a83614b3d565b919050555050565b600054610100900460ff16612ab9576040517f08c379a000000000000000000000000000000000000000000000000000000000815260206004820152602b60248201527f496e697469616c697a61626c653a20636f6e7472616374206973206e6f74206960448201527f6e697469616c697a696e670000000000000000000000000000000000000000006064820152608401610870565b61159361353f565b60fb5473ffffffffffffffffffffffffffffffffffffffff163314611593576040517f08c379a000000000000000000000000000000000000000000000000000000000815260206004820181905260248201527f4f776e61626c653a2063616c6c6572206973206e6f7420746865206f776e65726044820152606401610870565b60fb805473ffffffffffffffffffffffffffffffffffffffff8381167fffffffffffffffffffffffff0000000000000000000000000000000000000000831681179093556040519116919082907f8be0079c531659141344cd1fd0a4f28419497f9722a3daafe3b4186f6b6457e090600090a35050565b8173ffffffffffffffffffffffffffffffffffffffff168373ffffffffffffffffffffffffffffffffffffffff161415612c4f576040517f08c379a000000000000000000000000000000000000000000000000000000000815260206004820152601960248201527f4552433732313a20617070726f766520746f2063616c6c6572000000000000006044820152606401610870565b73ffffffffffffffffffffffffffffffffffffffff8381166000818152606a602090815260408083209487168084529482529182902080547fffffffffffffffffffffffffffffffffffffffffffffffffffffffffffffff001686151590811790915591519182527f17307eab39ab6107e8899845ad3d59bd9653f200f220920489ca2b5937696c31910160405180910390a3505050565b606073ffffffffffffffffffffffffffffffffffffffff83163b612d8d576040517f08c379a000000000000000000000000000000000000000000000000000000000815260206004820152602660248201527f416464726573733a2064656c65676174652063616c6c20746f206e6f6e2d636f60448201527f6e747261637400000000000000000000000000000000000000000000000000006064820152608401610870565b6000808473ffffffffffffffffffffffffffffffffffffffff1684604051612db59190614d94565b600060405180830381855af49150503d8060008114612df0576040519150601f19603f3d011682016040523d82523d6000602084013e612df5565b606091505b5091509150612e1d8282604051806060016040528060278152602001615608602791396135df565b95945050505050565b612e3184848461244e565b612e3d84848484613632565b6118b1576040517f08c379a000000000000000000000000000000000000000000000000000000000815260206004820152603260248201527f4552433732313a207472616e7366657220746f206e6f6e20455243373231526560448201527f63656976657220696d706c656d656e74657200000000000000000000000000006064820152608401610870565b6040517f6352211e000000000000000000000000000000000000000000000000000000008152600481018290526060906000903090636352211e9060240160206040518083038186803b158015612f1f57600080fd5b505afa158015612f33573d6000803e3d6000fd5b505050506040513d601f19601f82011682018060405250810190612f579190614db0565b6040517fc9ddc26400000000000000000000000000000000000000000000000000000000815273ffffffffffffffffffffffffffffffffffffffff8216600482015290915060009073455b6F8486040fDCCc2aE9c9921a7cA0Dc8D04849063c5bb75a19086908590309063c9ddc2649060240160206040518083038186803b158015612fe257600080fd5b505afa158015612ff6573d6000803e3d6000fd5b505050506040513d601f19601f8201168201806040525081019061301a9190614dcd565b6040517fffffffff0000000000000000000000000000000000000000000000000000000060e086901b168152600481019390935273ffffffffffffffffffffffffffffffffffffffff9091166024830152604482015260640160006040518083038186803b15801561308b57600080fd5b505af415801561309f573d6000803e3d6000fd5b505050506040513d6000823e601f3d9081017fffffffffffffffffffffffffffffffffffffffffffffffffffffffffffffffe01682016040526130e59190810190614de6565b905060006131376130f586613831565b6130fe84613963565b61310786613ab7565b61311087613c63565b6040516020016131239493929190614e54565b604051602081830303815290604052613963565b90508060405160200161314a9190615056565b6040516020818303038152906040529350505050919050565b73ffffffffffffffffffffffffffffffffffffffff831615610938576040517f08c379a000000000000000000000000000000000000000000000000000000000815260206004820152601060248201527f4e4f542d5452414e5346455241424c45000000000000000000000000000000006044820152606401610870565b600082815260976020908152604080832073ffffffffffffffffffffffffffffffffffffffff8516845290915290205460ff16610eb5576132398173ffffffffffffffffffffffffffffffffffffffff166014613fd4565b613244836020613fd4565b60405160200161325592919061509b565b604080517fffffffffffffffffffffffffffffffffffffffffffffffffffffffffffffffe0818403018152908290527f08c379a000000000000000000000000000000000000000000000000000000000825261087091600401614371565b600054610100900460ff1661334a576040517f08c379a000000000000000000000000000000000000000000000000000000000815260206004820152602b60248201527f496e697469616c697a61626c653a20636f6e7472616374206973206e6f74206960448201527f6e697469616c697a696e670000000000000000000000000000000000000000006064820152608401610870565b815161335d906065906020850190614217565b508051610938906066906020840190614217565b73ffffffffffffffffffffffffffffffffffffffff82166133ee576040517f08c379a000000000000000000000000000000000000000000000000000000000815260206004820181905260248201527f4552433732313a206d696e7420746f20746865207a65726f20616464726573736044820152606401610870565b60008181526067602052604090205473ffffffffffffffffffffffffffffffffffffffff161561347a576040517f08c379a000000000000000000000000000000000000000000000000000000000815260206004820152601c60248201527f4552433732313a20746f6b656e20616c7265616479206d696e746564000000006044820152606401610870565b61348660008383613163565b73ffffffffffffffffffffffffffffffffffffffff821660009081526068602052604081208054600192906134bc908490614b25565b909155505060008181526067602052604080822080547fffffffffffffffffffffffff00000000000000000000000000000000000000001673ffffffffffffffffffffffffffffffffffffffff861690811790915590518392907fddf252ad1be2c89b69c2b068fc378daa952ba7f163c4a11628f55a4df523b3ef908290a45050565b600054610100900460ff166135d6576040517f08c379a000000000000000000000000000000000000000000000000000000000815260206004820152602b60248201527f496e697469616c697a61626c653a20636f6e7472616374206973206e6f74206960448201527f6e697469616c697a696e670000000000000000000000000000000000000000006064820152608401610870565b61159333612b42565b606083156135ee57508161288a565b8251156135fe5782518084602001fd5b816040517f08c379a00000000000000000000000000000000000000000000000000000000081526004016108709190614371565b600073ffffffffffffffffffffffffffffffffffffffff84163b15613826576040517f150b7a0200000000000000000000000000000000000000000000000000000000815273ffffffffffffffffffffffffffffffffffffffff85169063150b7a02906136a990339089908890889060040161511c565b602060405180830381600087803b1580156136c357600080fd5b505af1925050508015613711575060408051601f3d9081017fffffffffffffffffffffffffffffffffffffffffffffffffffffffffffffffe016820190925261370e91810190615165565b60015b6137db573d80801561373f576040519150601f19603f3d011682016040523d82523d6000602084013e613744565b606091505b5080516137d3576040517f08c379a000000000000000000000000000000000000000000000000000000000815260206004820152603260248201527f4552433732313a207472616e7366657220746f206e6f6e20455243373231526560448201527f63656976657220696d706c656d656e74657200000000000000000000000000006064820152608401610870565b805181602001fd5b7fffffffff00000000000000000000000000000000000000000000000000000000167f150b7a0200000000000000000000000000000000000000000000000000000000149050612446565b506001949350505050565b60608161387157505060408051808201909152600181527f3000000000000000000000000000000000000000000000000000000000000000602082015290565b8160005b811561389b578061388581614b3d565b91506138949050600a836151b1565b9150613875565b60008167ffffffffffffffff8111156138b6576138b66143eb565b6040519080825280601f01601f1916602001820160405280156138e0576020820181803683370190505b5090505b8415612446576138f5600183614adf565b9150613902600a866151c5565b61390d906030614b25565b60f81b81838151811061392257613922614af6565b60200101907effffffffffffffffffffffffffffffffffffffffffffffffffffffffffffff1916908160001a90535061395c600a866151b1565b94506138e4565b606081516000141561398357505060408051602081019091526000815290565b60006040518060600160405280604081526020016155c860409139905060006003845160026139b29190614b25565b6139bc91906151b1565b6139c79060046151d9565b67ffffffffffffffff8111156139df576139df6143eb565b6040519080825280601f01601f191660200182016040528015613a09576020820181803683370190505b509050600182016020820185865187015b80821015613a75576003820191508151603f8160121c168501518453600184019350603f81600c1c168501518453600184019350603f8160061c168501518453600184019350603f8116850151845350600183019250613a1a565b5050600386510660018114613a915760028114613aa457613aac565b603d6001830353603d6002830353613aac565b603d60018303535b509195945050505050565b6040517fc9ddc26400000000000000000000000000000000000000000000000000000000815273ffffffffffffffffffffffffffffffffffffffff82166004820152606090600090309063c9ddc2649060240160206040518083038186803b158015613b2257600080fd5b505afa158015613b36573d6000803e3d6000fd5b505050506040513d601f19601f82011682018060405250810190613b5a9190614dcd565b6040517f3f6782d200000000000000000000000000000000000000000000000000000000815273ffffffffffffffffffffffffffffffffffffffff851660048201529091506000903090633f6782d29060240160206040518083038186803b158015613bc557600080fd5b505afa158015613bd9573d6000803e3d6000fd5b505050506040513d601f19601f82011682018060405250810190613bfd9190614dcd565b90506000808313613c3d57613c19613c1484615216565b613831565b604051602001613c29919061524f565b604051602081830303815290604052613c46565b613c4683613831565b9050613c5182613831565b8160405160200161314a929190615294565b6040517f3f6782d200000000000000000000000000000000000000000000000000000000815273ffffffffffffffffffffffffffffffffffffffff821660048201526060906000903090633f6782d29060240160206040518083038186803b158015613cce57600080fd5b505afa158015613ce2573d6000803e3d6000fd5b505050506040513d601f19601f82011682018060405250810190613d069190614dcd565b90508015613fbb5760408051602081018252600080825291517ff02ab98700000000000000000000000000000000000000000000000000000000815273ffffffffffffffffffffffffffffffffffffffff8616600482015260248101839052909350309063f02ab9879060440160606040518083038186803b158015613d8b57600080fd5b505afa158015613d9f573d6000803e3d6000fd5b505050506040513d601f19601f82011682018060405250810190613dc391906153b6565b6020015163ffffffff16905082613dd982613831565b604051602001613dea929190615428565b60405160208183030381529060405292505060005b81811015613fb5576040517ff02ab98700000000000000000000000000000000000000000000000000000000815273ffffffffffffffffffffffffffffffffffffffff8516600482015260248101829052600090309063f02ab9879060440160606040518083038186803b158015613e7657600080fd5b505afa158015613e8a573d6000803e3d6000fd5b505050506040513d601f19601f82011682018060405250810190613eae91906153b6565b80516040517f4585cdc100000000000000000000000000000000000000000000000000000000815263ffffffff90911660048201529091506000903090634585cdc19060240160006040518083038186803b158015613f0c57600080fd5b505afa158015613f20573d6000803e3d6000fd5b505050506040513d6000823e601f3d9081017fffffffffffffffffffffffffffffffffffffffffffffffffffffffffffffffe0168201604052613f669190810190614de6565b90508481613f7d846040015163ffffffff16613831565b604051602001613f8f939291906154d1565b604051602081830303815290604052945050508080613fad90614b3d565b915050613dff565b50613fce565b6040518060200160405280600081525091505b50919050565b60606000613fe38360026151d9565b613fee906002614b25565b67ffffffffffffffff811115614006576140066143eb565b6040519080825280601f01601f191660200182016040528015614030576020820181803683370190505b5090507f30000000000000000000000000000000000000000000000000000000000000008160008151811061406757614067614af6565b60200101907effffffffffffffffffffffffffffffffffffffffffffffffffffffffffffff1916908160001a9053507f7800000000000000000000000000000000000000000000000000000000000000816001815181106140ca576140ca614af6565b60200101907effffffffffffffffffffffffffffffffffffffffffffffffffffffffffffff1916908160001a90535060006141068460026151d9565b614111906001614b25565b90505b60018111156141ae577f303132333435363738396162636465660000000000000000000000000000000085600f166010811061415257614152614af6565b1a60f81b82828151811061416857614168614af6565b60200101907effffffffffffffffffffffffffffffffffffffffffffffffffffffffffffff1916908160001a90535060049490941c936141a781615592565b9050614114565b50831561288a576040517f08c379a000000000000000000000000000000000000000000000000000000000815260206004820181905260248201527f537472696e67733a20686578206c656e67746820696e73756666696369656e746044820152606401610870565b82805461422390614a62565b90600052602060002090601f016020900481019282614245576000855561428b565b82601f1061425e57805160ff191683800117855561428b565b8280016001018555821561428b579182015b8281111561428b578251825591602001919060010190614270565b5061429792915061429b565b5090565b5b80821115614297576000815560010161429c565b7fffffffff000000000000000000000000000000000000000000000000000000008116811461212757600080fd5b6000602082840312156142f057600080fd5b813561288a816142b0565b60005b838110156143165781810151838201526020016142fe565b838111156118b15750506000910152565b6000815180845261433f8160208601602086016142fb565b601f017fffffffffffffffffffffffffffffffffffffffffffffffffffffffffffffffe0169290920160200192915050565b60208152600061288a6020830184614327565b60006020828403121561439657600080fd5b5035919050565b73ffffffffffffffffffffffffffffffffffffffff8116811461212757600080fd5b600080604083850312156143d257600080fd5b82356143dd8161439d565b946020939093013593505050565b7f4e487b7100000000000000000000000000000000000000000000000000000000600052604160045260246000fd5b604051601f82017fffffffffffffffffffffffffffffffffffffffffffffffffffffffffffffffe016810167ffffffffffffffff81118282101715614461576144616143eb565b604052919050565b600067ffffffffffffffff821115614483576144836143eb565b50601f017fffffffffffffffffffffffffffffffffffffffffffffffffffffffffffffffe01660200190565b60006144c26144bd84614469565b61441a565b90508281528383830111156144d657600080fd5b828260208301376000602084830101529392505050565b600082601f8301126144fe57600080fd5b61288a838335602085016144af565b60006020828403121561451f57600080fd5b813567ffffffffffffffff81111561453657600080fd5b612446848285016144ed565b606081016106df8284805163ffffffff908116835260208083015182169084015260409182015116910152565b60008060006060848603121561458457600080fd5b833561458f8161439d565b9250602084013561459f8161439d565b929592945050506040919091013590565b600080604083850312156145c357600080fd5b8235915060208301356145d58161439d565b809150509250929050565b6000806000606084860312156145f557600080fd5b83356146008161439d565b95602085013595506040909401359392505050565b6020808252825182820181905260009190848201906040850190845b8181101561467657614663838551805163ffffffff908116835260208083015182169084015260409182015116910152565b9284019260609290920191600101614631565b50909695505050505050565b60006020828403121561469457600080fd5b813561288a8161439d565b63ffffffff8116811461212757600080fd5b6000602082840312156146c357600080fd5b813561288a8161469f565b600080604083850312156146e157600080fd5b823567ffffffffffffffff808211156146f957600080fd5b614705868387016144ed565b9350602085013591508082111561471b57600080fd5b50614728858286016144ed565b9150509250929050565b60008060006060848603121561474757600080fd5b83356147528161439d565b92506020840135915060408401356147698161469f565b809150509250925092565b6000806040838503121561478757600080fd5b82356147928161439d565b9150602083013580151581146145d557600080fd5b600080602083850312156147ba57600080fd5b823567ffffffffffffffff808211156147d257600080fd5b818501915085601f8301126147e657600080fd5b8135818111156147f557600080fd5b8660208260051b850101111561480a57600080fd5b60209290920196919550909350505050565b6000602080830181845280855180835260408601915060408160051b870101925083870160005b8281101561488f577fffffffffffffffffffffffffffffffffffffffffffffffffffffffffffffffc088860301845261487d858351614327565b94509285019290850190600101614843565b5092979650505050505050565b600080600080606085870312156148b257600080fd5b84356148bd8161469f565b935060208501356148cd8161439d565b9250604085013567ffffffffffffffff808211156148ea57600080fd5b818701915087601f8301126148fe57600080fd5b81358181111561490d57600080fd5b88602082850101111561491f57600080fd5b95989497505060200194505050565b6000806000806080858703121561494457600080fd5b843561494f8161439d565b9350602085013561495f8161439d565b925060408501359150606085013567ffffffffffffffff81111561498257600080fd5b8501601f8101871361499357600080fd5b6149a2878235602084016144af565b91505092959194509250565b6000806000606084860312156149c357600080fd5b83356149ce8161439d565b925060208401356149de8161469f565b915060408401356147698161469f565b60008060408385031215614a0157600080fd5b8235614a0c8161469f565b9150602083013567ffffffffffffffff811115614a2857600080fd5b614728858286016144ed565b60008060408385031215614a4757600080fd5b8235614a528161439d565b915060208301356145d58161439d565b600181811c90821680614a7657607f821691505b60208210811415613fce577f4e487b7100000000000000000000000000000000000000000000000000000000600052602260045260246000fd5b7f4e487b7100000000000000000000000000000000000000000000000000000000600052601160045260246000fd5b600082821015614af157614af1614ab0565b500390565b7f4e487b7100000000000000000000000000000000000000000000000000000000600052603260045260246000fd5b60008219821115614b3857614b38614ab0565b500190565b60007fffffffffffffffffffffffffffffffffffffffffffffffffffffffffffffffff821415614b6f57614b6f614ab0565b5060010190565b7f4e487b7100000000000000000000000000000000000000000000000000000000600052603160045260246000fd5b6000808312837f800000000000000000000000000000000000000000000000000000000000000001831281151615614bdf57614bdf614ab0565b837f7fffffffffffffffffffffffffffffffffffffffffffffffffffffffffffffff018313811615614c1357614c13614ab0565b50500390565b600063ffffffff83811690831681811015614c3657614c36614ab0565b039392505050565b6000808212827f7fffffffffffffffffffffffffffffffffffffffffffffffffffffffffffffff03841381151615614c7857614c78614ab0565b827f8000000000000000000000000000000000000000000000000000000000000000038412811615614cac57614cac614ab0565b50500190565b60008083357fffffffffffffffffffffffffffffffffffffffffffffffffffffffffffffffe1843603018112614ce757600080fd5b83018035915067ffffffffffffffff821115614d0257600080fd5b602001915036819003821315614d1757600080fd5b9250929050565b63ffffffff8416815260406020820152816040820152818360608301376000818301606090810191909152601f9092017fffffffffffffffffffffffffffffffffffffffffffffffffffffffffffffffe016010192915050565b60008151614d8a8185602086016142fb565b9290920192915050565b60008251614da68184602087016142fb565b9190910192915050565b600060208284031215614dc257600080fd5b815161288a8161439d565b600060208284031215614ddf57600080fd5b5051919050565b600060208284031215614df857600080fd5b815167ffffffffffffffff811115614e0f57600080fd5b8201601f81018413614e2057600080fd5b8051614e2e6144bd82614469565b818152856020838501011115614e4357600080fd5b612e1d8260208301602086016142fb565b7f7b0000000000000000000000000000000000000000000000000000000000000081527f226e616d65223a2022434f4e5452494255544f52202300000000000000000000600182015260008551614eb2816017850160208a016142fb565b80830190507f222c2000000000000000000000000000000000000000000000000000000000008060178301527f22696d616765223a2022646174613a696d6167652f7376672b786d6c3b626173601a8301527f6536342c00000000000000000000000000000000000000000000000000000000603a8301528651614f3d81603e850160208b016142fb565b603e9201918201527f226465736372697074696f6e223a202250414e47454120436f6e74726962757460418201527f696f6e20506f696e742c2074686973204e465420726570726573656e7473206360618201527f6f6e747269627574696f6e20706f696e7420666f722050414e47454120636f6e60818201527f7472696275746f7273222c00000000000000000000000000000000000000000060a182015261504b61502261501c61501660ac85017f2261747472696275746573223a205b00000000000000000000000000000000008152600f0190565b88614d78565b86614d78565b7f5d7d000000000000000000000000000000000000000000000000000000000000815260020190565b979650505050505050565b7f646174613a6170706c69636174696f6e2f6a736f6e3b6261736536342c00000081526000825161508e81601d8501602087016142fb565b91909101601d0192915050565b7f416363657373436f6e74726f6c3a206163636f756e74200000000000000000008152600083516150d38160178501602088016142fb565b7f206973206d697373696e6720726f6c652000000000000000000000000000000060179184019182015283516151108160288401602088016142fb565b01602801949350505050565b600073ffffffffffffffffffffffffffffffffffffffff80871683528086166020840152508360408301526080606083015261515b6080830184614327565b9695505050505050565b60006020828403121561517757600080fd5b815161288a816142b0565b7f4e487b7100000000000000000000000000000000000000000000000000000000600052601260045260246000fd5b6000826151c0576151c0615182565b500490565b6000826151d4576151d4615182565b500690565b6000817fffffffffffffffffffffffffffffffffffffffffffffffffffffffffffffffff048311821515161561521157615211614ab0565b500290565b60007f800000000000000000000000000000000000000000000000000000000000000082141561524857615248614ab0565b5060000390565b7f2d000000000000000000000000000000000000000000000000000000000000008152600082516152878160018501602087016142fb565b9190910160010192915050565b7f7b22646973706c61795f74797065223a20226e756d626572222c20227472616981527f745f74797065223a226e756d4f66436f6e747269627574696f6e73222c22766160208201527f6c7565223a0000000000000000000000000000000000000000000000000000006040820152600083516153188160458501602088016142fb565b80830190507f7d000000000000000000000000000000000000000000000000000000000000008060458301527f2c7b22646973706c61795f74797065223a20226e756d626572222c202274726160468301527f69745f74797065223a22746f74616c506f696e7473222c2276616c7565223a00606683015284516153a38160858501602089016142fb565b6085920191820152608601949350505050565b6000606082840312156153c857600080fd5b6040516060810181811067ffffffffffffffff821117156153eb576153eb6143eb565b60405282516153f98161469f565b815260208301516154098161469f565b6020820152604083015161541c8161469f565b60408201529392505050565b6000835161543a8184602088016142fb565b80830190507f2c7b22646973706c61795f74797065223a202264617465222c2022747261697481527f5f74797065223a226a6f696e44617465222c2276616c7565223a0000000000006020820152835161549b81603a8401602088016142fb565b7f7d00000000000000000000000000000000000000000000000000000000000000603a9290910191820152603b01949350505050565b600084516154e38184602089016142fb565b7f2c7b2274726169745f74797065223a2200000000000000000000000000000000908301908152845161551d8160108401602089016142fb565b7f2c222c2276616c7565223a20220000000000000000000000000000000000000060109290910191820152835161555b81601d8401602088016142fb565b7f227d000000000000000000000000000000000000000000000000000000000000601d9290910191820152601f0195945050505050565b6000816155a1576155a1614ab0565b507fffffffffffffffffffffffffffffffffffffffffffffffffffffffffffffffff019056fe4142434445464748494a4b4c4d4e4f505152535455565758595a6162636465666768696a6b6c6d6e6f707172737475767778797a303132333435363738392b2f416464726573733a206c6f772d6c6576656c2064656c65676174652063616c6c206661696c6564a26469706673582212202e4e8572fe2b165810ce6cb336268eda4ef7813c373e4aefa11981df53da98dc64736f6c63430008090033",
  "deployedBytecode": "0x608060405234801561001057600080fd5b50600436106102ac5760003560e01c806370a082311161017b578063b88d4fde116100d8578063dc9adfa81161008c578063ec87621c11610071578063ec87621c14610678578063f02ab9871461069f578063f2fde38b146106b257600080fd5b8063dc9adfa81461061c578063e985e9c51461062f57600080fd5b8063c87b56dd116100bd578063c87b56dd146105bf578063c9ddc264146105d2578063d547741f1461060957600080fd5b8063b88d4fde14610599578063c185bd10146105ac57600080fd5b806395d89b411161012f578063a22cb46511610114578063a22cb46514610553578063ac9650d814610566578063b85891ea1461058657600080fd5b806395d89b4114610543578063a217fddf1461054b57600080fd5b80637a6d4003116101605780637a6d4003146104cc5780638da5cb5b146104df57806391d14854146104fd57600080fd5b806370a08231146104b1578063715018a6146104c457600080fd5b8063248a9ca31161022957806342842e0e116101dd5780634cd88b76116101c25780634cd88b76146104785780636352211e1461048b57806367cf96aa1461049e57600080fd5b806342842e0e146104525780634585cdc11461046557600080fd5b806336568abe1161020e57806336568abe146103e85780633be09cb7146103fb5780633f6782d21461041b57600080fd5b8063248a9ca3146103b25780632f2ff15d146103d557600080fd5b8063095ea7b3116102805780631f36d212116102655780631f36d21214610357578063210661b71461037f57806323b872dd1461039f57600080fd5b8063095ea7b31461033957806318160ddd1461034e57600080fd5b8062e9236f146102b157806301ffc9a7146102c957806306fdde03146102ec578063081812fc14610301575b600080fd5b61012f545b6040519081526020015b60405180910390f35b6102dc6102d73660046142de565b6106c5565b60405190151581526020016102c0565b6102f46106e5565b6040516102c09190614371565b61031461030f366004614384565b610777565b60405173ffffffffffffffffffffffffffffffffffffffff90911681526020016102c0565b61034c6103473660046143bf565b6107ab565b005b610131546102b6565b61036a61036536600461450d565b61093d565b60405163ffffffff90911681526020016102c0565b61039261038d3660046143bf565b610a3d565b6040516102c09190614542565b61034c6103ad36600461456f565b610d40565b6102b66103c0366004614384565b60009081526097602052604090206001015490565b61034c6103e33660046145b0565b610de1565b61034c6103f63660046145b0565b610e06565b61040e6104093660046145e0565b610eb9565b6040516102c09190614615565b6102b6610429366004614682565b73ffffffffffffffffffffffffffffffffffffffff16600090815261012d602052604090205490565b61034c61046036600461456f565b6110f8565b6102f46104733660046146b1565b611113565b61034c6104863660046146ce565b6111c9565b610314610499366004614384565b61138a565b6102b66104ac366004614682565b611416565b6102b66104bf366004614682565b6114b3565b61034c611581565b61034c6104da366004614732565b611595565b60fb5473ffffffffffffffffffffffffffffffffffffffff16610314565b6102dc61050b3660046145b0565b600091825260976020908152604080842073ffffffffffffffffffffffffffffffffffffffff93909316845291905290205460ff1690565b6102f46118b7565b6102b6600081565b61034c610561366004614774565b6118c6565b6105796105743660046147a7565b6118d1565b6040516102c0919061481c565b61034c61059436600461489c565b6119c6565b61034c6105a736600461492e565b611b0c565b61034c6105ba3660046149ae565b611bae565b6102f46105cd366004614384565b611e60565b6102b66105e0366004614682565b73ffffffffffffffffffffffffffffffffffffffff16600090815261012e602052604090205490565b61034c6106173660046145b0565b611e6b565b61034c61062a3660046149ee565b611e90565b6102dc61063d366004614a34565b73ffffffffffffffffffffffffffffffffffffffff9182166000908152606a6020908152604080832093909416825291909152205460ff1690565b6102b67faf290d8680820aad922855f39b306097b20e28774d6c1ad35a20325630c3a02c81565b6103926106ad3660046143bf565b611fd2565b61034c6106c0366004614682565b612073565b60006106d08261212a565b806106df57506106df8261220d565b92915050565b6060606580546106f490614a62565b80601f016020809104026020016040519081016040528092919081815260200182805461072090614a62565b801561076d5780601f106107425761010080835404028352916020019161076d565b820191906000526020600020905b81548152906001019060200180831161075057829003601f168201915b5050505050905090565b600061078282612263565b5060009081526069602052604090205473ffffffffffffffffffffffffffffffffffffffff1690565b60006107b68261138a565b90508073ffffffffffffffffffffffffffffffffffffffff168373ffffffffffffffffffffffffffffffffffffffff161415610879576040517f08c379a000000000000000000000000000000000000000000000000000000000815260206004820152602160248201527f4552433732313a20617070726f76616c20746f2063757272656e74206f776e6560448201527f720000000000000000000000000000000000000000000000000000000000000060648201526084015b60405180910390fd5b3373ffffffffffffffffffffffffffffffffffffffff821614806108a257506108a2813361063d565b61092e576040517f08c379a000000000000000000000000000000000000000000000000000000000815260206004820152603e60248201527f4552433732313a20617070726f76652063616c6c6572206973206e6f7420746f60448201527f6b656e206f776e6572206e6f7220617070726f76656420666f7220616c6c00006064820152608401610870565b61093883836122ee565b505050565b3360009081527fe0601880cdabed0469f97fd15da07fe74fbbb126935f404539f62180845d005f602052604081205460ff166109d5576040517f08c379a000000000000000000000000000000000000000000000000000000000815260206004820152600c60248201527f4f4e4c59204d414e4147455200000000000000000000000000000000000000006044820152606401610870565b61012f5463ffffffff116109e857600080fd5b61012f80546001810182556000919091528251610a2c917f232da9e50dad2971456a78fb5cd6ff6b75019984d6e918139ce990999420f97901906020850190614217565b5061012f546106df90600190614adf565b60408051606081018252600080825260208083018290528284018290523382527fe0601880cdabed0469f97fd15da07fe74fbbb126935f404539f62180845d005f9052919091205460ff16610aee576040517f08c379a000000000000000000000000000000000000000000000000000000000815260206004820152600c60248201527f4f4e4c59204d414e4147455200000000000000000000000000000000000000006044820152606401610870565b73ffffffffffffffffffffffffffffffffffffffff8316600090815261012d602052604090208054819084908110610b2857610b28614af6565b600091825260209182902060408051606081018252919092015463ffffffff80821683526401000000008204811694830194909452680100000000000000009004909216908201529150825b8154610b8290600190614adf565b811015610c895781610b95826001614b25565b81548110610ba557610ba5614af6565b90600052602060002001828281548110610bc157610bc1614af6565b6000918252602090912082549101805463ffffffff9283167fffffffffffffffffffffffffffffffffffffffffffffffffffffffff0000000082168117835584547fffffffffffffffffffffffffffffffffffffffffffffffff0000000000000000909216176401000000009182900484169091021780825592547fffffffffffffffffffffffffffffffffffffffff00000000ffffffffffffffff909316680100000000000000009384900490921690920217905580610c8181614b3d565b915050610b74565b5080805480610c9a57610c9a614b76565b6000828152602090207fffffffffffffffffffffffffffffffffffffffffffffffffffffffffffffffff908201810180547fffffffffffffffffffffffffffffffffffffffff000000000000000000000000169055019055604082015163ffffffff1673ffffffffffffffffffffffffffffffffffffffff8516600090815261012e602052604081208054909190610d33908490614ba5565b9091555091949350505050565b610d4a338261238e565b610dd6576040517f08c379a000000000000000000000000000000000000000000000000000000000815260206004820152602e60248201527f4552433732313a2063616c6c6572206973206e6f7420746f6b656e206f776e6560448201527f72206e6f7220617070726f7665640000000000000000000000000000000000006064820152608401610870565b61093883838361244e565b600082815260976020526040902060010154610dfc816126c0565b61093883836126ca565b73ffffffffffffffffffffffffffffffffffffffff81163314610eab576040517f08c379a000000000000000000000000000000000000000000000000000000000815260206004820152602f60248201527f416363657373436f6e74726f6c3a2063616e206f6e6c792072656e6f756e636560448201527f20726f6c657320666f722073656c6600000000000000000000000000000000006064820152608401610870565b610eb582826127be565b5050565b73ffffffffffffffffffffffffffffffffffffffff8316600090815261012d60209081526040808320805482518185028101850190935280835260609493849084015b82821015610f55576000848152602090819020604080516060810182529185015463ffffffff80821684526401000000008204811684860152680100000000000000009091041690820152825260019092019101610efc565b5050505090506000610f8b60018587610f6e9190614b25565b610f789190614adf565b60018451610f869190614adf565b612879565b905080851115610ff7576040517f08c379a000000000000000000000000000000000000000000000000000000000815260206004820152600a60248201527f4e4f205245434f524453000000000000000000000000000000000000000000006044820152606401610870565b6110018582614adf565b61100c906001614b25565b67ffffffffffffffff811115611024576110246143eb565b60405190808252806020026020018201604052801561108d57816020015b60408051606081018252600080825260208083018290529282015282527fffffffffffffffffffffffffffffffffffffffffffffffffffffffffffffffff9092019101816110425790505b509250845b8181116110ee578281815181106110ab576110ab614af6565b60200260200101518487836110c09190614adf565b815181106110d0576110d0614af6565b602002602001018190525080806110e690614b3d565b915050611092565b5050509392505050565b61093883838360405180602001604052806000815250611b0c565b606061012f8263ffffffff168154811061112f5761112f614af6565b90600052602060002001805461114490614a62565b80601f016020809104026020016040519081016040528092919081815260200182805461117090614a62565b80156111bd5780601f10611192576101008083540402835291602001916111bd565b820191906000526020600020905b8154815290600101906020018083116111a057829003601f168201915b50505050509050919050565b600054610100900460ff16158080156111e95750600054600160ff909116105b806112035750303b158015611203575060005460ff166001145b61128f576040517f08c379a000000000000000000000000000000000000000000000000000000000815260206004820152602e60248201527f496e697469616c697a61626c653a20636f6e747261637420697320616c72656160448201527f647920696e697469616c697a65640000000000000000000000000000000000006064820152608401610870565b600080547fffffffffffffffffffffffffffffffffffffffffffffffffffffffffffffff0016600117905580156112ed57600080547fffffffffffffffffffffffffffffffffffffffffffffffffffffffffffff00ff166101001790555b6112f78383612891565b6112ff612932565b611307612932565b6113126000336129c9565b61131b336129d3565b611323612a22565b801561093857600080547fffffffffffffffffffffffffffffffffffffffffffffffffffffffffffff00ff169055604051600181527f7f26b83ff96e1f2b6a682f133852f6798a09c465da95921460cefb38474024989060200160405180910390a1505050565b60008181526067602052604081205473ffffffffffffffffffffffffffffffffffffffff16806106df576040517f08c379a000000000000000000000000000000000000000000000000000000000815260206004820152601860248201527f4552433732313a20696e76616c696420746f6b656e20494400000000000000006044820152606401610870565b600080611422836114b3565b11611489576040517f08c379a000000000000000000000000000000000000000000000000000000000815260206004820152600d60248201527f4e4f204d454d42455253484950000000000000000000000000000000000000006044820152606401610870565b5073ffffffffffffffffffffffffffffffffffffffff166000908152610130602052604090205490565b600073ffffffffffffffffffffffffffffffffffffffff8216611558576040517f08c379a000000000000000000000000000000000000000000000000000000000815260206004820152602960248201527f4552433732313a2061646472657373207a65726f206973206e6f74206120766160448201527f6c6964206f776e657200000000000000000000000000000000000000000000006064820152608401610870565b5073ffffffffffffffffffffffffffffffffffffffff1660009081526068602052604090205490565b611589612ac1565b6115936000612b42565b565b3360009081527fe0601880cdabed0469f97fd15da07fe74fbbb126935f404539f62180845d005f602052604090205460ff1661162d576040517f08c379a000000000000000000000000000000000000000000000000000000000815260206004820152600c60248201527f4f4e4c59204d414e4147455200000000000000000000000000000000000000006044820152606401610870565b60008163ffffffff161161169d576040517f08c379a000000000000000000000000000000000000000000000000000000000815260206004820152600860248201527f4e4f54205a45524f0000000000000000000000000000000000000000000000006044820152606401610870565b73ffffffffffffffffffffffffffffffffffffffff8316600090815261012d6020526040902054821061172c576040517f08c379a000000000000000000000000000000000000000000000000000000000815260206004820152601060248201527f494e56414c4944204f52444552204944000000000000000000000000000000006044820152606401610870565b73ffffffffffffffffffffffffffffffffffffffff8316600090815261012d6020526040812080548490811061176457611764614af6565b60009182526020808320919091015473ffffffffffffffffffffffffffffffffffffffff8716835261012d909152604090912080546801000000000000000090920463ffffffff1692508391859081106117c0576117c0614af6565b600091825260209091200180547fffffffffffffffffffffffffffffffffffffffff00000000ffffffffffffffff166801000000000000000063ffffffff9384160217905582811690821610156118685761182761181e8284614c19565b63ffffffff1690565b73ffffffffffffffffffffffffffffffffffffffff8516600090815261012e60205260408120805490919061185d908490614c3e565b909155506118b19050565b61187561181e8383614c19565b73ffffffffffffffffffffffffffffffffffffffff8516600090815261012e6020526040812080549091906118ab908490614ba5565b90915550505b50505050565b6060606680546106f490614a62565b610eb5338383612bb9565b60608167ffffffffffffffff8111156118ec576118ec6143eb565b60405190808252806020026020018201604052801561191f57816020015b606081526020019060019003908161190a5790505b50905060005b828110156119bf5761198f3085858481811061194357611943614af6565b90506020028101906119559190614cb2565b8080601f016020809104026020016040519081016040528093929190818152602001838380828437600092019190915250612ce792505050565b8282815181106119a1576119a1614af6565b602002602001018190525080806119b790614b3d565b915050611925565b5092915050565b33600090815261012e602052604081205490811380156119ec5750808563ffffffff1611155b611a52576040517f08c379a000000000000000000000000000000000000000000000000000000000815260206004820152600c60248201527f494e53554646494349454e5400000000000000000000000000000000000000006044820152606401610870565b33600090815261012e60205260408120805463ffffffff88169290611a78908490614ba5565b90915550506040517fc7bc33f000000000000000000000000000000000000000000000000000000000815273ffffffffffffffffffffffffffffffffffffffff85169063c7bc33f090611ad390889087908790600401614d1e565b600060405180830381600087803b158015611aed57600080fd5b505af1158015611b01573d6000803e3d6000fd5b505050505050505050565b611b16338361238e565b611ba2576040517f08c379a000000000000000000000000000000000000000000000000000000000815260206004820152602e60248201527f4552433732313a2063616c6c6572206973206e6f7420746f6b656e206f776e6560448201527f72206e6f7220617070726f7665640000000000000000000000000000000000006064820152608401610870565b6118b184848484612e26565b3360009081527fe0601880cdabed0469f97fd15da07fe74fbbb126935f404539f62180845d005f602052604090205460ff16611c46576040517f08c379a000000000000000000000000000000000000000000000000000000000815260206004820152600c60248201527f4f4e4c59204d414e4147455200000000000000000000000000000000000000006044820152606401610870565b61012f5463ffffffff831610611cb8576040517f08c379a000000000000000000000000000000000000000000000000000000000815260206004820152600e60248201527f494e56414c4944205441472049440000000000000000000000000000000000006044820152606401610870565b60008163ffffffff1611611d28576040517f08c379a000000000000000000000000000000000000000000000000000000000815260206004820152600860248201527f4e4f54205a45524f0000000000000000000000000000000000000000000000006044820152606401610870565b611d31836114b3565b611d3e57611d3e836129d3565b73ffffffffffffffffffffffffffffffffffffffff8316600090815261012d60209081526040808320815160608101835263ffffffff808816825242811682860190815287821694830194855283546001810185559387529490952090519101805493519251851668010000000000000000027fffffffffffffffffffffffffffffffffffffffff00000000ffffffffffffffff938616640100000000027fffffffffffffffffffffffffffffffffffffffffffffffff000000000000000090951692909516919091179290921716919091179055611e208163ffffffff1690565b73ffffffffffffffffffffffffffffffffffffffff8416600090815261012e602052604081208054909190611e56908490614c3e565b9091555050505050565b60606106df82612ec9565b600082815260976020526040902060010154611e86816126c0565b61093883836127be565b3360009081527fe0601880cdabed0469f97fd15da07fe74fbbb126935f404539f62180845d005f602052604090205460ff16611f28576040517f08c379a000000000000000000000000000000000000000000000000000000000815260206004820152600c60248201527f4f4e4c59204d414e4147455200000000000000000000000000000000000000006044820152606401610870565b61012f5463ffffffff831610611f9a576040517f08c379a000000000000000000000000000000000000000000000000000000000815260206004820152600e60248201527f494e56414c4944205441472049440000000000000000000000000000000000006044820152606401610870565b8061012f8363ffffffff1681548110611fb557611fb5614af6565b906000526020600020019080519060200190610938929190614217565b604080516060810182526000808252602080830182905282840182905273ffffffffffffffffffffffffffffffffffffffff8616825261012d90529190912080548390811061202357612023614af6565b600091825260209182902060408051606081018252919092015463ffffffff8082168352640100000000820481169483019490945268010000000000000000900490921690820152905092915050565b61207b612ac1565b73ffffffffffffffffffffffffffffffffffffffff811661211e576040517f08c379a000000000000000000000000000000000000000000000000000000000815260206004820152602660248201527f4f776e61626c653a206e6577206f776e657220697320746865207a65726f206160448201527f64647265737300000000000000000000000000000000000000000000000000006064820152608401610870565b61212781612b42565b50565b60007fffffffff0000000000000000000000000000000000000000000000000000000082167f80ac58cd0000000000000000000000000000000000000000000000000000000014806121bd57507fffffffff0000000000000000000000000000000000000000000000000000000082167f5b5e139f00000000000000000000000000000000000000000000000000000000145b806106df57507f01ffc9a7000000000000000000000000000000000000000000000000000000007fffffffff000000000000000000000000000000000000000000000000000000008316146106df565b60007fffffffff0000000000000000000000000000000000000000000000000000000082167f7965db0b0000000000000000000000000000000000000000000000000000000014806106df57506106df8261212a565b60008181526067602052604090205473ffffffffffffffffffffffffffffffffffffffff16612127576040517f08c379a000000000000000000000000000000000000000000000000000000000815260206004820152601860248201527f4552433732313a20696e76616c696420746f6b656e20494400000000000000006044820152606401610870565b600081815260696020526040902080547fffffffffffffffffffffffff00000000000000000000000000000000000000001673ffffffffffffffffffffffffffffffffffffffff841690811790915581906123488261138a565b73ffffffffffffffffffffffffffffffffffffffff167f8c5be1e5ebec7d5bd14f71427d1e84f3dd0314c0f7b2291e5b200ac8c7c3b92560405160405180910390a45050565b60008061239a8361138a565b90508073ffffffffffffffffffffffffffffffffffffffff168473ffffffffffffffffffffffffffffffffffffffff161480612408575073ffffffffffffffffffffffffffffffffffffffff8082166000908152606a602090815260408083209388168352929052205460ff165b8061244657508373ffffffffffffffffffffffffffffffffffffffff1661242e84610777565b73ffffffffffffffffffffffffffffffffffffffff16145b949350505050565b8273ffffffffffffffffffffffffffffffffffffffff1661246e8261138a565b73ffffffffffffffffffffffffffffffffffffffff1614612511576040517f08c379a000000000000000000000000000000000000000000000000000000000815260206004820152602560248201527f4552433732313a207472616e736665722066726f6d20696e636f72726563742060448201527f6f776e65720000000000000000000000000000000000000000000000000000006064820152608401610870565b73ffffffffffffffffffffffffffffffffffffffff82166125b3576040517f08c379a0000000000000000000000000000000000000000000000000000000008152602060048201526024808201527f4552433732313a207472616e7366657220746f20746865207a65726f2061646460448201527f72657373000000000000000000000000000000000000000000000000000000006064820152608401610870565b6125be838383613163565b6125c96000826122ee565b73ffffffffffffffffffffffffffffffffffffffff831660009081526068602052604081208054600192906125ff908490614adf565b909155505073ffffffffffffffffffffffffffffffffffffffff8216600090815260686020526040812080546001929061263a908490614b25565b909155505060008181526067602052604080822080547fffffffffffffffffffffffff00000000000000000000000000000000000000001673ffffffffffffffffffffffffffffffffffffffff86811691821790925591518493918716917fddf252ad1be2c89b69c2b068fc378daa952ba7f163c4a11628f55a4df523b3ef91a4505050565b61212781336131e1565b600082815260976020908152604080832073ffffffffffffffffffffffffffffffffffffffff8516845290915290205460ff16610eb557600082815260976020908152604080832073ffffffffffffffffffffffffffffffffffffffff85168452909152902080547fffffffffffffffffffffffffffffffffffffffffffffffffffffffffffffff001660011790556127603390565b73ffffffffffffffffffffffffffffffffffffffff168173ffffffffffffffffffffffffffffffffffffffff16837f2f8788117e7eff1d82e926ec794901d17c78024a50270940304540a733656f0d60405160405180910390a45050565b600082815260976020908152604080832073ffffffffffffffffffffffffffffffffffffffff8516845290915290205460ff1615610eb557600082815260976020908152604080832073ffffffffffffffffffffffffffffffffffffffff8516808552925280832080547fffffffffffffffffffffffffffffffffffffffffffffffffffffffffffffff0016905551339285917ff6391f5c32d9c69d2a47ea670b442974b53935d1edc7fd64eb21e047a839171b9190a45050565b6000818310612888578161288a565b825b9392505050565b600054610100900460ff16612928576040517f08c379a000000000000000000000000000000000000000000000000000000000815260206004820152602b60248201527f496e697469616c697a61626c653a20636f6e7472616374206973206e6f74206960448201527f6e697469616c697a696e670000000000000000000000000000000000000000006064820152608401610870565b610eb582826132b3565b600054610100900460ff16611593576040517f08c379a000000000000000000000000000000000000000000000000000000000815260206004820152602b60248201527f496e697469616c697a61626c653a20636f6e7472616374206973206e6f74206960448201527f6e697469616c697a696e670000000000000000000000000000000000000000006064820152608401610870565b610eb582826126ca565b6129e08161013154613371565b610131805473ffffffffffffffffffffffffffffffffffffffff8316600090815261013060205260408120829055909190612a1a83614b3d565b919050555050565b600054610100900460ff16612ab9576040517f08c379a000000000000000000000000000000000000000000000000000000000815260206004820152602b60248201527f496e697469616c697a61626c653a20636f6e7472616374206973206e6f74206960448201527f6e697469616c697a696e670000000000000000000000000000000000000000006064820152608401610870565b61159361353f565b60fb5473ffffffffffffffffffffffffffffffffffffffff163314611593576040517f08c379a000000000000000000000000000000000000000000000000000000000815260206004820181905260248201527f4f776e61626c653a2063616c6c6572206973206e6f7420746865206f776e65726044820152606401610870565b60fb805473ffffffffffffffffffffffffffffffffffffffff8381167fffffffffffffffffffffffff0000000000000000000000000000000000000000831681179093556040519116919082907f8be0079c531659141344cd1fd0a4f28419497f9722a3daafe3b4186f6b6457e090600090a35050565b8173ffffffffffffffffffffffffffffffffffffffff168373ffffffffffffffffffffffffffffffffffffffff161415612c4f576040517f08c379a000000000000000000000000000000000000000000000000000000000815260206004820152601960248201527f4552433732313a20617070726f766520746f2063616c6c6572000000000000006044820152606401610870565b73ffffffffffffffffffffffffffffffffffffffff8381166000818152606a602090815260408083209487168084529482529182902080547fffffffffffffffffffffffffffffffffffffffffffffffffffffffffffffff001686151590811790915591519182527f17307eab39ab6107e8899845ad3d59bd9653f200f220920489ca2b5937696c31910160405180910390a3505050565b606073ffffffffffffffffffffffffffffffffffffffff83163b612d8d576040517f08c379a000000000000000000000000000000000000000000000000000000000815260206004820152602660248201527f416464726573733a2064656c65676174652063616c6c20746f206e6f6e2d636f60448201527f6e747261637400000000000000000000000000000000000000000000000000006064820152608401610870565b6000808473ffffffffffffffffffffffffffffffffffffffff1684604051612db59190614d94565b600060405180830381855af49150503d8060008114612df0576040519150601f19603f3d011682016040523d82523d6000602084013e612df5565b606091505b5091509150612e1d8282604051806060016040528060278152602001615608602791396135df565b95945050505050565b612e3184848461244e565b612e3d84848484613632565b6118b1576040517f08c379a000000000000000000000000000000000000000000000000000000000815260206004820152603260248201527f4552433732313a207472616e7366657220746f206e6f6e20455243373231526560448201527f63656976657220696d706c656d656e74657200000000000000000000000000006064820152608401610870565b6040517f6352211e000000000000000000000000000000000000000000000000000000008152600481018290526060906000903090636352211e9060240160206040518083038186803b158015612f1f57600080fd5b505afa158015612f33573d6000803e3d6000fd5b505050506040513d601f19601f82011682018060405250810190612f579190614db0565b6040517fc9ddc26400000000000000000000000000000000000000000000000000000000815273ffffffffffffffffffffffffffffffffffffffff8216600482015290915060009073__$3db2f02d038c6d8f9dea1fef361ba1a3b8$__9063c5bb75a19086908590309063c9ddc2649060240160206040518083038186803b158015612fe257600080fd5b505afa158015612ff6573d6000803e3d6000fd5b505050506040513d601f19601f8201168201806040525081019061301a9190614dcd565b6040517fffffffff0000000000000000000000000000000000000000000000000000000060e086901b168152600481019390935273ffffffffffffffffffffffffffffffffffffffff9091166024830152604482015260640160006040518083038186803b15801561308b57600080fd5b505af415801561309f573d6000803e3d6000fd5b505050506040513d6000823e601f3d9081017fffffffffffffffffffffffffffffffffffffffffffffffffffffffffffffffe01682016040526130e59190810190614de6565b905060006131376130f586613831565b6130fe84613963565b61310786613ab7565b61311087613c63565b6040516020016131239493929190614e54565b604051602081830303815290604052613963565b90508060405160200161314a9190615056565b6040516020818303038152906040529350505050919050565b73ffffffffffffffffffffffffffffffffffffffff831615610938576040517f08c379a000000000000000000000000000000000000000000000000000000000815260206004820152601060248201527f4e4f542d5452414e5346455241424c45000000000000000000000000000000006044820152606401610870565b600082815260976020908152604080832073ffffffffffffffffffffffffffffffffffffffff8516845290915290205460ff16610eb5576132398173ffffffffffffffffffffffffffffffffffffffff166014613fd4565b613244836020613fd4565b60405160200161325592919061509b565b604080517fffffffffffffffffffffffffffffffffffffffffffffffffffffffffffffffe0818403018152908290527f08c379a000000000000000000000000000000000000000000000000000000000825261087091600401614371565b600054610100900460ff1661334a576040517f08c379a000000000000000000000000000000000000000000000000000000000815260206004820152602b60248201527f496e697469616c697a61626c653a20636f6e7472616374206973206e6f74206960448201527f6e697469616c697a696e670000000000000000000000000000000000000000006064820152608401610870565b815161335d906065906020850190614217565b508051610938906066906020840190614217565b73ffffffffffffffffffffffffffffffffffffffff82166133ee576040517f08c379a000000000000000000000000000000000000000000000000000000000815260206004820181905260248201527f4552433732313a206d696e7420746f20746865207a65726f20616464726573736044820152606401610870565b60008181526067602052604090205473ffffffffffffffffffffffffffffffffffffffff161561347a576040517f08c379a000000000000000000000000000000000000000000000000000000000815260206004820152601c60248201527f4552433732313a20746f6b656e20616c7265616479206d696e746564000000006044820152606401610870565b61348660008383613163565b73ffffffffffffffffffffffffffffffffffffffff821660009081526068602052604081208054600192906134bc908490614b25565b909155505060008181526067602052604080822080547fffffffffffffffffffffffff00000000000000000000000000000000000000001673ffffffffffffffffffffffffffffffffffffffff861690811790915590518392907fddf252ad1be2c89b69c2b068fc378daa952ba7f163c4a11628f55a4df523b3ef908290a45050565b600054610100900460ff166135d6576040517f08c379a000000000000000000000000000000000000000000000000000000000815260206004820152602b60248201527f496e697469616c697a61626c653a20636f6e7472616374206973206e6f74206960448201527f6e697469616c697a696e670000000000000000000000000000000000000000006064820152608401610870565b61159333612b42565b606083156135ee57508161288a565b8251156135fe5782518084602001fd5b816040517f08c379a00000000000000000000000000000000000000000000000000000000081526004016108709190614371565b600073ffffffffffffffffffffffffffffffffffffffff84163b15613826576040517f150b7a0200000000000000000000000000000000000000000000000000000000815273ffffffffffffffffffffffffffffffffffffffff85169063150b7a02906136a990339089908890889060040161511c565b602060405180830381600087803b1580156136c357600080fd5b505af1925050508015613711575060408051601f3d9081017fffffffffffffffffffffffffffffffffffffffffffffffffffffffffffffffe016820190925261370e91810190615165565b60015b6137db573d80801561373f576040519150601f19603f3d011682016040523d82523d6000602084013e613744565b606091505b5080516137d3576040517f08c379a000000000000000000000000000000000000000000000000000000000815260206004820152603260248201527f4552433732313a207472616e7366657220746f206e6f6e20455243373231526560448201527f63656976657220696d706c656d656e74657200000000000000000000000000006064820152608401610870565b805181602001fd5b7fffffffff00000000000000000000000000000000000000000000000000000000167f150b7a0200000000000000000000000000000000000000000000000000000000149050612446565b506001949350505050565b60608161387157505060408051808201909152600181527f3000000000000000000000000000000000000000000000000000000000000000602082015290565b8160005b811561389b578061388581614b3d565b91506138949050600a836151b1565b9150613875565b60008167ffffffffffffffff8111156138b6576138b66143eb565b6040519080825280601f01601f1916602001820160405280156138e0576020820181803683370190505b5090505b8415612446576138f5600183614adf565b9150613902600a866151c5565b61390d906030614b25565b60f81b81838151811061392257613922614af6565b60200101907effffffffffffffffffffffffffffffffffffffffffffffffffffffffffffff1916908160001a90535061395c600a866151b1565b94506138e4565b606081516000141561398357505060408051602081019091526000815290565b60006040518060600160405280604081526020016155c860409139905060006003845160026139b29190614b25565b6139bc91906151b1565b6139c79060046151d9565b67ffffffffffffffff8111156139df576139df6143eb565b6040519080825280601f01601f191660200182016040528015613a09576020820181803683370190505b509050600182016020820185865187015b80821015613a75576003820191508151603f8160121c168501518453600184019350603f81600c1c168501518453600184019350603f8160061c168501518453600184019350603f8116850151845350600183019250613a1a565b5050600386510660018114613a915760028114613aa457613aac565b603d6001830353603d6002830353613aac565b603d60018303535b509195945050505050565b6040517fc9ddc26400000000000000000000000000000000000000000000000000000000815273ffffffffffffffffffffffffffffffffffffffff82166004820152606090600090309063c9ddc2649060240160206040518083038186803b158015613b2257600080fd5b505afa158015613b36573d6000803e3d6000fd5b505050506040513d601f19601f82011682018060405250810190613b5a9190614dcd565b6040517f3f6782d200000000000000000000000000000000000000000000000000000000815273ffffffffffffffffffffffffffffffffffffffff851660048201529091506000903090633f6782d29060240160206040518083038186803b158015613bc557600080fd5b505afa158015613bd9573d6000803e3d6000fd5b505050506040513d601f19601f82011682018060405250810190613bfd9190614dcd565b90506000808313613c3d57613c19613c1484615216565b613831565b604051602001613c29919061524f565b604051602081830303815290604052613c46565b613c4683613831565b9050613c5182613831565b8160405160200161314a929190615294565b6040517f3f6782d200000000000000000000000000000000000000000000000000000000815273ffffffffffffffffffffffffffffffffffffffff821660048201526060906000903090633f6782d29060240160206040518083038186803b158015613cce57600080fd5b505afa158015613ce2573d6000803e3d6000fd5b505050506040513d601f19601f82011682018060405250810190613d069190614dcd565b90508015613fbb5760408051602081018252600080825291517ff02ab98700000000000000000000000000000000000000000000000000000000815273ffffffffffffffffffffffffffffffffffffffff8616600482015260248101839052909350309063f02ab9879060440160606040518083038186803b158015613d8b57600080fd5b505afa158015613d9f573d6000803e3d6000fd5b505050506040513d601f19601f82011682018060405250810190613dc391906153b6565b6020015163ffffffff16905082613dd982613831565b604051602001613dea929190615428565b60405160208183030381529060405292505060005b81811015613fb5576040517ff02ab98700000000000000000000000000000000000000000000000000000000815273ffffffffffffffffffffffffffffffffffffffff8516600482015260248101829052600090309063f02ab9879060440160606040518083038186803b158015613e7657600080fd5b505afa158015613e8a573d6000803e3d6000fd5b505050506040513d601f19601f82011682018060405250810190613eae91906153b6565b80516040517f4585cdc100000000000000000000000000000000000000000000000000000000815263ffffffff90911660048201529091506000903090634585cdc19060240160006040518083038186803b158015613f0c57600080fd5b505afa158015613f20573d6000803e3d6000fd5b505050506040513d6000823e601f3d9081017fffffffffffffffffffffffffffffffffffffffffffffffffffffffffffffffe0168201604052613f669190810190614de6565b90508481613f7d846040015163ffffffff16613831565b604051602001613f8f939291906154d1565b604051602081830303815290604052945050508080613fad90614b3d565b915050613dff565b50613fce565b6040518060200160405280600081525091505b50919050565b60606000613fe38360026151d9565b613fee906002614b25565b67ffffffffffffffff811115614006576140066143eb565b6040519080825280601f01601f191660200182016040528015614030576020820181803683370190505b5090507f30000000000000000000000000000000000000000000000000000000000000008160008151811061406757614067614af6565b60200101907effffffffffffffffffffffffffffffffffffffffffffffffffffffffffffff1916908160001a9053507f7800000000000000000000000000000000000000000000000000000000000000816001815181106140ca576140ca614af6565b60200101907effffffffffffffffffffffffffffffffffffffffffffffffffffffffffffff1916908160001a90535060006141068460026151d9565b614111906001614b25565b90505b60018111156141ae577f303132333435363738396162636465660000000000000000000000000000000085600f166010811061415257614152614af6565b1a60f81b82828151811061416857614168614af6565b60200101907effffffffffffffffffffffffffffffffffffffffffffffffffffffffffffff1916908160001a90535060049490941c936141a781615592565b9050614114565b50831561288a576040517f08c379a000000000000000000000000000000000000000000000000000000000815260206004820181905260248201527f537472696e67733a20686578206c656e67746820696e73756666696369656e746044820152606401610870565b82805461422390614a62565b90600052602060002090601f016020900481019282614245576000855561428b565b82601f1061425e57805160ff191683800117855561428b565b8280016001018555821561428b579182015b8281111561428b578251825591602001919060010190614270565b5061429792915061429b565b5090565b5b80821115614297576000815560010161429c565b7fffffffff000000000000000000000000000000000000000000000000000000008116811461212757600080fd5b6000602082840312156142f057600080fd5b813561288a816142b0565b60005b838110156143165781810151838201526020016142fe565b838111156118b15750506000910152565b6000815180845261433f8160208601602086016142fb565b601f017fffffffffffffffffffffffffffffffffffffffffffffffffffffffffffffffe0169290920160200192915050565b60208152600061288a6020830184614327565b60006020828403121561439657600080fd5b5035919050565b73ffffffffffffffffffffffffffffffffffffffff8116811461212757600080fd5b600080604083850312156143d257600080fd5b82356143dd8161439d565b946020939093013593505050565b7f4e487b7100000000000000000000000000000000000000000000000000000000600052604160045260246000fd5b604051601f82017fffffffffffffffffffffffffffffffffffffffffffffffffffffffffffffffe016810167ffffffffffffffff81118282101715614461576144616143eb565b604052919050565b600067ffffffffffffffff821115614483576144836143eb565b50601f017fffffffffffffffffffffffffffffffffffffffffffffffffffffffffffffffe01660200190565b60006144c26144bd84614469565b61441a565b90508281528383830111156144d657600080fd5b828260208301376000602084830101529392505050565b600082601f8301126144fe57600080fd5b61288a838335602085016144af565b60006020828403121561451f57600080fd5b813567ffffffffffffffff81111561453657600080fd5b612446848285016144ed565b606081016106df8284805163ffffffff908116835260208083015182169084015260409182015116910152565b60008060006060848603121561458457600080fd5b833561458f8161439d565b9250602084013561459f8161439d565b929592945050506040919091013590565b600080604083850312156145c357600080fd5b8235915060208301356145d58161439d565b809150509250929050565b6000806000606084860312156145f557600080fd5b83356146008161439d565b95602085013595506040909401359392505050565b6020808252825182820181905260009190848201906040850190845b8181101561467657614663838551805163ffffffff908116835260208083015182169084015260409182015116910152565b9284019260609290920191600101614631565b50909695505050505050565b60006020828403121561469457600080fd5b813561288a8161439d565b63ffffffff8116811461212757600080fd5b6000602082840312156146c357600080fd5b813561288a8161469f565b600080604083850312156146e157600080fd5b823567ffffffffffffffff808211156146f957600080fd5b614705868387016144ed565b9350602085013591508082111561471b57600080fd5b50614728858286016144ed565b9150509250929050565b60008060006060848603121561474757600080fd5b83356147528161439d565b92506020840135915060408401356147698161469f565b809150509250925092565b6000806040838503121561478757600080fd5b82356147928161439d565b9150602083013580151581146145d557600080fd5b600080602083850312156147ba57600080fd5b823567ffffffffffffffff808211156147d257600080fd5b818501915085601f8301126147e657600080fd5b8135818111156147f557600080fd5b8660208260051b850101111561480a57600080fd5b60209290920196919550909350505050565b6000602080830181845280855180835260408601915060408160051b870101925083870160005b8281101561488f577fffffffffffffffffffffffffffffffffffffffffffffffffffffffffffffffc088860301845261487d858351614327565b94509285019290850190600101614843565b5092979650505050505050565b600080600080606085870312156148b257600080fd5b84356148bd8161469f565b935060208501356148cd8161439d565b9250604085013567ffffffffffffffff808211156148ea57600080fd5b818701915087601f8301126148fe57600080fd5b81358181111561490d57600080fd5b88602082850101111561491f57600080fd5b95989497505060200194505050565b6000806000806080858703121561494457600080fd5b843561494f8161439d565b9350602085013561495f8161439d565b925060408501359150606085013567ffffffffffffffff81111561498257600080fd5b8501601f8101871361499357600080fd5b6149a2878235602084016144af565b91505092959194509250565b6000806000606084860312156149c357600080fd5b83356149ce8161439d565b925060208401356149de8161469f565b915060408401356147698161469f565b60008060408385031215614a0157600080fd5b8235614a0c8161469f565b9150602083013567ffffffffffffffff811115614a2857600080fd5b614728858286016144ed565b60008060408385031215614a4757600080fd5b8235614a528161439d565b915060208301356145d58161439d565b600181811c90821680614a7657607f821691505b60208210811415613fce577f4e487b7100000000000000000000000000000000000000000000000000000000600052602260045260246000fd5b7f4e487b7100000000000000000000000000000000000000000000000000000000600052601160045260246000fd5b600082821015614af157614af1614ab0565b500390565b7f4e487b7100000000000000000000000000000000000000000000000000000000600052603260045260246000fd5b60008219821115614b3857614b38614ab0565b500190565b60007fffffffffffffffffffffffffffffffffffffffffffffffffffffffffffffffff821415614b6f57614b6f614ab0565b5060010190565b7f4e487b7100000000000000000000000000000000000000000000000000000000600052603160045260246000fd5b6000808312837f800000000000000000000000000000000000000000000000000000000000000001831281151615614bdf57614bdf614ab0565b837f7fffffffffffffffffffffffffffffffffffffffffffffffffffffffffffffff018313811615614c1357614c13614ab0565b50500390565b600063ffffffff83811690831681811015614c3657614c36614ab0565b039392505050565b6000808212827f7fffffffffffffffffffffffffffffffffffffffffffffffffffffffffffffff03841381151615614c7857614c78614ab0565b827f8000000000000000000000000000000000000000000000000000000000000000038412811615614cac57614cac614ab0565b50500190565b60008083357fffffffffffffffffffffffffffffffffffffffffffffffffffffffffffffffe1843603018112614ce757600080fd5b83018035915067ffffffffffffffff821115614d0257600080fd5b602001915036819003821315614d1757600080fd5b9250929050565b63ffffffff8416815260406020820152816040820152818360608301376000818301606090810191909152601f9092017fffffffffffffffffffffffffffffffffffffffffffffffffffffffffffffffe016010192915050565b60008151614d8a8185602086016142fb565b9290920192915050565b60008251614da68184602087016142fb565b9190910192915050565b600060208284031215614dc257600080fd5b815161288a8161439d565b600060208284031215614ddf57600080fd5b5051919050565b600060208284031215614df857600080fd5b815167ffffffffffffffff811115614e0f57600080fd5b8201601f81018413614e2057600080fd5b8051614e2e6144bd82614469565b818152856020838501011115614e4357600080fd5b612e1d8260208301602086016142fb565b7f7b0000000000000000000000000000000000000000000000000000000000000081527f226e616d65223a2022434f4e5452494255544f52202300000000000000000000600182015260008551614eb2816017850160208a016142fb565b80830190507f222c2000000000000000000000000000000000000000000000000000000000008060178301527f22696d616765223a2022646174613a696d6167652f7376672b786d6c3b626173601a8301527f6536342c00000000000000000000000000000000000000000000000000000000603a8301528651614f3d81603e850160208b016142fb565b603e9201918201527f226465736372697074696f6e223a202250414e47454120436f6e74726962757460418201527f696f6e20506f696e742c2074686973204e465420726570726573656e7473206360618201527f6f6e747269627574696f6e20706f696e7420666f722050414e47454120636f6e60818201527f7472696275746f7273222c00000000000000000000000000000000000000000060a182015261504b61502261501c61501660ac85017f2261747472696275746573223a205b00000000000000000000000000000000008152600f0190565b88614d78565b86614d78565b7f5d7d000000000000000000000000000000000000000000000000000000000000815260020190565b979650505050505050565b7f646174613a6170706c69636174696f6e2f6a736f6e3b6261736536342c00000081526000825161508e81601d8501602087016142fb565b91909101601d0192915050565b7f416363657373436f6e74726f6c3a206163636f756e74200000000000000000008152600083516150d38160178501602088016142fb565b7f206973206d697373696e6720726f6c652000000000000000000000000000000060179184019182015283516151108160288401602088016142fb565b01602801949350505050565b600073ffffffffffffffffffffffffffffffffffffffff80871683528086166020840152508360408301526080606083015261515b6080830184614327565b9695505050505050565b60006020828403121561517757600080fd5b815161288a816142b0565b7f4e487b7100000000000000000000000000000000000000000000000000000000600052601260045260246000fd5b6000826151c0576151c0615182565b500490565b6000826151d4576151d4615182565b500690565b6000817fffffffffffffffffffffffffffffffffffffffffffffffffffffffffffffffff048311821515161561521157615211614ab0565b500290565b60007f800000000000000000000000000000000000000000000000000000000000000082141561524857615248614ab0565b5060000390565b7f2d000000000000000000000000000000000000000000000000000000000000008152600082516152878160018501602087016142fb565b9190910160010192915050565b7f7b22646973706c61795f74797065223a20226e756d626572222c20227472616981527f745f74797065223a226e756d4f66436f6e747269627574696f6e73222c22766160208201527f6c7565223a0000000000000000000000000000000000000000000000000000006040820152600083516153188160458501602088016142fb565b80830190507f7d000000000000000000000000000000000000000000000000000000000000008060458301527f2c7b22646973706c61795f74797065223a20226e756d626572222c202274726160468301527f69745f74797065223a22746f74616c506f696e7473222c2276616c7565223a00606683015284516153a38160858501602089016142fb565b6085920191820152608601949350505050565b6000606082840312156153c857600080fd5b6040516060810181811067ffffffffffffffff821117156153eb576153eb6143eb565b60405282516153f98161469f565b815260208301516154098161469f565b6020820152604083015161541c8161469f565b60408201529392505050565b6000835161543a8184602088016142fb565b80830190507f2c7b22646973706c61795f74797065223a202264617465222c2022747261697481527f5f74797065223a226a6f696e44617465222c2276616c7565223a0000000000006020820152835161549b81603a8401602088016142fb565b7f7d00000000000000000000000000000000000000000000000000000000000000603a9290910191820152603b01949350505050565b600084516154e38184602089016142fb565b7f2c7b2274726169745f74797065223a2200000000000000000000000000000000908301908152845161551d8160108401602089016142fb565b7f2c222c2276616c7565223a20220000000000000000000000000000000000000060109290910191820152835161555b81601d8401602088016142fb565b7f227d000000000000000000000000000000000000000000000000000000000000601d9290910191820152601f0195945050505050565b6000816155a1576155a1614ab0565b507fffffffffffffffffffffffffffffffffffffffffffffffffffffffffffffffff019056fe4142434445464748494a4b4c4d4e4f505152535455565758595a6162636465666768696a6b6c6d6e6f707172737475767778797a303132333435363738392b2f416464726573733a206c6f772d6c6576656c2064656c65676174652063616c6c206661696c6564a26469706673582212202e4e8572fe2b165810ce6cb336268eda4ef7813c373e4aefa11981df53da98dc64736f6c63430008090033",
  "libraries": {
    "SVGGenerator": "0x455b6F8486040fDCCc2aE9c9921a7cA0Dc8D0484"
  },
  "devdoc": {
    "kind": "dev",
    "methods": {
      "approve(address,uint256)": {
        "details": "See {IERC721-approve}."
      },
      "balanceOf(address)": {
        "details": "See {IERC721-balanceOf}."
      },
      "getApproved(uint256)": {
        "details": "See {IERC721-getApproved}."
      },
      "getRoleAdmin(bytes32)": {
        "details": "Returns the admin role that controls `role`. See {grantRole} and {revokeRole}. To change a role's admin, use {_setRoleAdmin}."
      },
      "grantRole(bytes32,address)": {
        "details": "Grants `role` to `account`. If `account` had not been already granted `role`, emits a {RoleGranted} event. Requirements: - the caller must have ``role``'s admin role. May emit a {RoleGranted} event."
      },
      "hasRole(bytes32,address)": {
        "details": "Returns `true` if `account` has been granted `role`."
      },
      "isApprovedForAll(address,address)": {
        "details": "See {IERC721-isApprovedForAll}."
      },
      "multicall(bytes[])": {
        "details": "Receives and executes a batch of function calls on this contract."
      },
      "name()": {
        "details": "See {IERC721Metadata-name}."
      },
      "owner()": {
        "details": "Returns the address of the current owner."
      },
      "ownerOf(uint256)": {
        "details": "See {IERC721-ownerOf}."
      },
      "renounceOwnership()": {
        "details": "Leaves the contract without owner. It will not be possible to call `onlyOwner` functions anymore. Can only be called by the current owner. NOTE: Renouncing ownership will leave the contract without an owner, thereby removing any functionality that is only available to the owner."
      },
      "renounceRole(bytes32,address)": {
        "details": "Revokes `role` from the calling account. Roles are often managed via {grantRole} and {revokeRole}: this function's purpose is to provide a mechanism for accounts to lose their privileges if they are compromised (such as when a trusted device is misplaced). If the calling account had been revoked `role`, emits a {RoleRevoked} event. Requirements: - the caller must be `account`. May emit a {RoleRevoked} event."
      },
      "revokeRole(bytes32,address)": {
        "details": "Revokes `role` from `account`. If `account` had been granted `role`, emits a {RoleRevoked} event. Requirements: - the caller must have ``role``'s admin role. May emit a {RoleRevoked} event."
      },
      "safeTransferFrom(address,address,uint256)": {
        "details": "See {IERC721-safeTransferFrom}."
      },
      "safeTransferFrom(address,address,uint256,bytes)": {
        "details": "See {IERC721-safeTransferFrom}."
      },
      "setApprovalForAll(address,bool)": {
        "details": "See {IERC721-setApprovalForAll}."
      },
      "symbol()": {
        "details": "See {IERC721Metadata-symbol}."
      },
      "transferFrom(address,address,uint256)": {
        "details": "See {IERC721-transferFrom}."
      },
      "transferOwnership(address)": {
        "details": "Transfers ownership of the contract to a new account (`newOwner`). Can only be called by the current owner."
      }
    },
    "version": 1
  },
  "userdoc": {
    "kind": "user",
    "methods": {
      "createRecord(address,uint32,uint32)": {
        "notice": "create contribution record"
      },
      "deleteRecord(address,uint256)": {
        "notice": "delete contribution record"
      },
      "tagDescription(uint32)": {
        "notice": "return contribution tag description"
      },
      "updateRecord(address,uint256,uint32)": {
        "notice": "modify contribution record"
      }
    },
    "notice": "Contribution Point membership NFT",
    "version": 1
  },
  "storageLayout": {
    "storage": [
      {
        "astId": 551,
        "contract": "contracts/ContributionPoint.sol:ContributionPoint",
        "label": "_initialized",
        "offset": 0,
        "slot": "0",
        "type": "t_uint8"
      },
      {
        "astId": 554,
        "contract": "contracts/ContributionPoint.sol:ContributionPoint",
        "label": "_initializing",
        "offset": 1,
        "slot": "0",
        "type": "t_bool"
      },
      {
        "astId": 2032,
        "contract": "contracts/ContributionPoint.sol:ContributionPoint",
        "label": "__gap",
        "offset": 0,
        "slot": "1",
        "type": "t_array(t_uint256)50_storage"
      },
      {
        "astId": 2411,
        "contract": "contracts/ContributionPoint.sol:ContributionPoint",
        "label": "__gap",
        "offset": 0,
        "slot": "51",
        "type": "t_array(t_uint256)50_storage"
      },
      {
        "astId": 724,
        "contract": "contracts/ContributionPoint.sol:ContributionPoint",
        "label": "_name",
        "offset": 0,
        "slot": "101",
        "type": "t_string_storage"
      },
      {
        "astId": 726,
        "contract": "contracts/ContributionPoint.sol:ContributionPoint",
        "label": "_symbol",
        "offset": 0,
        "slot": "102",
        "type": "t_string_storage"
      },
      {
        "astId": 730,
        "contract": "contracts/ContributionPoint.sol:ContributionPoint",
        "label": "_owners",
        "offset": 0,
        "slot": "103",
        "type": "t_mapping(t_uint256,t_address)"
      },
      {
        "astId": 734,
        "contract": "contracts/ContributionPoint.sol:ContributionPoint",
        "label": "_balances",
        "offset": 0,
        "slot": "104",
        "type": "t_mapping(t_address,t_uint256)"
      },
      {
        "astId": 738,
        "contract": "contracts/ContributionPoint.sol:ContributionPoint",
        "label": "_tokenApprovals",
        "offset": 0,
        "slot": "105",
        "type": "t_mapping(t_uint256,t_address)"
      },
      {
        "astId": 744,
        "contract": "contracts/ContributionPoint.sol:ContributionPoint",
        "label": "_operatorApprovals",
        "offset": 0,
        "slot": "106",
        "type": "t_mapping(t_address,t_mapping(t_address,t_bool))"
      },
      {
        "astId": 1586,
        "contract": "contracts/ContributionPoint.sol:ContributionPoint",
        "label": "__gap",
        "offset": 0,
        "slot": "107",
        "type": "t_array(t_uint256)44_storage"
      },
      {
        "astId": 39,
        "contract": "contracts/ContributionPoint.sol:ContributionPoint",
        "label": "_roles",
        "offset": 0,
        "slot": "151",
        "type": "t_mapping(t_bytes32,t_struct(RoleData)34_storage)"
      },
      {
        "astId": 338,
        "contract": "contracts/ContributionPoint.sol:ContributionPoint",
        "label": "__gap",
        "offset": 0,
        "slot": "152",
        "type": "t_array(t_uint256)49_storage"
      },
      {
        "astId": 2141,
        "contract": "contracts/ContributionPoint.sol:ContributionPoint",
        "label": "__gap",
        "offset": 0,
        "slot": "201",
        "type": "t_array(t_uint256)50_storage"
      },
      {
        "astId": 423,
        "contract": "contracts/ContributionPoint.sol:ContributionPoint",
        "label": "_owner",
        "offset": 0,
        "slot": "251",
        "type": "t_address"
      },
      {
        "astId": 543,
        "contract": "contracts/ContributionPoint.sol:ContributionPoint",
        "label": "__gap",
        "offset": 0,
        "slot": "252",
        "type": "t_array(t_uint256)49_storage"
      },
      {
        "astId": 3367,
        "contract": "contracts/ContributionPoint.sol:ContributionPoint",
        "label": "_contributionRecords",
        "offset": 0,
        "slot": "301",
        "type": "t_mapping(t_address,t_array(t_struct(ContributionRecord)4657_storage)dyn_storage)"
      },
      {
        "astId": 3371,
        "contract": "contracts/ContributionPoint.sol:ContributionPoint",
        "label": "_pointOf",
        "offset": 0,
        "slot": "302",
        "type": "t_mapping(t_address,t_int256)"
      },
      {
        "astId": 3374,
        "contract": "contracts/ContributionPoint.sol:ContributionPoint",
        "label": "_tagDescriptions",
        "offset": 0,
        "slot": "303",
        "type": "t_array(t_string_storage)dyn_storage"
      },
      {
        "astId": 3378,
        "contract": "contracts/ContributionPoint.sol:ContributionPoint",
        "label": "_contributorIdOf",
        "offset": 0,
        "slot": "304",
        "type": "t_mapping(t_address,t_uint256)"
      },
      {
        "astId": 3380,
        "contract": "contracts/ContributionPoint.sol:ContributionPoint",
        "label": "_contributorCounter",
        "offset": 0,
        "slot": "305",
        "type": "t_uint256"
      }
    ],
    "types": {
      "t_address": {
        "encoding": "inplace",
        "label": "address",
        "numberOfBytes": "20"
      },
      "t_array(t_string_storage)dyn_storage": {
        "base": "t_string_storage",
        "encoding": "dynamic_array",
        "label": "string[]",
        "numberOfBytes": "32"
      },
      "t_array(t_struct(ContributionRecord)4657_storage)dyn_storage": {
        "base": "t_struct(ContributionRecord)4657_storage",
        "encoding": "dynamic_array",
        "label": "struct IContributionStruct.ContributionRecord[]",
        "numberOfBytes": "32"
      },
      "t_array(t_uint256)44_storage": {
        "base": "t_uint256",
        "encoding": "inplace",
        "label": "uint256[44]",
        "numberOfBytes": "1408"
      },
      "t_array(t_uint256)49_storage": {
        "base": "t_uint256",
        "encoding": "inplace",
        "label": "uint256[49]",
        "numberOfBytes": "1568"
      },
      "t_array(t_uint256)50_storage": {
        "base": "t_uint256",
        "encoding": "inplace",
        "label": "uint256[50]",
        "numberOfBytes": "1600"
      },
      "t_bool": {
        "encoding": "inplace",
        "label": "bool",
        "numberOfBytes": "1"
      },
      "t_bytes32": {
        "encoding": "inplace",
        "label": "bytes32",
        "numberOfBytes": "32"
      },
      "t_int256": {
        "encoding": "inplace",
        "label": "int256",
        "numberOfBytes": "32"
      },
      "t_mapping(t_address,t_array(t_struct(ContributionRecord)4657_storage)dyn_storage)": {
        "encoding": "mapping",
        "key": "t_address",
        "label": "mapping(address => struct IContributionStruct.ContributionRecord[])",
        "numberOfBytes": "32",
        "value": "t_array(t_struct(ContributionRecord)4657_storage)dyn_storage"
      },
      "t_mapping(t_address,t_bool)": {
        "encoding": "mapping",
        "key": "t_address",
        "label": "mapping(address => bool)",
        "numberOfBytes": "32",
        "value": "t_bool"
      },
      "t_mapping(t_address,t_int256)": {
        "encoding": "mapping",
        "key": "t_address",
        "label": "mapping(address => int256)",
        "numberOfBytes": "32",
        "value": "t_int256"
      },
      "t_mapping(t_address,t_mapping(t_address,t_bool))": {
        "encoding": "mapping",
        "key": "t_address",
        "label": "mapping(address => mapping(address => bool))",
        "numberOfBytes": "32",
        "value": "t_mapping(t_address,t_bool)"
      },
      "t_mapping(t_address,t_uint256)": {
        "encoding": "mapping",
        "key": "t_address",
        "label": "mapping(address => uint256)",
        "numberOfBytes": "32",
        "value": "t_uint256"
      },
      "t_mapping(t_bytes32,t_struct(RoleData)34_storage)": {
        "encoding": "mapping",
        "key": "t_bytes32",
        "label": "mapping(bytes32 => struct AccessControlUpgradeable.RoleData)",
        "numberOfBytes": "32",
        "value": "t_struct(RoleData)34_storage"
      },
      "t_mapping(t_uint256,t_address)": {
        "encoding": "mapping",
        "key": "t_uint256",
        "label": "mapping(uint256 => address)",
        "numberOfBytes": "32",
        "value": "t_address"
      },
      "t_string_storage": {
        "encoding": "bytes",
        "label": "string",
        "numberOfBytes": "32"
      },
      "t_struct(ContributionRecord)4657_storage": {
        "encoding": "inplace",
        "label": "struct IContributionStruct.ContributionRecord",
        "members": [
          {
            "astId": 4652,
            "contract": "contracts/ContributionPoint.sol:ContributionPoint",
            "label": "tagId",
            "offset": 0,
            "slot": "0",
            "type": "t_uint32"
          },
          {
            "astId": 4654,
            "contract": "contracts/ContributionPoint.sol:ContributionPoint",
            "label": "time",
            "offset": 4,
            "slot": "0",
            "type": "t_uint32"
          },
          {
            "astId": 4656,
            "contract": "contracts/ContributionPoint.sol:ContributionPoint",
            "label": "point",
            "offset": 8,
            "slot": "0",
            "type": "t_uint32"
          }
        ],
        "numberOfBytes": "32"
      },
      "t_struct(RoleData)34_storage": {
        "encoding": "inplace",
        "label": "struct AccessControlUpgradeable.RoleData",
        "members": [
          {
            "astId": 31,
            "contract": "contracts/ContributionPoint.sol:ContributionPoint",
            "label": "members",
            "offset": 0,
            "slot": "0",
            "type": "t_mapping(t_address,t_bool)"
          },
          {
            "astId": 33,
            "contract": "contracts/ContributionPoint.sol:ContributionPoint",
            "label": "adminRole",
            "offset": 0,
            "slot": "1",
            "type": "t_bytes32"
          }
        ],
        "numberOfBytes": "64"
      },
      "t_uint256": {
        "encoding": "inplace",
        "label": "uint256",
        "numberOfBytes": "32"
      },
      "t_uint32": {
        "encoding": "inplace",
        "label": "uint32",
        "numberOfBytes": "4"
      },
      "t_uint8": {
        "encoding": "inplace",
        "label": "uint8",
        "numberOfBytes": "1"
      }
    }
  }
}