{
  "address": "0x9d770a6dE65aEAff2558398EbFdDCa9A6221ee1f",
  "abi": [
    {
      "anonymous": false,
      "inputs": [
        {
          "indexed": true,
          "internalType": "address",
          "name": "owner",
          "type": "address"
        },
        {
          "indexed": true,
          "internalType": "address",
          "name": "approved",
          "type": "address"
        },
        {
          "indexed": true,
          "internalType": "uint256",
          "name": "tokenId",
          "type": "uint256"
        }
      ],
      "name": "Approval",
      "type": "event"
    },
    {
      "anonymous": false,
      "inputs": [
        {
          "indexed": true,
          "internalType": "address",
          "name": "owner",
          "type": "address"
        },
        {
          "indexed": true,
          "internalType": "address",
          "name": "operator",
          "type": "address"
        },
        {
          "indexed": false,
          "internalType": "bool",
          "name": "approved",
          "type": "bool"
        }
      ],
      "name": "ApprovalForAll",
      "type": "event"
    },
    {
      "anonymous": false,
      "inputs": [
        {
          "indexed": false,
          "internalType": "uint8",
          "name": "version",
          "type": "uint8"
        }
      ],
      "name": "Initialized",
      "type": "event"
    },
    {
      "anonymous": false,
      "inputs": [
        {
          "indexed": true,
          "internalType": "bytes32",
          "name": "role",
          "type": "bytes32"
        },
        {
          "indexed": true,
          "internalType": "bytes32",
          "name": "previousAdminRole",
          "type": "bytes32"
        },
        {
          "indexed": true,
          "internalType": "bytes32",
          "name": "newAdminRole",
          "type": "bytes32"
        }
      ],
      "name": "RoleAdminChanged",
      "type": "event"
    },
    {
      "anonymous": false,
      "inputs": [
        {
          "indexed": true,
          "internalType": "bytes32",
          "name": "role",
          "type": "bytes32"
        },
        {
          "indexed": true,
          "internalType": "address",
          "name": "account",
          "type": "address"
        },
        {
          "indexed": true,
          "internalType": "address",
          "name": "sender",
          "type": "address"
        }
      ],
      "name": "RoleGranted",
      "type": "event"
    },
    {
      "anonymous": false,
      "inputs": [
        {
          "indexed": true,
          "internalType": "bytes32",
          "name": "role",
          "type": "bytes32"
        },
        {
          "indexed": true,
          "internalType": "address",
          "name": "account",
          "type": "address"
        },
        {
          "indexed": true,
          "internalType": "address",
          "name": "sender",
          "type": "address"
        }
      ],
      "name": "RoleRevoked",
      "type": "event"
    },
    {
      "anonymous": false,
      "inputs": [
        {
          "indexed": true,
          "internalType": "address",
          "name": "from",
          "type": "address"
        },
        {
          "indexed": true,
          "internalType": "address",
          "name": "to",
          "type": "address"
        },
        {
          "indexed": true,
          "internalType": "uint256",
          "name": "tokenId",
          "type": "uint256"
        }
      ],
      "name": "Transfer",
      "type": "event"
    },
    {
      "inputs": [],
      "name": "DEFAULT_ADMIN_ROLE",
      "outputs": [
        {
          "internalType": "bytes32",
          "name": "",
          "type": "bytes32"
        }
      ],
      "stateMutability": "view",
      "type": "function"
    },
    {
      "inputs": [],
      "name": "MANAGER_ROLE",
      "outputs": [
        {
          "internalType": "bytes32",
          "name": "",
          "type": "bytes32"
        }
      ],
      "stateMutability": "view",
      "type": "function"
    },
    {
      "inputs": [
        {
          "internalType": "address",
          "name": "to",
          "type": "address"
        },
        {
          "internalType": "uint256",
          "name": "tokenId",
          "type": "uint256"
        }
      ],
      "name": "approve",
      "outputs": [],
      "stateMutability": "nonpayable",
      "type": "function"
    },
    {
      "inputs": [
        {
          "internalType": "address",
          "name": "owner",
          "type": "address"
        }
      ],
      "name": "balanceOf",
      "outputs": [
        {
          "internalType": "uint256",
          "name": "",
          "type": "uint256"
        }
      ],
      "stateMutability": "view",
      "type": "function"
    },
    {
      "inputs": [
        {
          "internalType": "address",
          "name": "contributor",
          "type": "address"
        }
      ],
      "name": "contributionPointOf",
      "outputs": [
        {
          "internalType": "int256",
          "name": "",
          "type": "int256"
        }
      ],
      "stateMutability": "view",
      "type": "function"
    },
    {
      "inputs": [
        {
          "internalType": "address",
          "name": "contributor",
          "type": "address"
        },
        {
          "internalType": "uint256",
          "name": "orderId",
          "type": "uint256"
        }
      ],
      "name": "contributionRecordByIndex",
      "outputs": [
        {
          "components": [
            {
              "internalType": "uint32",
              "name": "tagId",
              "type": "uint32"
            },
            {
              "internalType": "uint32",
              "name": "time",
              "type": "uint32"
            },
            {
              "internalType": "uint32",
              "name": "point",
              "type": "uint32"
            }
          ],
          "internalType": "struct IContributionStruct.ContributionRecord",
          "name": "",
          "type": "tuple"
        }
      ],
      "stateMutability": "view",
      "type": "function"
    },
    {
      "inputs": [
        {
          "internalType": "address",
          "name": "contributor",
          "type": "address"
        }
      ],
      "name": "contributionRecordCounts",
      "outputs": [
        {
          "internalType": "uint256",
          "name": "",
          "type": "uint256"
        }
      ],
      "stateMutability": "view",
      "type": "function"
    },
    {
      "inputs": [
        {
          "internalType": "address",
          "name": "contributor",
          "type": "address"
        },
        {
          "internalType": "uint256",
          "name": "start",
          "type": "uint256"
        },
        {
          "internalType": "uint256",
          "name": "nums",
          "type": "uint256"
        }
      ],
      "name": "contributionRecords",
      "outputs": [
        {
          "components": [
            {
              "internalType": "uint32",
              "name": "tagId",
              "type": "uint32"
            },
            {
              "internalType": "uint32",
              "name": "time",
              "type": "uint32"
            },
            {
              "internalType": "uint32",
              "name": "point",
              "type": "uint32"
            }
          ],
          "internalType": "struct IContributionStruct.ContributionRecord[]",
          "name": "records",
          "type": "tuple[]"
        }
      ],
      "stateMutability": "view",
      "type": "function"
    },
    {
      "inputs": [
        {
          "internalType": "address",
          "name": "contributor",
          "type": "address"
        }
      ],
      "name": "contributorIdOf",
      "outputs": [
        {
          "internalType": "uint256",
          "name": "",
          "type": "uint256"
        }
      ],
      "stateMutability": "view",
      "type": "function"
    },
    {
      "inputs": [
        {
          "internalType": "address",
          "name": "contributor",
          "type": "address"
        },
        {
          "internalType": "uint32",
          "name": "tagId",
          "type": "uint32"
        },
        {
          "internalType": "uint32",
          "name": "point",
          "type": "uint32"
        }
      ],
      "name": "createRecord",
      "outputs": [],
      "stateMutability": "nonpayable",
      "type": "function"
    },
    {
      "inputs": [
        {
          "internalType": "string",
          "name": "desc",
          "type": "string"
        }
      ],
      "name": "createTag",
      "outputs": [
        {
          "internalType": "uint32",
          "name": "tagId",
          "type": "uint32"
        }
      ],
      "stateMutability": "nonpayable",
      "type": "function"
    },
    {
      "inputs": [
        {
          "internalType": "address",
          "name": "contributor",
          "type": "address"
        },
        {
          "internalType": "uint256",
          "name": "orderId",
          "type": "uint256"
        }
      ],
      "name": "deleteRecord",
      "outputs": [
        {
          "components": [
            {
              "internalType": "uint32",
              "name": "tagId",
              "type": "uint32"
            },
            {
              "internalType": "uint32",
              "name": "time",
              "type": "uint32"
            },
            {
              "internalType": "uint32",
              "name": "point",
              "type": "uint32"
            }
          ],
          "internalType": "struct IContributionStruct.ContributionRecord",
          "name": "record",
          "type": "tuple"
        }
      ],
      "stateMutability": "nonpayable",
      "type": "function"
    },
    {
      "inputs": [
        {
          "internalType": "uint256",
          "name": "tokenId",
          "type": "uint256"
        }
      ],
      "name": "getApproved",
      "outputs": [
        {
          "internalType": "address",
          "name": "",
          "type": "address"
        }
      ],
      "stateMutability": "view",
      "type": "function"
    },
    {
      "inputs": [
        {
          "internalType": "bytes32",
          "name": "role",
          "type": "bytes32"
        }
      ],
      "name": "getRoleAdmin",
      "outputs": [
        {
          "internalType": "bytes32",
          "name": "",
          "type": "bytes32"
        }
      ],
      "stateMutability": "view",
      "type": "function"
    },
    {
      "inputs": [
        {
          "internalType": "bytes32",
          "name": "role",
          "type": "bytes32"
        },
        {
          "internalType": "address",
          "name": "account",
          "type": "address"
        }
      ],
      "name": "grantRole",
      "outputs": [],
      "stateMutability": "nonpayable",
      "type": "function"
    },
    {
      "inputs": [
        {
          "internalType": "bytes32",
          "name": "role",
          "type": "bytes32"
        },
        {
          "internalType": "address",
          "name": "account",
          "type": "address"
        }
      ],
      "name": "hasRole",
      "outputs": [
        {
          "internalType": "bool",
          "name": "",
          "type": "bool"
        }
      ],
      "stateMutability": "view",
      "type": "function"
    },
    {
      "inputs": [
        {
          "internalType": "string",
          "name": "name_",
          "type": "string"
        },
        {
          "internalType": "string",
          "name": "symbol_",
          "type": "string"
        }
      ],
      "name": "initialize",
      "outputs": [],
      "stateMutability": "nonpayable",
      "type": "function"
    },
    {
      "inputs": [
        {
          "internalType": "address",
          "name": "owner",
          "type": "address"
        },
        {
          "internalType": "address",
          "name": "operator",
          "type": "address"
        }
      ],
      "name": "isApprovedForAll",
      "outputs": [
        {
          "internalType": "bool",
          "name": "",
          "type": "bool"
        }
      ],
      "stateMutability": "view",
      "type": "function"
    },
    {
      "inputs": [
        {
          "internalType": "bytes[]",
          "name": "data",
          "type": "bytes[]"
        }
      ],
      "name": "multicall",
      "outputs": [
        {
          "internalType": "bytes[]",
          "name": "results",
          "type": "bytes[]"
        }
      ],
      "stateMutability": "nonpayable",
      "type": "function"
    },
    {
      "inputs": [],
      "name": "name",
      "outputs": [
        {
          "internalType": "string",
          "name": "",
          "type": "string"
        }
      ],
      "stateMutability": "view",
      "type": "function"
    },
    {
      "inputs": [
        {
          "internalType": "uint256",
          "name": "tokenId",
          "type": "uint256"
        }
      ],
      "name": "ownerOf",
      "outputs": [
        {
          "internalType": "address",
          "name": "",
          "type": "address"
        }
      ],
      "stateMutability": "view",
      "type": "function"
    },
    {
      "inputs": [
        {
          "internalType": "bytes32",
          "name": "role",
          "type": "bytes32"
        },
        {
          "internalType": "address",
          "name": "account",
          "type": "address"
        }
      ],
      "name": "renounceRole",
      "outputs": [],
      "stateMutability": "nonpayable",
      "type": "function"
    },
    {
      "inputs": [
        {
          "internalType": "bytes32",
          "name": "role",
          "type": "bytes32"
        },
        {
          "internalType": "address",
          "name": "account",
          "type": "address"
        }
      ],
      "name": "revokeRole",
      "outputs": [],
      "stateMutability": "nonpayable",
      "type": "function"
    },
    {
      "inputs": [
        {
          "internalType": "address",
          "name": "from",
          "type": "address"
        },
        {
          "internalType": "address",
          "name": "to",
          "type": "address"
        },
        {
          "internalType": "uint256",
          "name": "tokenId",
          "type": "uint256"
        }
      ],
      "name": "safeTransferFrom",
      "outputs": [],
      "stateMutability": "nonpayable",
      "type": "function"
    },
    {
      "inputs": [
        {
          "internalType": "address",
          "name": "from",
          "type": "address"
        },
        {
          "internalType": "address",
          "name": "to",
          "type": "address"
        },
        {
          "internalType": "uint256",
          "name": "tokenId",
          "type": "uint256"
        },
        {
          "internalType": "bytes",
          "name": "data",
          "type": "bytes"
        }
      ],
      "name": "safeTransferFrom",
      "outputs": [],
      "stateMutability": "nonpayable",
      "type": "function"
    },
    {
      "inputs": [
        {
          "internalType": "address",
          "name": "operator",
          "type": "address"
        },
        {
          "internalType": "bool",
          "name": "approved",
          "type": "bool"
        }
      ],
      "name": "setApprovalForAll",
      "outputs": [],
      "stateMutability": "nonpayable",
      "type": "function"
    },
    {
      "inputs": [
        {
          "internalType": "bytes4",
          "name": "interfaceId",
          "type": "bytes4"
        }
      ],
      "name": "supportsInterface",
      "outputs": [
        {
          "internalType": "bool",
          "name": "",
          "type": "bool"
        }
      ],
      "stateMutability": "view",
      "type": "function"
    },
    {
      "inputs": [],
      "name": "symbol",
      "outputs": [
        {
          "internalType": "string",
          "name": "",
          "type": "string"
        }
      ],
      "stateMutability": "view",
      "type": "function"
    },
    {
      "inputs": [
        {
          "internalType": "uint32",
          "name": "tagId",
          "type": "uint32"
        }
      ],
      "name": "tagDescription",
      "outputs": [
        {
          "internalType": "string",
          "name": "",
          "type": "string"
        }
      ],
      "stateMutability": "view",
      "type": "function"
    },
    {
      "inputs": [
        {
          "internalType": "uint256",
          "name": "contributorId",
          "type": "uint256"
        }
      ],
      "name": "tokenURI",
      "outputs": [
        {
          "internalType": "string",
          "name": "",
          "type": "string"
        }
      ],
      "stateMutability": "view",
      "type": "function"
    },
    {
      "inputs": [],
      "name": "totalSupply",
      "outputs": [
        {
          "internalType": "uint256",
          "name": "",
          "type": "uint256"
        }
      ],
      "stateMutability": "view",
      "type": "function"
    },
    {
      "inputs": [],
      "name": "totalTags",
      "outputs": [
        {
          "internalType": "uint256",
          "name": "",
          "type": "uint256"
        }
      ],
      "stateMutability": "view",
      "type": "function"
    },
    {
      "inputs": [
        {
          "internalType": "address",
          "name": "from",
          "type": "address"
        },
        {
          "internalType": "address",
          "name": "to",
          "type": "address"
        },
        {
          "internalType": "uint256",
          "name": "tokenId",
          "type": "uint256"
        }
      ],
      "name": "transferFrom",
      "outputs": [],
      "stateMutability": "nonpayable",
      "type": "function"
    },
    {
      "inputs": [
        {
          "internalType": "address",
          "name": "contributor",
          "type": "address"
        },
        {
          "internalType": "uint256",
          "name": "orderId",
          "type": "uint256"
        },
        {
          "internalType": "uint32",
          "name": "point",
          "type": "uint32"
        }
      ],
      "name": "updateRecord",
      "outputs": [],
      "stateMutability": "nonpayable",
      "type": "function"
    },
    {
      "inputs": [
        {
          "internalType": "uint32",
          "name": "tagId",
          "type": "uint32"
        },
        {
          "internalType": "string",
          "name": "desc",
          "type": "string"
        }
      ],
      "name": "updateTagDescription",
      "outputs": [],
      "stateMutability": "nonpayable",
      "type": "function"
    },
    {
      "inputs": [
        {
          "internalType": "uint32",
          "name": "amount",
          "type": "uint32"
        },
        {
          "internalType": "address",
          "name": "to",
          "type": "address"
        },
        {
          "internalType": "bytes",
          "name": "data",
          "type": "bytes"
        }
      ],
      "name": "usePoint",
      "outputs": [],
      "stateMutability": "nonpayable",
      "type": "function"
    }
  ],
  "transactionHash": "0x6bcb8501b5e7a7c0cef046bbf9a0de471e34b602c69b18215693f612ef29859a",
  "args": [],
  "numDeployments": 4,
  "solcInputHash": "b37f5488c60dcec25f5eb6de756f4f80",
  "bytecode": "0x608060405234801561001057600080fd5b50614ca6806100206000396000f3fe608060405234801561001057600080fd5b506004361061025b5760003560e01c806367cf96aa11610145578063b88d4fde116100bd578063d547741f1161008c578063e985e9c511610071578063e985e9c5146105b4578063ec87621c146105fd578063f02ab9871461062457600080fd5b8063d547741f1461058e578063dc9adfa8146105a157600080fd5b8063b88d4fde1461051f578063c185bd1014610532578063c87b56dd14610545578063c9ddc2641461055857600080fd5b806395d89b4111610114578063a22cb465116100f9578063a22cb465146104d9578063ac9650d8146104ec578063b85891ea1461050c57600080fd5b806395d89b41146104c9578063a217fddf146104d157600080fd5b806367cf96aa1461044a57806370a082311461045d5780637a6d40031461047057806391d148541461048357600080fd5b8063248a9ca3116101d85780633f6782d2116101a75780634585cdc11161018c5780634585cdc1146104115780634cd88b76146104245780636352211e1461043757600080fd5b80633f6782d2146103c857806342842e0e146103fe57600080fd5b8063248a9ca31461035f5780632f2ff15d1461038257806336568abe146103955780633be09cb7146103a857600080fd5b8063095ea7b31161022f5780631f36d212116102145780631f36d21214610304578063210661b71461032c57806323b872dd1461034c57600080fd5b8063095ea7b3146102e757806318160ddd146102fc57600080fd5b8062e9236f1461026057806301ffc9a71461027757806306fdde031461029a578063081812fc146102af575b600080fd5b60fd545b6040519081526020015b60405180910390f35b61028a610285366004613b05565b610637565b604051901515815260200161026e565b6102a2610657565b60405161026e9190613b98565b6102c26102bd366004613bab565b6106e9565b60405173ffffffffffffffffffffffffffffffffffffffff909116815260200161026e565b6102fa6102f5366004613be8565b61071d565b005b60ff54610264565b610317610312366004613cf5565b6108af565b60405163ffffffff909116815260200161026e565b61033f61033a366004613be8565b6109b1565b60405161026e9190613d2a565b6102fa61035a366004613d57565b610cb2565b61026461036d366004613bab565b60009081526097602052604090206001015490565b6102fa610390366004613d93565b610d53565b6102fa6103a3366004613d93565b610d78565b6103bb6103b6366004613dbf565b610e2b565b60405161026e9190613df2565b6102646103d6366004613e5f565b73ffffffffffffffffffffffffffffffffffffffff16600090815260fb602052604090205490565b6102fa61040c366004613d57565b611069565b6102a261041f366004613e8e565b611084565b6102fa610432366004613ea9565b611139565b6102c2610445366004613bab565b6112f2565b610264610458366004613e5f565b61137e565b61026461046b366004613e5f565b61141a565b6102fa61047e366004613f0d565b6114e8565b61028a610491366004613d93565b600091825260976020908152604080842073ffffffffffffffffffffffffffffffffffffffff93909316845291905290205460ff1690565b6102a2611805565b610264600081565b6102fa6104e7366004613f49565b611814565b6104ff6104fa366004613f85565b61181f565b60405161026e9190613ffa565b6102fa61051a36600461407a565b611914565b6102fa61052d366004614108565b611a58565b6102fa610540366004614184565b611afa565b6102a2610553366004613bab565b611da9565b610264610566366004613e5f565b73ffffffffffffffffffffffffffffffffffffffff16600090815260fc602052604090205490565b6102fa61059c366004613d93565b611e29565b6102fa6105af3660046141be565b611e4e565b61028a6105c2366004614202565b73ffffffffffffffffffffffffffffffffffffffff9182166000908152606a6020908152604080832093909416825291909152205460ff1690565b6102647faf290d8680820aad922855f39b306097b20e28774d6c1ad35a20325630c3a02c81565b61033f610632366004613be8565b611f8e565b60006106428261202e565b80610651575061065182612111565b92915050565b6060606580546106669061422c565b80601f01602080910402602001604051908101604052809291908181526020018280546106929061422c565b80156106df5780601f106106b4576101008083540402835291602001916106df565b820191906000526020600020905b8154815290600101906020018083116106c257829003601f168201915b5050505050905090565b60006106f482612167565b5060009081526069602052604090205473ffffffffffffffffffffffffffffffffffffffff1690565b6000610728826112f2565b90508073ffffffffffffffffffffffffffffffffffffffff168373ffffffffffffffffffffffffffffffffffffffff1614156107eb576040517f08c379a000000000000000000000000000000000000000000000000000000000815260206004820152602160248201527f4552433732313a20617070726f76616c20746f2063757272656e74206f776e6560448201527f720000000000000000000000000000000000000000000000000000000000000060648201526084015b60405180910390fd5b3373ffffffffffffffffffffffffffffffffffffffff82161480610814575061081481336105c2565b6108a0576040517f08c379a000000000000000000000000000000000000000000000000000000000815260206004820152603e60248201527f4552433732313a20617070726f76652063616c6c6572206973206e6f7420746f60448201527f6b656e206f776e6572206e6f7220617070726f76656420666f7220616c6c000060648201526084016107e2565b6108aa83836121f5565b505050565b3360009081527fe0601880cdabed0469f97fd15da07fe74fbbb126935f404539f62180845d005f602052604081205460ff16610947576040517f08c379a000000000000000000000000000000000000000000000000000000000815260206004820152600c60248201527f4f4e4c59204d414e41474552000000000000000000000000000000000000000060448201526064016107e2565b60fd5463ffffffff1161095957600080fd5b60fd8054600181018255600091909152825161099c917f9346ac6dd7de6b96975fec380d4d994c4c12e6a8897544f22915316cc6cca28001906020850190613a3e565b5060fd54610651906001906142a9565b919050565b60408051606081018252600080825260208083018290528284018290523382527fe0601880cdabed0469f97fd15da07fe74fbbb126935f404539f62180845d005f9052919091205460ff16610a62576040517f08c379a000000000000000000000000000000000000000000000000000000000815260206004820152600c60248201527f4f4e4c59204d414e41474552000000000000000000000000000000000000000060448201526064016107e2565b73ffffffffffffffffffffffffffffffffffffffff8316600090815260fb602052604090208054819084908110610a9b57610a9b6142c0565b600091825260209182902060408051606081018252919092015463ffffffff80821683526401000000008204811694830194909452680100000000000000009004909216908201529150825b8154610af5906001906142a9565b811015610bfc5781610b088260016142ef565b81548110610b1857610b186142c0565b90600052602060002001828281548110610b3457610b346142c0565b6000918252602090912082549101805463ffffffff9283167fffffffffffffffffffffffffffffffffffffffffffffffffffffffff0000000082168117835584547fffffffffffffffffffffffffffffffffffffffffffffffff0000000000000000909216176401000000009182900484169091021780825592547fffffffffffffffffffffffffffffffffffffffff00000000ffffffffffffffff909316680100000000000000009384900490921690920217905580610bf481614307565b915050610ae7565b5080805480610c0d57610c0d614340565b6000828152602090207fffffffffffffffffffffffffffffffffffffffffffffffffffffffffffffffff908201810180547fffffffffffffffffffffffffffffffffffffffff000000000000000000000000169055019055604082015163ffffffff1673ffffffffffffffffffffffffffffffffffffffff8516600090815260fc602052604081208054909190610ca590849061436f565b9091555091949350505050565b610cbc3382612295565b610d48576040517f08c379a000000000000000000000000000000000000000000000000000000000815260206004820152602e60248201527f4552433732313a2063616c6c6572206973206e6f7420746f6b656e206f776e6560448201527f72206e6f7220617070726f76656400000000000000000000000000000000000060648201526084016107e2565b6108aa838383612355565b600082815260976020526040902060010154610d6e816125c7565b6108aa83836125d1565b73ffffffffffffffffffffffffffffffffffffffff81163314610e1d576040517f08c379a000000000000000000000000000000000000000000000000000000000815260206004820152602f60248201527f416363657373436f6e74726f6c3a2063616e206f6e6c792072656e6f756e636560448201527f20726f6c657320666f722073656c66000000000000000000000000000000000060648201526084016107e2565b610e2782826126c5565b5050565b73ffffffffffffffffffffffffffffffffffffffff8316600090815260fb60209081526040808320805482518185028101850190935280835260609493849084015b82821015610ec6576000848152602090819020604080516060810182529185015463ffffffff80821684526401000000008204811684860152680100000000000000009091041690820152825260019092019101610e6d565b5050505090506000610efc60018587610edf91906142ef565b610ee991906142a9565b60018451610ef791906142a9565b612780565b905080851115610f68576040517f08c379a000000000000000000000000000000000000000000000000000000000815260206004820152600a60248201527f4e4f205245434f5244530000000000000000000000000000000000000000000060448201526064016107e2565b610f7285826142a9565b610f7d9060016142ef565b67ffffffffffffffff811115610f9557610f95613c12565b604051908082528060200260200182016040528015610ffe57816020015b60408051606081018252600080825260208083018290529282015282527fffffffffffffffffffffffffffffffffffffffffffffffffffffffffffffffff909201910181610fb35790505b509250845b81811161105f5782818151811061101c5761101c6142c0565b602002602001015184878361103191906142a9565b81518110611041576110416142c0565b6020026020010181905250808061105790614307565b915050611003565b5050509392505050565b6108aa83838360405180602001604052806000815250611a58565b606060fd8263ffffffff168154811061109f5761109f6142c0565b9060005260206000200180546110b49061422c565b80601f01602080910402602001604051908101604052809291908181526020018280546110e09061422c565b801561112d5780601f106111025761010080835404028352916020019161112d565b820191906000526020600020905b81548152906001019060200180831161111057829003601f168201915b50505050509050919050565b600054610100900460ff16158080156111595750600054600160ff909116105b806111735750303b158015611173575060005460ff166001145b6111ff576040517f08c379a000000000000000000000000000000000000000000000000000000000815260206004820152602e60248201527f496e697469616c697a61626c653a20636f6e747261637420697320616c72656160448201527f647920696e697469616c697a656400000000000000000000000000000000000060648201526084016107e2565b600080547fffffffffffffffffffffffffffffffffffffffffffffffffffffffffffffff00166001179055801561125d57600080547fffffffffffffffffffffffffffffffffffffffffffffffffffffffffffff00ff166101001790555b6112678383612798565b61126f612839565b611277612839565b6112826000336128d2565b61128b336128dc565b80156108aa57600080547fffffffffffffffffffffffffffffffffffffffffffffffffffffffffffff00ff169055604051600181527f7f26b83ff96e1f2b6a682f133852f6798a09c465da95921460cefb38474024989060200160405180910390a1505050565b60008181526067602052604081205473ffffffffffffffffffffffffffffffffffffffff1680610651576040517f08c379a000000000000000000000000000000000000000000000000000000000815260206004820152601860248201527f4552433732313a20696e76616c696420746f6b656e204944000000000000000060448201526064016107e2565b60008061138a8361141a565b116113f1576040517f08c379a000000000000000000000000000000000000000000000000000000000815260206004820152600d60248201527f4e4f204d454d424552534849500000000000000000000000000000000000000060448201526064016107e2565b5073ffffffffffffffffffffffffffffffffffffffff16600090815260fe602052604090205490565b600073ffffffffffffffffffffffffffffffffffffffff82166114bf576040517f08c379a000000000000000000000000000000000000000000000000000000000815260206004820152602960248201527f4552433732313a2061646472657373207a65726f206973206e6f74206120766160448201527f6c6964206f776e6572000000000000000000000000000000000000000000000060648201526084016107e2565b5073ffffffffffffffffffffffffffffffffffffffff1660009081526068602052604090205490565b3360009081527fe0601880cdabed0469f97fd15da07fe74fbbb126935f404539f62180845d005f602052604090205460ff16611580576040517f08c379a000000000000000000000000000000000000000000000000000000000815260206004820152600c60248201527f4f4e4c59204d414e41474552000000000000000000000000000000000000000060448201526064016107e2565b60008163ffffffff16116115f0576040517f08c379a000000000000000000000000000000000000000000000000000000000815260206004820152600860248201527f4e4f54205a45524f00000000000000000000000000000000000000000000000060448201526064016107e2565b73ffffffffffffffffffffffffffffffffffffffff8316600090815260fb6020526040902054821061167e576040517f08c379a000000000000000000000000000000000000000000000000000000000815260206004820152601060248201527f494e56414c4944204f524445522049440000000000000000000000000000000060448201526064016107e2565b73ffffffffffffffffffffffffffffffffffffffff8316600090815260fb602052604081208054849081106116b5576116b56142c0565b60009182526020808320919091015473ffffffffffffffffffffffffffffffffffffffff8716835260fb909152604090912080546801000000000000000090920463ffffffff169250839185908110611710576117106142c0565b600091825260209091200180547fffffffffffffffffffffffffffffffffffffffff00000000ffffffffffffffff166801000000000000000063ffffffff9384160217905582811690821610156117b75761177761176e82846143e3565b63ffffffff1690565b73ffffffffffffffffffffffffffffffffffffffff8516600090815260fc6020526040812080549091906117ac908490614408565b909155506117ff9050565b6117c461176e83836143e3565b73ffffffffffffffffffffffffffffffffffffffff8516600090815260fc6020526040812080549091906117f990849061436f565b90915550505b50505050565b6060606680546106669061422c565b610e27338383612928565b60608167ffffffffffffffff81111561183a5761183a613c12565b60405190808252806020026020018201604052801561186d57816020015b60608152602001906001900390816118585790505b50905060005b8281101561190d576118dd30858584818110611891576118916142c0565b90506020028101906118a3919061447c565b8080601f016020809104026020016040519081016040528093929190818152602001838380828437600092019190915250612a5692505050565b8282815181106118ef576118ef6142c0565b6020026020010181905250808061190590614307565b915050611873565b5092915050565b33600090815260fc602052604081205490811380156119395750808563ffffffff1611155b61199f576040517f08c379a000000000000000000000000000000000000000000000000000000000815260206004820152600c60248201527f494e53554646494349454e54000000000000000000000000000000000000000060448201526064016107e2565b33600090815260fc60205260408120805463ffffffff881692906119c490849061436f565b90915550506040517fc7bc33f000000000000000000000000000000000000000000000000000000000815273ffffffffffffffffffffffffffffffffffffffff85169063c7bc33f090611a1f908890879087906004016144e8565b600060405180830381600087803b158015611a3957600080fd5b505af1158015611a4d573d6000803e3d6000fd5b505050505050505050565b611a623383612295565b611aee576040517f08c379a000000000000000000000000000000000000000000000000000000000815260206004820152602e60248201527f4552433732313a2063616c6c6572206973206e6f7420746f6b656e206f776e6560448201527f72206e6f7220617070726f76656400000000000000000000000000000000000060648201526084016107e2565b6117ff84848484612b95565b3360009081527fe0601880cdabed0469f97fd15da07fe74fbbb126935f404539f62180845d005f602052604090205460ff16611b92576040517f08c379a000000000000000000000000000000000000000000000000000000000815260206004820152600c60248201527f4f4e4c59204d414e41474552000000000000000000000000000000000000000060448201526064016107e2565b60fd5463ffffffff831610611c03576040517f08c379a000000000000000000000000000000000000000000000000000000000815260206004820152600e60248201527f494e56414c49442054414720494400000000000000000000000000000000000060448201526064016107e2565b60008163ffffffff1611611c73576040517f08c379a000000000000000000000000000000000000000000000000000000000815260206004820152600860248201527f4e4f54205a45524f00000000000000000000000000000000000000000000000060448201526064016107e2565b611c7c8361141a565b611c8957611c89836128dc565b73ffffffffffffffffffffffffffffffffffffffff8316600090815260fb60209081526040808320815160608101835263ffffffff808816825242811682860190815287821694830194855283546001810185559387529490952090519101805493519251851668010000000000000000027fffffffffffffffffffffffffffffffffffffffff00000000ffffffffffffffff938616640100000000027fffffffffffffffffffffffffffffffffffffffffffffffff000000000000000090951692909516919091179290921716919091179055611d6a8163ffffffff1690565b73ffffffffffffffffffffffffffffffffffffffff8416600090815260fc602052604081208054909190611d9f908490614408565b9091555050505050565b60606000611db6836112f2565b90506000611dfe611dc685612c38565b611dcf84612d6a565b611dd885612e1c565b604051602001611dea93929190614542565b604051602081830303815290604052613079565b905080604051602001611e1191906146ee565b60405160208183030381529060405292505050919050565b600082815260976020526040902060010154611e44816125c7565b6108aa83836126c5565b3360009081527fe0601880cdabed0469f97fd15da07fe74fbbb126935f404539f62180845d005f602052604090205460ff16611ee6576040517f08c379a000000000000000000000000000000000000000000000000000000000815260206004820152600c60248201527f4f4e4c59204d414e41474552000000000000000000000000000000000000000060448201526064016107e2565b60fd5463ffffffff831610611f57576040517f08c379a000000000000000000000000000000000000000000000000000000000815260206004820152600e60248201527f494e56414c49442054414720494400000000000000000000000000000000000060448201526064016107e2565b8060fd8363ffffffff1681548110611f7157611f716142c0565b9060005260206000200190805190602001906108aa929190613a3e565b604080516060810182526000808252602080830182905282840182905273ffffffffffffffffffffffffffffffffffffffff8616825260fb905291909120805483908110611fde57611fde6142c0565b600091825260209182902060408051606081018252919092015463ffffffff8082168352640100000000820481169483019490945268010000000000000000900490921690820152905092915050565b60007fffffffff0000000000000000000000000000000000000000000000000000000082167f80ac58cd0000000000000000000000000000000000000000000000000000000014806120c157507fffffffff0000000000000000000000000000000000000000000000000000000082167f5b5e139f00000000000000000000000000000000000000000000000000000000145b8061065157507f01ffc9a7000000000000000000000000000000000000000000000000000000007fffffffff00000000000000000000000000000000000000000000000000000000831614610651565b60007fffffffff0000000000000000000000000000000000000000000000000000000082167f7965db0b00000000000000000000000000000000000000000000000000000000148061065157506106518261202e565b60008181526067602052604090205473ffffffffffffffffffffffffffffffffffffffff166121f2576040517f08c379a000000000000000000000000000000000000000000000000000000000815260206004820152601860248201527f4552433732313a20696e76616c696420746f6b656e204944000000000000000060448201526064016107e2565b50565b600081815260696020526040902080547fffffffffffffffffffffffff00000000000000000000000000000000000000001673ffffffffffffffffffffffffffffffffffffffff8416908117909155819061224f826112f2565b73ffffffffffffffffffffffffffffffffffffffff167f8c5be1e5ebec7d5bd14f71427d1e84f3dd0314c0f7b2291e5b200ac8c7c3b92560405160405180910390a45050565b6000806122a1836112f2565b90508073ffffffffffffffffffffffffffffffffffffffff168473ffffffffffffffffffffffffffffffffffffffff16148061230f575073ffffffffffffffffffffffffffffffffffffffff8082166000908152606a602090815260408083209388168352929052205460ff165b8061234d57508373ffffffffffffffffffffffffffffffffffffffff16612335846106e9565b73ffffffffffffffffffffffffffffffffffffffff16145b949350505050565b8273ffffffffffffffffffffffffffffffffffffffff16612375826112f2565b73ffffffffffffffffffffffffffffffffffffffff1614612418576040517f08c379a000000000000000000000000000000000000000000000000000000000815260206004820152602560248201527f4552433732313a207472616e736665722066726f6d20696e636f72726563742060448201527f6f776e657200000000000000000000000000000000000000000000000000000060648201526084016107e2565b73ffffffffffffffffffffffffffffffffffffffff82166124ba576040517f08c379a0000000000000000000000000000000000000000000000000000000008152602060048201526024808201527f4552433732313a207472616e7366657220746f20746865207a65726f2061646460448201527f726573730000000000000000000000000000000000000000000000000000000060648201526084016107e2565b6124c58383836131cd565b6124d06000826121f5565b73ffffffffffffffffffffffffffffffffffffffff831660009081526068602052604081208054600192906125069084906142a9565b909155505073ffffffffffffffffffffffffffffffffffffffff821660009081526068602052604081208054600192906125419084906142ef565b909155505060008181526067602052604080822080547fffffffffffffffffffffffff00000000000000000000000000000000000000001673ffffffffffffffffffffffffffffffffffffffff86811691821790925591518493918716917fddf252ad1be2c89b69c2b068fc378daa952ba7f163c4a11628f55a4df523b3ef91a4505050565b6121f2813361324b565b600082815260976020908152604080832073ffffffffffffffffffffffffffffffffffffffff8516845290915290205460ff16610e2757600082815260976020908152604080832073ffffffffffffffffffffffffffffffffffffffff85168452909152902080547fffffffffffffffffffffffffffffffffffffffffffffffffffffffffffffff001660011790556126673390565b73ffffffffffffffffffffffffffffffffffffffff168173ffffffffffffffffffffffffffffffffffffffff16837f2f8788117e7eff1d82e926ec794901d17c78024a50270940304540a733656f0d60405160405180910390a45050565b600082815260976020908152604080832073ffffffffffffffffffffffffffffffffffffffff8516845290915290205460ff1615610e2757600082815260976020908152604080832073ffffffffffffffffffffffffffffffffffffffff8516808552925280832080547fffffffffffffffffffffffffffffffffffffffffffffffffffffffffffffff0016905551339285917ff6391f5c32d9c69d2a47ea670b442974b53935d1edc7fd64eb21e047a839171b9190a45050565b600081831061278f5781612791565b825b9392505050565b600054610100900460ff1661282f576040517f08c379a000000000000000000000000000000000000000000000000000000000815260206004820152602b60248201527f496e697469616c697a61626c653a20636f6e7472616374206973206e6f74206960448201527f6e697469616c697a696e6700000000000000000000000000000000000000000060648201526084016107e2565b610e27828261331d565b600054610100900460ff166128d0576040517f08c379a000000000000000000000000000000000000000000000000000000000815260206004820152602b60248201527f496e697469616c697a61626c653a20636f6e7472616374206973206e6f74206960448201527f6e697469616c697a696e6700000000000000000000000000000000000000000060648201526084016107e2565b565b610e2782826125d1565b6128e88160ff546133db565b60ff805473ffffffffffffffffffffffffffffffffffffffff8316600090815260fe6020526040812082905590919061292083614307565b919050555050565b8173ffffffffffffffffffffffffffffffffffffffff168373ffffffffffffffffffffffffffffffffffffffff1614156129be576040517f08c379a000000000000000000000000000000000000000000000000000000000815260206004820152601960248201527f4552433732313a20617070726f766520746f2063616c6c65720000000000000060448201526064016107e2565b73ffffffffffffffffffffffffffffffffffffffff8381166000818152606a602090815260408083209487168084529482529182902080547fffffffffffffffffffffffffffffffffffffffffffffffffffffffffffffff001686151590811790915591519182527f17307eab39ab6107e8899845ad3d59bd9653f200f220920489ca2b5937696c31910160405180910390a3505050565b606073ffffffffffffffffffffffffffffffffffffffff83163b612afc576040517f08c379a000000000000000000000000000000000000000000000000000000000815260206004820152602660248201527f416464726573733a2064656c65676174652063616c6c20746f206e6f6e2d636f60448201527f6e7472616374000000000000000000000000000000000000000000000000000060648201526084016107e2565b6000808473ffffffffffffffffffffffffffffffffffffffff1684604051612b249190614733565b600060405180830381855af49150503d8060008114612b5f576040519150601f19603f3d011682016040523d82523d6000602084013e612b64565b606091505b5091509150612b8c8282604051806060016040528060278152602001614c4a602791396135a9565b95945050505050565b612ba0848484612355565b612bac848484846135fc565b6117ff576040517f08c379a000000000000000000000000000000000000000000000000000000000815260206004820152603260248201527f4552433732313a207472616e7366657220746f206e6f6e20455243373231526560448201527f63656976657220696d706c656d656e746572000000000000000000000000000060648201526084016107e2565b606081612c7857505060408051808201909152600181527f3000000000000000000000000000000000000000000000000000000000000000602082015290565b8160005b8115612ca25780612c8c81614307565b9150612c9b9050600a8361477e565b9150612c7c565b60008167ffffffffffffffff811115612cbd57612cbd613c12565b6040519080825280601f01601f191660200182016040528015612ce7576020820181803683370190505b5090505b841561234d57612cfc6001836142a9565b9150612d09600a86614792565b612d149060306142ef565b60f81b818381518110612d2957612d296142c0565b60200101907effffffffffffffffffffffffffffffffffffffffffffffffffffffffffffff1916908160001a905350612d63600a8661477e565b9450612ceb565b73ffffffffffffffffffffffffffffffffffffffff8116600090815260fc6020526040812054606091808213612dcf57612dab612da6836147a6565b612c38565b604051602001612dbb91906147df565b604051602081830303815290604052612dd8565b612dd882612c38565b73ffffffffffffffffffffffffffffffffffffffff8516600090815260fb6020526040902054909150612e0a90612c38565b81604051602001611e11929190614824565b73ffffffffffffffffffffffffffffffffffffffff8116600090815260fb60205260409020546060908015613060576040805160208082018352600080835273ffffffffffffffffffffffffffffffffffffffff8716815260fb9091529182208054919450612eb2918390612e9357612e936142c0565b600091825260209091200154640100000000900463ffffffff16612c38565b90508281604051602001612ec7929190614946565b60405160208183030381529060405292505060005b8181101561305a5773ffffffffffffffffffffffffffffffffffffffff8416600090815260fb60205260408120805483908110612f1b57612f1b6142c0565b6000918252602080832060408051606081018252939091015463ffffffff808216808652640100000000830482169486019490945268010000000000000000909104169083015260fd8054929450918110612f7857612f786142c0565b906000526020600020018054612f8d9061422c565b80601f0160208091040260200160405190810160405280929190818152602001828054612fb99061422c565b80156130065780601f10612fdb57610100808354040283529160200191613006565b820191906000526020600020905b815481529060010190602001808311612fe957829003601f168201915b505050505090508481613022846040015163ffffffff16612c38565b604051602001613034939291906149ef565b60405160208183030381529060405294505050808061305290614307565b915050612edc565b50613073565b6040518060200160405280600081525091505b50919050565b606081516000141561309957505060408051602081019091526000815290565b6000604051806060016040528060408152602001614c0a60409139905060006003845160026130c891906142ef565b6130d2919061477e565b6130dd906004614ab0565b67ffffffffffffffff8111156130f5576130f5613c12565b6040519080825280601f01601f19166020018201604052801561311f576020820181803683370190505b509050600182016020820185865187015b8082101561318b576003820191508151603f8160121c168501518453600184019350603f81600c1c168501518453600184019350603f8160061c168501518453600184019350603f8116850151845350600183019250613130565b50506003865106600181146131a757600281146131ba576131c2565b603d6001830353603d60028303536131c2565b603d60018303535b509195945050505050565b73ffffffffffffffffffffffffffffffffffffffff8316156108aa576040517f08c379a000000000000000000000000000000000000000000000000000000000815260206004820152601060248201527f4e4f542d5452414e5346455241424c450000000000000000000000000000000060448201526064016107e2565b600082815260976020908152604080832073ffffffffffffffffffffffffffffffffffffffff8516845290915290205460ff16610e27576132a38173ffffffffffffffffffffffffffffffffffffffff1660146137fb565b6132ae8360206137fb565b6040516020016132bf929190614aed565b604080517fffffffffffffffffffffffffffffffffffffffffffffffffffffffffffffffe0818403018152908290527f08c379a00000000000000000000000000000000000000000000000000000000082526107e291600401613b98565b600054610100900460ff166133b4576040517f08c379a000000000000000000000000000000000000000000000000000000000815260206004820152602b60248201527f496e697469616c697a61626c653a20636f6e7472616374206973206e6f74206960448201527f6e697469616c697a696e6700000000000000000000000000000000000000000060648201526084016107e2565b81516133c7906065906020850190613a3e565b5080516108aa906066906020840190613a3e565b73ffffffffffffffffffffffffffffffffffffffff8216613458576040517f08c379a000000000000000000000000000000000000000000000000000000000815260206004820181905260248201527f4552433732313a206d696e7420746f20746865207a65726f206164647265737360448201526064016107e2565b60008181526067602052604090205473ffffffffffffffffffffffffffffffffffffffff16156134e4576040517f08c379a000000000000000000000000000000000000000000000000000000000815260206004820152601c60248201527f4552433732313a20746f6b656e20616c7265616479206d696e7465640000000060448201526064016107e2565b6134f0600083836131cd565b73ffffffffffffffffffffffffffffffffffffffff821660009081526068602052604081208054600192906135269084906142ef565b909155505060008181526067602052604080822080547fffffffffffffffffffffffff00000000000000000000000000000000000000001673ffffffffffffffffffffffffffffffffffffffff861690811790915590518392907fddf252ad1be2c89b69c2b068fc378daa952ba7f163c4a11628f55a4df523b3ef908290a45050565b606083156135b8575081612791565b8251156135c85782518084602001fd5b816040517f08c379a00000000000000000000000000000000000000000000000000000000081526004016107e29190613b98565b600073ffffffffffffffffffffffffffffffffffffffff84163b156137f0576040517f150b7a0200000000000000000000000000000000000000000000000000000000815273ffffffffffffffffffffffffffffffffffffffff85169063150b7a0290613673903390899088908890600401614b6e565b602060405180830381600087803b15801561368d57600080fd5b505af19250505080156136db575060408051601f3d9081017fffffffffffffffffffffffffffffffffffffffffffffffffffffffffffffffe01682019092526136d891810190614bb7565b60015b6137a5573d808015613709576040519150601f19603f3d011682016040523d82523d6000602084013e61370e565b606091505b50805161379d576040517f08c379a000000000000000000000000000000000000000000000000000000000815260206004820152603260248201527f4552433732313a207472616e7366657220746f206e6f6e20455243373231526560448201527f63656976657220696d706c656d656e746572000000000000000000000000000060648201526084016107e2565b805181602001fd5b7fffffffff00000000000000000000000000000000000000000000000000000000167f150b7a020000000000000000000000000000000000000000000000000000000014905061234d565b506001949350505050565b6060600061380a836002614ab0565b6138159060026142ef565b67ffffffffffffffff81111561382d5761382d613c12565b6040519080825280601f01601f191660200182016040528015613857576020820181803683370190505b5090507f30000000000000000000000000000000000000000000000000000000000000008160008151811061388e5761388e6142c0565b60200101907effffffffffffffffffffffffffffffffffffffffffffffffffffffffffffff1916908160001a9053507f7800000000000000000000000000000000000000000000000000000000000000816001815181106138f1576138f16142c0565b60200101907effffffffffffffffffffffffffffffffffffffffffffffffffffffffffffff1916908160001a905350600061392d846002614ab0565b6139389060016142ef565b90505b60018111156139d5577f303132333435363738396162636465660000000000000000000000000000000085600f1660108110613979576139796142c0565b1a60f81b82828151811061398f5761398f6142c0565b60200101907effffffffffffffffffffffffffffffffffffffffffffffffffffffffffffff1916908160001a90535060049490941c936139ce81614bd4565b905061393b565b508315612791576040517f08c379a000000000000000000000000000000000000000000000000000000000815260206004820181905260248201527f537472696e67733a20686578206c656e67746820696e73756666696369656e7460448201526064016107e2565b828054613a4a9061422c565b90600052602060002090601f016020900481019282613a6c5760008555613ab2565b82601f10613a8557805160ff1916838001178555613ab2565b82800160010185558215613ab2579182015b82811115613ab2578251825591602001919060010190613a97565b50613abe929150613ac2565b5090565b5b80821115613abe5760008155600101613ac3565b7fffffffff00000000000000000000000000000000000000000000000000000000811681146121f257600080fd5b600060208284031215613b1757600080fd5b813561279181613ad7565b60005b83811015613b3d578181015183820152602001613b25565b838111156117ff5750506000910152565b60008151808452613b66816020860160208601613b22565b601f017fffffffffffffffffffffffffffffffffffffffffffffffffffffffffffffffe0169290920160200192915050565b6020815260006127916020830184613b4e565b600060208284031215613bbd57600080fd5b5035919050565b803573ffffffffffffffffffffffffffffffffffffffff811681146109ac57600080fd5b60008060408385031215613bfb57600080fd5b613c0483613bc4565b946020939093013593505050565b7f4e487b7100000000000000000000000000000000000000000000000000000000600052604160045260246000fd5b600067ffffffffffffffff80841115613c5c57613c5c613c12565b604051601f85017fffffffffffffffffffffffffffffffffffffffffffffffffffffffffffffffe0908116603f01168101908282118183101715613ca257613ca2613c12565b81604052809350858152868686011115613cbb57600080fd5b858560208301376000602087830101525050509392505050565b600082601f830112613ce657600080fd5b61279183833560208501613c41565b600060208284031215613d0757600080fd5b813567ffffffffffffffff811115613d1e57600080fd5b61234d84828501613cd5565b606081016106518284805163ffffffff908116835260208083015182169084015260409182015116910152565b600080600060608486031215613d6c57600080fd5b613d7584613bc4565b9250613d8360208501613bc4565b9150604084013590509250925092565b60008060408385031215613da657600080fd5b82359150613db660208401613bc4565b90509250929050565b600080600060608486031215613dd457600080fd5b613ddd84613bc4565b95602085013595506040909401359392505050565b6020808252825182820181905260009190848201906040850190845b81811015613e5357613e40838551805163ffffffff908116835260208083015182169084015260409182015116910152565b9284019260609290920191600101613e0e565b50909695505050505050565b600060208284031215613e7157600080fd5b61279182613bc4565b803563ffffffff811681146109ac57600080fd5b600060208284031215613ea057600080fd5b61279182613e7a565b60008060408385031215613ebc57600080fd5b823567ffffffffffffffff80821115613ed457600080fd5b613ee086838701613cd5565b93506020850135915080821115613ef657600080fd5b50613f0385828601613cd5565b9150509250929050565b600080600060608486031215613f2257600080fd5b613f2b84613bc4565b925060208401359150613f4060408501613e7a565b90509250925092565b60008060408385031215613f5c57600080fd5b613f6583613bc4565b915060208301358015158114613f7a57600080fd5b809150509250929050565b60008060208385031215613f9857600080fd5b823567ffffffffffffffff80821115613fb057600080fd5b818501915085601f830112613fc457600080fd5b813581811115613fd357600080fd5b8660208260051b8501011115613fe857600080fd5b60209290920196919550909350505050565b6000602080830181845280855180835260408601915060408160051b870101925083870160005b8281101561406d577fffffffffffffffffffffffffffffffffffffffffffffffffffffffffffffffc088860301845261405b858351613b4e565b94509285019290850190600101614021565b5092979650505050505050565b6000806000806060858703121561409057600080fd5b61409985613e7a565b93506140a760208601613bc4565b9250604085013567ffffffffffffffff808211156140c457600080fd5b818701915087601f8301126140d857600080fd5b8135818111156140e757600080fd5b8860208285010111156140f957600080fd5b95989497505060200194505050565b6000806000806080858703121561411e57600080fd5b61412785613bc4565b935061413560208601613bc4565b925060408501359150606085013567ffffffffffffffff81111561415857600080fd5b8501601f8101871361416957600080fd5b61417887823560208401613c41565b91505092959194509250565b60008060006060848603121561419957600080fd5b6141a284613bc4565b92506141b060208501613e7a565b9150613f4060408501613e7a565b600080604083850312156141d157600080fd5b6141da83613e7a565b9150602083013567ffffffffffffffff8111156141f657600080fd5b613f0385828601613cd5565b6000806040838503121561421557600080fd5b61421e83613bc4565b9150613db660208401613bc4565b600181811c9082168061424057607f821691505b60208210811415613073577f4e487b7100000000000000000000000000000000000000000000000000000000600052602260045260246000fd5b7f4e487b7100000000000000000000000000000000000000000000000000000000600052601160045260246000fd5b6000828210156142bb576142bb61427a565b500390565b7f4e487b7100000000000000000000000000000000000000000000000000000000600052603260045260246000fd5b600082198211156143025761430261427a565b500190565b60007fffffffffffffffffffffffffffffffffffffffffffffffffffffffffffffffff8214156143395761433961427a565b5060010190565b7f4e487b7100000000000000000000000000000000000000000000000000000000600052603160045260246000fd5b6000808312837f8000000000000000000000000000000000000000000000000000000000000000018312811516156143a9576143a961427a565b837f7fffffffffffffffffffffffffffffffffffffffffffffffffffffffffffffff0183138116156143dd576143dd61427a565b50500390565b600063ffffffff838116908316818110156144005761440061427a565b039392505050565b6000808212827f7fffffffffffffffffffffffffffffffffffffffffffffffffffffffffffffff038413811516156144425761444261427a565b827f80000000000000000000000000000000000000000000000000000000000000000384128116156144765761447661427a565b50500190565b60008083357fffffffffffffffffffffffffffffffffffffffffffffffffffffffffffffffe18436030181126144b157600080fd5b83018035915067ffffffffffffffff8211156144cc57600080fd5b6020019150368190038213156144e157600080fd5b9250929050565b63ffffffff8416815260406020820152816040820152818360608301376000818301606090810191909152601f9092017fffffffffffffffffffffffffffffffffffffffffffffffffffffffffffffffe016010192915050565b7f7b0000000000000000000000000000000000000000000000000000000000000081527f226e616d65223a2022434f4e5452494255544f522023000000000000000000006001820152600084516145a0816017850160208901613b22565b7f222c2000000000000000000000000000000000000000000000000000000000006017918401918201527f226465736372697074696f6e223a202250414e47454120436f6e747269627574601a8201527f696f6e20506f696e742c2074686973204e465420726570726573656e74732063603a8201527f6f6e747269627574696f6e20706f696e7420666f722050414e47454120636f6e605a8201527f7472696275746f7273222c000000000000000000000000000000000000000000607a8201527f2261747472696275746573223a205b00000000000000000000000000000000006085820152845161469b816094840160208901613b22565b84519101906146b1816094840160208801613b22565b6146e36094828401017f5d7d000000000000000000000000000000000000000000000000000000000000815260020190565b979650505050505050565b7f646174613a6170706c69636174696f6e2f6a736f6e3b6261736536342c00000081526000825161472681601d850160208701613b22565b91909101601d0192915050565b60008251614745818460208701613b22565b9190910192915050565b7f4e487b7100000000000000000000000000000000000000000000000000000000600052601260045260246000fd5b60008261478d5761478d61474f565b500490565b6000826147a1576147a161474f565b500690565b60007f80000000000000000000000000000000000000000000000000000000000000008214156147d8576147d861427a565b5060000390565b7f2d00000000000000000000000000000000000000000000000000000000000000815260008251614817816001850160208701613b22565b9190910160010192915050565b7f7b22646973706c61795f74797065223a20226e756d626572222c20227472616981527f745f74797065223a226e756d4f66436f6e747269627574696f6e73222c22766160208201527f6c7565223a0000000000000000000000000000000000000000000000000000006040820152600083516148a8816045850160208801613b22565b80830190507f7d000000000000000000000000000000000000000000000000000000000000008060458301527f2c7b22646973706c61795f74797065223a20226e756d626572222c202274726160468301527f69745f74797065223a22746f74616c506f696e7473222c2276616c7565223a0060668301528451614933816085850160208901613b22565b6085920191820152608601949350505050565b60008351614958818460208801613b22565b80830190507f2c7b22646973706c61795f74797065223a202264617465222c2022747261697481527f5f74797065223a226a6f696e44617465222c2276616c7565223a000000000000602082015283516149b981603a840160208801613b22565b7f7d00000000000000000000000000000000000000000000000000000000000000603a9290910191820152603b01949350505050565b60008451614a01818460208901613b22565b7f2c7b2274726169745f74797065223a22000000000000000000000000000000009083019081528451614a3b816010840160208901613b22565b7f2c222c2276616c7565223a202200000000000000000000000000000000000000601092909101918201528351614a7981601d840160208801613b22565b7f227d000000000000000000000000000000000000000000000000000000000000601d9290910191820152601f0195945050505050565b6000817fffffffffffffffffffffffffffffffffffffffffffffffffffffffffffffffff0483118215151615614ae857614ae861427a565b500290565b7f416363657373436f6e74726f6c3a206163636f756e7420000000000000000000815260008351614b25816017850160208801613b22565b7f206973206d697373696e6720726f6c65200000000000000000000000000000006017918401918201528351614b62816028840160208801613b22565b01602801949350505050565b600073ffffffffffffffffffffffffffffffffffffffff808716835280861660208401525083604083015260806060830152614bad6080830184613b4e565b9695505050505050565b600060208284031215614bc957600080fd5b815161279181613ad7565b600081614be357614be361427a565b507fffffffffffffffffffffffffffffffffffffffffffffffffffffffffffffffff019056fe4142434445464748494a4b4c4d4e4f505152535455565758595a6162636465666768696a6b6c6d6e6f707172737475767778797a303132333435363738392b2f416464726573733a206c6f772d6c6576656c2064656c65676174652063616c6c206661696c6564a26469706673582212206b97230ccf9dfecced5be2f3c5cda891bb945bce49b4d9d8360ef4d83905f59f64736f6c63430008090033",
  "devdoc": {
    "kind": "dev",
    "methods": {
      "approve(address,uint256)": {
        "details": "See {IERC721-approve}."
      },
      "balanceOf(address)": {
        "details": "See {IERC721-balanceOf}."
      },
      "getApproved(uint256)": {
        "details": "See {IERC721-getApproved}."
      },
      "getRoleAdmin(bytes32)": {
        "details": "Returns the admin role that controls `role`. See {grantRole} and {revokeRole}. To change a role's admin, use {_setRoleAdmin}."
      },
      "grantRole(bytes32,address)": {
        "details": "Grants `role` to `account`. If `account` had not been already granted `role`, emits a {RoleGranted} event. Requirements: - the caller must have ``role``'s admin role. May emit a {RoleGranted} event."
      },
      "hasRole(bytes32,address)": {
        "details": "Returns `true` if `account` has been granted `role`."
      },
      "isApprovedForAll(address,address)": {
        "details": "See {IERC721-isApprovedForAll}."
      },
      "multicall(bytes[])": {
        "details": "Receives and executes a batch of function calls on this contract."
      },
      "name()": {
        "details": "See {IERC721Metadata-name}."
      },
      "ownerOf(uint256)": {
        "details": "See {IERC721-ownerOf}."
      },
      "renounceRole(bytes32,address)": {
        "details": "Revokes `role` from the calling account. Roles are often managed via {grantRole} and {revokeRole}: this function's purpose is to provide a mechanism for accounts to lose their privileges if they are compromised (such as when a trusted device is misplaced). If the calling account had been revoked `role`, emits a {RoleRevoked} event. Requirements: - the caller must be `account`. May emit a {RoleRevoked} event."
      },
      "revokeRole(bytes32,address)": {
        "details": "Revokes `role` from `account`. If `account` had been granted `role`, emits a {RoleRevoked} event. Requirements: - the caller must have ``role``'s admin role. May emit a {RoleRevoked} event."
      },
      "safeTransferFrom(address,address,uint256)": {
        "details": "See {IERC721-safeTransferFrom}."
      },
      "safeTransferFrom(address,address,uint256,bytes)": {
        "details": "See {IERC721-safeTransferFrom}."
      },
      "setApprovalForAll(address,bool)": {
        "details": "See {IERC721-setApprovalForAll}."
      },
      "symbol()": {
        "details": "See {IERC721Metadata-symbol}."
      },
      "transferFrom(address,address,uint256)": {
        "details": "See {IERC721-transferFrom}."
      }
    },
    "version": 1
  },
  "userdoc": {
    "kind": "user",
    "methods": {
      "createRecord(address,uint32,uint32)": {
        "notice": "create contribution record"
      },
      "deleteRecord(address,uint256)": {
        "notice": "delete contribution record"
      },
      "tagDescription(uint32)": {
        "notice": "return contribution tag description"
      },
      "updateRecord(address,uint256,uint32)": {
        "notice": "modify contribution record"
      }
    },
    "notice": "Contribution Point membership NFT",
    "version": 1
  },
  "storageLayout": {
    "storage": [
      {
        "astId": 419,
        "contract": "contracts/ContributionPoint.sol:ContributionPoint",
        "label": "_initialized",
        "offset": 0,
        "slot": "0",
        "type": "t_uint8"
      },
      {
        "astId": 422,
        "contract": "contracts/ContributionPoint.sol:ContributionPoint",
        "label": "_initializing",
        "offset": 1,
        "slot": "0",
        "type": "t_bool"
      },
      {
        "astId": 1900,
        "contract": "contracts/ContributionPoint.sol:ContributionPoint",
        "label": "__gap",
        "offset": 0,
        "slot": "1",
        "type": "t_array(t_uint256)50_storage"
      },
      {
        "astId": 2279,
        "contract": "contracts/ContributionPoint.sol:ContributionPoint",
        "label": "__gap",
        "offset": 0,
        "slot": "51",
        "type": "t_array(t_uint256)50_storage"
      },
      {
        "astId": 592,
        "contract": "contracts/ContributionPoint.sol:ContributionPoint",
        "label": "_name",
        "offset": 0,
        "slot": "101",
        "type": "t_string_storage"
      },
      {
        "astId": 594,
        "contract": "contracts/ContributionPoint.sol:ContributionPoint",
        "label": "_symbol",
        "offset": 0,
        "slot": "102",
        "type": "t_string_storage"
      },
      {
        "astId": 598,
        "contract": "contracts/ContributionPoint.sol:ContributionPoint",
        "label": "_owners",
        "offset": 0,
        "slot": "103",
        "type": "t_mapping(t_uint256,t_address)"
      },
      {
        "astId": 602,
        "contract": "contracts/ContributionPoint.sol:ContributionPoint",
        "label": "_balances",
        "offset": 0,
        "slot": "104",
        "type": "t_mapping(t_address,t_uint256)"
      },
      {
        "astId": 606,
        "contract": "contracts/ContributionPoint.sol:ContributionPoint",
        "label": "_tokenApprovals",
        "offset": 0,
        "slot": "105",
        "type": "t_mapping(t_uint256,t_address)"
      },
      {
        "astId": 612,
        "contract": "contracts/ContributionPoint.sol:ContributionPoint",
        "label": "_operatorApprovals",
        "offset": 0,
        "slot": "106",
        "type": "t_mapping(t_address,t_mapping(t_address,t_bool))"
      },
      {
        "astId": 1454,
        "contract": "contracts/ContributionPoint.sol:ContributionPoint",
        "label": "__gap",
        "offset": 0,
        "slot": "107",
        "type": "t_array(t_uint256)44_storage"
      },
      {
        "astId": 39,
        "contract": "contracts/ContributionPoint.sol:ContributionPoint",
        "label": "_roles",
        "offset": 0,
        "slot": "151",
        "type": "t_mapping(t_bytes32,t_struct(RoleData)34_storage)"
      },
      {
        "astId": 338,
        "contract": "contracts/ContributionPoint.sol:ContributionPoint",
        "label": "__gap",
        "offset": 0,
        "slot": "152",
        "type": "t_array(t_uint256)49_storage"
      },
      {
        "astId": 2009,
        "contract": "contracts/ContributionPoint.sol:ContributionPoint",
        "label": "__gap",
        "offset": 0,
        "slot": "201",
        "type": "t_array(t_uint256)50_storage"
      },
      {
        "astId": 3105,
        "contract": "contracts/ContributionPoint.sol:ContributionPoint",
        "label": "_contributionRecords",
        "offset": 0,
        "slot": "251",
        "type": "t_mapping(t_address,t_array(t_struct(ContributionRecord)4087_storage)dyn_storage)"
      },
      {
        "astId": 3109,
        "contract": "contracts/ContributionPoint.sol:ContributionPoint",
        "label": "_pointOf",
        "offset": 0,
        "slot": "252",
        "type": "t_mapping(t_address,t_int256)"
      },
      {
        "astId": 3112,
        "contract": "contracts/ContributionPoint.sol:ContributionPoint",
        "label": "_tagDescriptions",
        "offset": 0,
        "slot": "253",
        "type": "t_array(t_string_storage)dyn_storage"
      },
      {
        "astId": 3116,
        "contract": "contracts/ContributionPoint.sol:ContributionPoint",
        "label": "_contributorIdOf",
        "offset": 0,
        "slot": "254",
        "type": "t_mapping(t_address,t_uint256)"
      },
      {
        "astId": 3118,
        "contract": "contracts/ContributionPoint.sol:ContributionPoint",
        "label": "_contributorCounter",
        "offset": 0,
        "slot": "255",
        "type": "t_uint256"
      }
    ],
    "types": {
      "t_address": {
        "encoding": "inplace",
        "label": "address",
        "numberOfBytes": "20"
      },
      "t_array(t_string_storage)dyn_storage": {
        "base": "t_string_storage",
        "encoding": "dynamic_array",
        "label": "string[]",
        "numberOfBytes": "32"
      },
      "t_array(t_struct(ContributionRecord)4087_storage)dyn_storage": {
        "base": "t_struct(ContributionRecord)4087_storage",
        "encoding": "dynamic_array",
        "label": "struct IContributionStruct.ContributionRecord[]",
        "numberOfBytes": "32"
      },
      "t_array(t_uint256)44_storage": {
        "base": "t_uint256",
        "encoding": "inplace",
        "label": "uint256[44]",
        "numberOfBytes": "1408"
      },
      "t_array(t_uint256)49_storage": {
        "base": "t_uint256",
        "encoding": "inplace",
        "label": "uint256[49]",
        "numberOfBytes": "1568"
      },
      "t_array(t_uint256)50_storage": {
        "base": "t_uint256",
        "encoding": "inplace",
        "label": "uint256[50]",
        "numberOfBytes": "1600"
      },
      "t_bool": {
        "encoding": "inplace",
        "label": "bool",
        "numberOfBytes": "1"
      },
      "t_bytes32": {
        "encoding": "inplace",
        "label": "bytes32",
        "numberOfBytes": "32"
      },
      "t_int256": {
        "encoding": "inplace",
        "label": "int256",
        "numberOfBytes": "32"
      },
      "t_mapping(t_address,t_array(t_struct(ContributionRecord)4087_storage)dyn_storage)": {
        "encoding": "mapping",
        "key": "t_address",
        "label": "mapping(address => struct IContributionStruct.ContributionRecord[])",
        "numberOfBytes": "32",
        "value": "t_array(t_struct(ContributionRecord)4087_storage)dyn_storage"
      },
      "t_mapping(t_address,t_bool)": {
        "encoding": "mapping",
        "key": "t_address",
        "label": "mapping(address => bool)",
        "numberOfBytes": "32",
        "value": "t_bool"
      },
      "t_mapping(t_address,t_int256)": {
        "encoding": "mapping",
        "key": "t_address",
        "label": "mapping(address => int256)",
        "numberOfBytes": "32",
        "value": "t_int256"
      },
      "t_mapping(t_address,t_mapping(t_address,t_bool))": {
        "encoding": "mapping",
        "key": "t_address",
        "label": "mapping(address => mapping(address => bool))",
        "numberOfBytes": "32",
        "value": "t_mapping(t_address,t_bool)"
      },
      "t_mapping(t_address,t_uint256)": {
        "encoding": "mapping",
        "key": "t_address",
        "label": "mapping(address => uint256)",
        "numberOfBytes": "32",
        "value": "t_uint256"
      },
      "t_mapping(t_bytes32,t_struct(RoleData)34_storage)": {
        "encoding": "mapping",
        "key": "t_bytes32",
        "label": "mapping(bytes32 => struct AccessControlUpgradeable.RoleData)",
        "numberOfBytes": "32",
        "value": "t_struct(RoleData)34_storage"
      },
      "t_mapping(t_uint256,t_address)": {
        "encoding": "mapping",
        "key": "t_uint256",
        "label": "mapping(uint256 => address)",
        "numberOfBytes": "32",
        "value": "t_address"
      },
      "t_string_storage": {
        "encoding": "bytes",
        "label": "string",
        "numberOfBytes": "32"
      },
      "t_struct(ContributionRecord)4087_storage": {
        "encoding": "inplace",
        "label": "struct IContributionStruct.ContributionRecord",
        "members": [
          {
            "astId": 4082,
            "contract": "contracts/ContributionPoint.sol:ContributionPoint",
            "label": "tagId",
            "offset": 0,
            "slot": "0",
            "type": "t_uint32"
          },
          {
            "astId": 4084,
            "contract": "contracts/ContributionPoint.sol:ContributionPoint",
            "label": "time",
            "offset": 4,
            "slot": "0",
            "type": "t_uint32"
          },
          {
            "astId": 4086,
            "contract": "contracts/ContributionPoint.sol:ContributionPoint",
            "label": "point",
            "offset": 8,
            "slot": "0",
            "type": "t_uint32"
          }
        ],
        "numberOfBytes": "32"
      },
      "t_struct(RoleData)34_storage": {
        "encoding": "inplace",
        "label": "struct AccessControlUpgradeable.RoleData",
        "members": [
          {
            "astId": 31,
            "contract": "contracts/ContributionPoint.sol:ContributionPoint",
            "label": "members",
            "offset": 0,
            "slot": "0",
            "type": "t_mapping(t_address,t_bool)"
          },
          {
            "astId": 33,
            "contract": "contracts/ContributionPoint.sol:ContributionPoint",
            "label": "adminRole",
            "offset": 0,
            "slot": "1",
            "type": "t_bytes32"
          }
        ],
        "numberOfBytes": "64"
      },
      "t_uint256": {
        "encoding": "inplace",
        "label": "uint256",
        "numberOfBytes": "32"
      },
      "t_uint32": {
        "encoding": "inplace",
        "label": "uint32",
        "numberOfBytes": "4"
      },
      "t_uint8": {
        "encoding": "inplace",
        "label": "uint8",
        "numberOfBytes": "1"
      }
    }
  }
}