{
  "address": "0x6a5eb020bb8DC3731f198a6E36257987FcEBD02d",
  "abi": [
    {
      "anonymous": false,
      "inputs": [
        {
          "indexed": true,
          "internalType": "address",
          "name": "owner",
          "type": "address"
        },
        {
          "indexed": true,
          "internalType": "address",
          "name": "approved",
          "type": "address"
        },
        {
          "indexed": true,
          "internalType": "uint256",
          "name": "tokenId",
          "type": "uint256"
        }
      ],
      "name": "Approval",
      "type": "event"
    },
    {
      "anonymous": false,
      "inputs": [
        {
          "indexed": true,
          "internalType": "address",
          "name": "owner",
          "type": "address"
        },
        {
          "indexed": true,
          "internalType": "address",
          "name": "operator",
          "type": "address"
        },
        {
          "indexed": false,
          "internalType": "bool",
          "name": "approved",
          "type": "bool"
        }
      ],
      "name": "ApprovalForAll",
      "type": "event"
    },
    {
      "anonymous": false,
      "inputs": [
        {
          "indexed": false,
          "internalType": "uint8",
          "name": "version",
          "type": "uint8"
        }
      ],
      "name": "Initialized",
      "type": "event"
    },
    {
      "anonymous": false,
      "inputs": [
        {
          "indexed": true,
          "internalType": "address",
          "name": "previousOwner",
          "type": "address"
        },
        {
          "indexed": true,
          "internalType": "address",
          "name": "newOwner",
          "type": "address"
        }
      ],
      "name": "OwnershipTransferred",
      "type": "event"
    },
    {
      "anonymous": false,
      "inputs": [
        {
          "indexed": true,
          "internalType": "bytes32",
          "name": "role",
          "type": "bytes32"
        },
        {
          "indexed": true,
          "internalType": "bytes32",
          "name": "previousAdminRole",
          "type": "bytes32"
        },
        {
          "indexed": true,
          "internalType": "bytes32",
          "name": "newAdminRole",
          "type": "bytes32"
        }
      ],
      "name": "RoleAdminChanged",
      "type": "event"
    },
    {
      "anonymous": false,
      "inputs": [
        {
          "indexed": true,
          "internalType": "bytes32",
          "name": "role",
          "type": "bytes32"
        },
        {
          "indexed": true,
          "internalType": "address",
          "name": "account",
          "type": "address"
        },
        {
          "indexed": true,
          "internalType": "address",
          "name": "sender",
          "type": "address"
        }
      ],
      "name": "RoleGranted",
      "type": "event"
    },
    {
      "anonymous": false,
      "inputs": [
        {
          "indexed": true,
          "internalType": "bytes32",
          "name": "role",
          "type": "bytes32"
        },
        {
          "indexed": true,
          "internalType": "address",
          "name": "account",
          "type": "address"
        },
        {
          "indexed": true,
          "internalType": "address",
          "name": "sender",
          "type": "address"
        }
      ],
      "name": "RoleRevoked",
      "type": "event"
    },
    {
      "anonymous": false,
      "inputs": [
        {
          "indexed": true,
          "internalType": "address",
          "name": "from",
          "type": "address"
        },
        {
          "indexed": true,
          "internalType": "address",
          "name": "to",
          "type": "address"
        },
        {
          "indexed": true,
          "internalType": "uint256",
          "name": "tokenId",
          "type": "uint256"
        }
      ],
      "name": "Transfer",
      "type": "event"
    },
    {
      "inputs": [],
      "name": "DEFAULT_ADMIN_ROLE",
      "outputs": [
        {
          "internalType": "bytes32",
          "name": "",
          "type": "bytes32"
        }
      ],
      "stateMutability": "view",
      "type": "function"
    },
    {
      "inputs": [],
      "name": "MANAGER_ROLE",
      "outputs": [
        {
          "internalType": "bytes32",
          "name": "",
          "type": "bytes32"
        }
      ],
      "stateMutability": "view",
      "type": "function"
    },
    {
      "inputs": [
        {
          "internalType": "address",
          "name": "to",
          "type": "address"
        },
        {
          "internalType": "uint256",
          "name": "tokenId",
          "type": "uint256"
        }
      ],
      "name": "approve",
      "outputs": [],
      "stateMutability": "nonpayable",
      "type": "function"
    },
    {
      "inputs": [
        {
          "internalType": "address",
          "name": "owner",
          "type": "address"
        }
      ],
      "name": "balanceOf",
      "outputs": [
        {
          "internalType": "uint256",
          "name": "",
          "type": "uint256"
        }
      ],
      "stateMutability": "view",
      "type": "function"
    },
    {
      "inputs": [
        {
          "internalType": "address",
          "name": "contributor",
          "type": "address"
        }
      ],
      "name": "contributionPointOf",
      "outputs": [
        {
          "internalType": "int256",
          "name": "",
          "type": "int256"
        }
      ],
      "stateMutability": "view",
      "type": "function"
    },
    {
      "inputs": [
        {
          "internalType": "address",
          "name": "contributor",
          "type": "address"
        },
        {
          "internalType": "uint256",
          "name": "orderId",
          "type": "uint256"
        }
      ],
      "name": "contributionRecordByIndex",
      "outputs": [
        {
          "components": [
            {
              "internalType": "uint32",
              "name": "tagId",
              "type": "uint32"
            },
            {
              "internalType": "uint32",
              "name": "time",
              "type": "uint32"
            },
            {
              "internalType": "uint32",
              "name": "point",
              "type": "uint32"
            }
          ],
          "internalType": "struct IContributionStruct.ContributionRecord",
          "name": "",
          "type": "tuple"
        }
      ],
      "stateMutability": "view",
      "type": "function"
    },
    {
      "inputs": [
        {
          "internalType": "address",
          "name": "contributor",
          "type": "address"
        }
      ],
      "name": "contributionRecordCounts",
      "outputs": [
        {
          "internalType": "uint256",
          "name": "",
          "type": "uint256"
        }
      ],
      "stateMutability": "view",
      "type": "function"
    },
    {
      "inputs": [
        {
          "internalType": "address",
          "name": "contributor",
          "type": "address"
        },
        {
          "internalType": "uint256",
          "name": "start",
          "type": "uint256"
        },
        {
          "internalType": "uint256",
          "name": "nums",
          "type": "uint256"
        }
      ],
      "name": "contributionRecords",
      "outputs": [
        {
          "components": [
            {
              "internalType": "uint32",
              "name": "tagId",
              "type": "uint32"
            },
            {
              "internalType": "uint32",
              "name": "time",
              "type": "uint32"
            },
            {
              "internalType": "uint32",
              "name": "point",
              "type": "uint32"
            }
          ],
          "internalType": "struct IContributionStruct.ContributionRecord[]",
          "name": "records",
          "type": "tuple[]"
        }
      ],
      "stateMutability": "view",
      "type": "function"
    },
    {
      "inputs": [
        {
          "internalType": "address",
          "name": "contributor",
          "type": "address"
        }
      ],
      "name": "contributorIdOf",
      "outputs": [
        {
          "internalType": "uint256",
          "name": "",
          "type": "uint256"
        }
      ],
      "stateMutability": "view",
      "type": "function"
    },
    {
      "inputs": [
        {
          "internalType": "address",
          "name": "contributor",
          "type": "address"
        },
        {
          "internalType": "uint32",
          "name": "tagId",
          "type": "uint32"
        },
        {
          "internalType": "uint32",
          "name": "point",
          "type": "uint32"
        }
      ],
      "name": "createRecord",
      "outputs": [],
      "stateMutability": "nonpayable",
      "type": "function"
    },
    {
      "inputs": [
        {
          "internalType": "string",
          "name": "desc",
          "type": "string"
        }
      ],
      "name": "createTag",
      "outputs": [
        {
          "internalType": "uint32",
          "name": "tagId",
          "type": "uint32"
        }
      ],
      "stateMutability": "nonpayable",
      "type": "function"
    },
    {
      "inputs": [
        {
          "internalType": "address",
          "name": "contributor",
          "type": "address"
        },
        {
          "internalType": "uint256",
          "name": "orderId",
          "type": "uint256"
        }
      ],
      "name": "deleteRecord",
      "outputs": [
        {
          "components": [
            {
              "internalType": "uint32",
              "name": "tagId",
              "type": "uint32"
            },
            {
              "internalType": "uint32",
              "name": "time",
              "type": "uint32"
            },
            {
              "internalType": "uint32",
              "name": "point",
              "type": "uint32"
            }
          ],
          "internalType": "struct IContributionStruct.ContributionRecord",
          "name": "record",
          "type": "tuple"
        }
      ],
      "stateMutability": "nonpayable",
      "type": "function"
    },
    {
      "inputs": [
        {
          "internalType": "uint256",
          "name": "tokenId",
          "type": "uint256"
        }
      ],
      "name": "getApproved",
      "outputs": [
        {
          "internalType": "address",
          "name": "",
          "type": "address"
        }
      ],
      "stateMutability": "view",
      "type": "function"
    },
    {
      "inputs": [
        {
          "internalType": "bytes32",
          "name": "role",
          "type": "bytes32"
        }
      ],
      "name": "getRoleAdmin",
      "outputs": [
        {
          "internalType": "bytes32",
          "name": "",
          "type": "bytes32"
        }
      ],
      "stateMutability": "view",
      "type": "function"
    },
    {
      "inputs": [
        {
          "internalType": "bytes32",
          "name": "role",
          "type": "bytes32"
        },
        {
          "internalType": "address",
          "name": "account",
          "type": "address"
        }
      ],
      "name": "grantRole",
      "outputs": [],
      "stateMutability": "nonpayable",
      "type": "function"
    },
    {
      "inputs": [
        {
          "internalType": "bytes32",
          "name": "role",
          "type": "bytes32"
        },
        {
          "internalType": "address",
          "name": "account",
          "type": "address"
        }
      ],
      "name": "hasRole",
      "outputs": [
        {
          "internalType": "bool",
          "name": "",
          "type": "bool"
        }
      ],
      "stateMutability": "view",
      "type": "function"
    },
    {
      "inputs": [
        {
          "internalType": "string",
          "name": "name_",
          "type": "string"
        },
        {
          "internalType": "string",
          "name": "symbol_",
          "type": "string"
        }
      ],
      "name": "initialize",
      "outputs": [],
      "stateMutability": "nonpayable",
      "type": "function"
    },
    {
      "inputs": [
        {
          "internalType": "address",
          "name": "owner",
          "type": "address"
        },
        {
          "internalType": "address",
          "name": "operator",
          "type": "address"
        }
      ],
      "name": "isApprovedForAll",
      "outputs": [
        {
          "internalType": "bool",
          "name": "",
          "type": "bool"
        }
      ],
      "stateMutability": "view",
      "type": "function"
    },
    {
      "inputs": [
        {
          "internalType": "bytes[]",
          "name": "data",
          "type": "bytes[]"
        }
      ],
      "name": "multicall",
      "outputs": [
        {
          "internalType": "bytes[]",
          "name": "results",
          "type": "bytes[]"
        }
      ],
      "stateMutability": "nonpayable",
      "type": "function"
    },
    {
      "inputs": [],
      "name": "name",
      "outputs": [
        {
          "internalType": "string",
          "name": "",
          "type": "string"
        }
      ],
      "stateMutability": "view",
      "type": "function"
    },
    {
      "inputs": [],
      "name": "owner",
      "outputs": [
        {
          "internalType": "address",
          "name": "",
          "type": "address"
        }
      ],
      "stateMutability": "view",
      "type": "function"
    },
    {
      "inputs": [
        {
          "internalType": "uint256",
          "name": "tokenId",
          "type": "uint256"
        }
      ],
      "name": "ownerOf",
      "outputs": [
        {
          "internalType": "address",
          "name": "",
          "type": "address"
        }
      ],
      "stateMutability": "view",
      "type": "function"
    },
    {
      "inputs": [],
      "name": "renounceOwnership",
      "outputs": [],
      "stateMutability": "nonpayable",
      "type": "function"
    },
    {
      "inputs": [
        {
          "internalType": "bytes32",
          "name": "role",
          "type": "bytes32"
        },
        {
          "internalType": "address",
          "name": "account",
          "type": "address"
        }
      ],
      "name": "renounceRole",
      "outputs": [],
      "stateMutability": "nonpayable",
      "type": "function"
    },
    {
      "inputs": [
        {
          "internalType": "bytes32",
          "name": "role",
          "type": "bytes32"
        },
        {
          "internalType": "address",
          "name": "account",
          "type": "address"
        }
      ],
      "name": "revokeRole",
      "outputs": [],
      "stateMutability": "nonpayable",
      "type": "function"
    },
    {
      "inputs": [
        {
          "internalType": "address",
          "name": "from",
          "type": "address"
        },
        {
          "internalType": "address",
          "name": "to",
          "type": "address"
        },
        {
          "internalType": "uint256",
          "name": "tokenId",
          "type": "uint256"
        }
      ],
      "name": "safeTransferFrom",
      "outputs": [],
      "stateMutability": "nonpayable",
      "type": "function"
    },
    {
      "inputs": [
        {
          "internalType": "address",
          "name": "from",
          "type": "address"
        },
        {
          "internalType": "address",
          "name": "to",
          "type": "address"
        },
        {
          "internalType": "uint256",
          "name": "tokenId",
          "type": "uint256"
        },
        {
          "internalType": "bytes",
          "name": "data",
          "type": "bytes"
        }
      ],
      "name": "safeTransferFrom",
      "outputs": [],
      "stateMutability": "nonpayable",
      "type": "function"
    },
    {
      "inputs": [
        {
          "internalType": "address",
          "name": "operator",
          "type": "address"
        },
        {
          "internalType": "bool",
          "name": "approved",
          "type": "bool"
        }
      ],
      "name": "setApprovalForAll",
      "outputs": [],
      "stateMutability": "nonpayable",
      "type": "function"
    },
    {
      "inputs": [
        {
          "internalType": "bytes4",
          "name": "interfaceId",
          "type": "bytes4"
        }
      ],
      "name": "supportsInterface",
      "outputs": [
        {
          "internalType": "bool",
          "name": "",
          "type": "bool"
        }
      ],
      "stateMutability": "view",
      "type": "function"
    },
    {
      "inputs": [],
      "name": "symbol",
      "outputs": [
        {
          "internalType": "string",
          "name": "",
          "type": "string"
        }
      ],
      "stateMutability": "view",
      "type": "function"
    },
    {
      "inputs": [
        {
          "internalType": "uint32",
          "name": "tagId",
          "type": "uint32"
        }
      ],
      "name": "tagDescription",
      "outputs": [
        {
          "internalType": "string",
          "name": "",
          "type": "string"
        }
      ],
      "stateMutability": "view",
      "type": "function"
    },
    {
      "inputs": [
        {
          "internalType": "uint256",
          "name": "contributorId",
          "type": "uint256"
        }
      ],
      "name": "tokenURI",
      "outputs": [
        {
          "internalType": "string",
          "name": "",
          "type": "string"
        }
      ],
      "stateMutability": "view",
      "type": "function"
    },
    {
      "inputs": [],
      "name": "totalSupply",
      "outputs": [
        {
          "internalType": "uint256",
          "name": "",
          "type": "uint256"
        }
      ],
      "stateMutability": "view",
      "type": "function"
    },
    {
      "inputs": [],
      "name": "totalTags",
      "outputs": [
        {
          "internalType": "uint256",
          "name": "",
          "type": "uint256"
        }
      ],
      "stateMutability": "view",
      "type": "function"
    },
    {
      "inputs": [
        {
          "internalType": "address",
          "name": "from",
          "type": "address"
        },
        {
          "internalType": "address",
          "name": "to",
          "type": "address"
        },
        {
          "internalType": "uint256",
          "name": "tokenId",
          "type": "uint256"
        }
      ],
      "name": "transferFrom",
      "outputs": [],
      "stateMutability": "nonpayable",
      "type": "function"
    },
    {
      "inputs": [
        {
          "internalType": "address",
          "name": "newOwner",
          "type": "address"
        }
      ],
      "name": "transferOwnership",
      "outputs": [],
      "stateMutability": "nonpayable",
      "type": "function"
    },
    {
      "inputs": [
        {
          "internalType": "address",
          "name": "contributor",
          "type": "address"
        },
        {
          "internalType": "uint256",
          "name": "orderId",
          "type": "uint256"
        },
        {
          "internalType": "uint32",
          "name": "point",
          "type": "uint32"
        }
      ],
      "name": "updateRecord",
      "outputs": [],
      "stateMutability": "nonpayable",
      "type": "function"
    },
    {
      "inputs": [
        {
          "internalType": "uint32",
          "name": "tagId",
          "type": "uint32"
        },
        {
          "internalType": "string",
          "name": "desc",
          "type": "string"
        }
      ],
      "name": "updateTagDescription",
      "outputs": [],
      "stateMutability": "nonpayable",
      "type": "function"
    },
    {
      "inputs": [
        {
          "internalType": "uint32",
          "name": "amount",
          "type": "uint32"
        },
        {
          "internalType": "address",
          "name": "to",
          "type": "address"
        },
        {
          "internalType": "bytes",
          "name": "data",
          "type": "bytes"
        }
      ],
      "name": "usePoint",
      "outputs": [],
      "stateMutability": "nonpayable",
      "type": "function"
    }
  ],
  "transactionHash": "0x8bd86e3cf31e70b87fd9b1529319a57b44c3c51ea195a4a8546391110a723b6e",
  "args": [],
  "numDeployments": 6,
  "solcInputHash": "56538493ea578d2771e8ec0d9c27732c",
  "bytecode": "0x608060405234801561001057600080fd5b50615057806100206000396000f3fe608060405234801561001057600080fd5b50600436106102ac5760003560e01c806370a082311161017b578063b88d4fde116100d8578063dc9adfa81161008c578063ec87621c11610071578063ec87621c14610678578063f02ab9871461069f578063f2fde38b146106b257600080fd5b8063dc9adfa81461061c578063e985e9c51461062f57600080fd5b8063c87b56dd116100bd578063c87b56dd146105bf578063c9ddc264146105d2578063d547741f1461060957600080fd5b8063b88d4fde14610599578063c185bd10146105ac57600080fd5b806395d89b411161012f578063a22cb46511610114578063a22cb46514610553578063ac9650d814610566578063b85891ea1461058657600080fd5b806395d89b4114610543578063a217fddf1461054b57600080fd5b80637a6d4003116101605780637a6d4003146104cc5780638da5cb5b146104df57806391d14854146104fd57600080fd5b806370a08231146104b1578063715018a6146104c457600080fd5b8063248a9ca31161022957806342842e0e116101dd5780634cd88b76116101c25780634cd88b76146104785780636352211e1461048b57806367cf96aa1461049e57600080fd5b806342842e0e146104525780634585cdc11461046557600080fd5b806336568abe1161020e57806336568abe146103e85780633be09cb7146103fb5780633f6782d21461041b57600080fd5b8063248a9ca3146103b25780632f2ff15d146103d557600080fd5b8063095ea7b3116102805780631f36d212116102655780631f36d21214610357578063210661b71461037f57806323b872dd1461039f57600080fd5b8063095ea7b31461033957806318160ddd1461034e57600080fd5b8062e9236f146102b157806301ffc9a7146102c957806306fdde03146102ec578063081812fc14610301575b600080fd5b61012f545b6040519081526020015b60405180910390f35b6102dc6102d7366004613eb6565b6106c5565b60405190151581526020016102c0565b6102f46106e5565b6040516102c09190613f49565b61031461030f366004613f5c565b610777565b60405173ffffffffffffffffffffffffffffffffffffffff90911681526020016102c0565b61034c610347366004613f99565b6107ab565b005b610131546102b6565b61036a6103653660046140a6565b61093d565b60405163ffffffff90911681526020016102c0565b61039261038d366004613f99565b610a42565b6040516102c091906140db565b61034c6103ad366004614108565b610d45565b6102b66103c0366004613f5c565b60009081526097602052604090206001015490565b61034c6103e3366004614144565b610de6565b61034c6103f6366004614144565b610e0b565b61040e610409366004614170565b610ebe565b6040516102c091906141a3565b6102b6610429366004614210565b73ffffffffffffffffffffffffffffffffffffffff16600090815261012d602052604090205490565b61034c610460366004614108565b6110fd565b6102f461047336600461423f565b611118565b61034c61048636600461425a565b6111ce565b610314610499366004613f5c565b61138f565b6102b66104ac366004614210565b61141b565b6102b66104bf366004614210565b6114b8565b61034c611586565b61034c6104da3660046142be565b61159a565b60fb5473ffffffffffffffffffffffffffffffffffffffff16610314565b6102dc61050b366004614144565b600091825260976020908152604080842073ffffffffffffffffffffffffffffffffffffffff93909316845291905290205460ff1690565b6102f46118bc565b6102b6600081565b61034c6105613660046142fa565b6118cb565b610579610574366004614336565b6118d6565b6040516102c091906143ab565b61034c61059436600461442b565b6119cb565b61034c6105a73660046144b9565b611b11565b61034c6105ba366004614535565b611bb3565b6102f46105cd366004613f5c565b611e65565b6102b66105e0366004614210565b73ffffffffffffffffffffffffffffffffffffffff16600090815261012e602052604090205490565b61034c610617366004614144565b611ee5565b61034c61062a36600461456f565b611f0a565b6102dc61063d3660046145b3565b73ffffffffffffffffffffffffffffffffffffffff9182166000908152606a6020908152604080832093909416825291909152205460ff1690565b6102b67faf290d8680820aad922855f39b306097b20e28774d6c1ad35a20325630c3a02c81565b6103926106ad366004613f99565b61204c565b61034c6106c0366004614210565b6120ed565b60006106d0826121a4565b806106df57506106df82612287565b92915050565b6060606580546106f4906145dd565b80601f0160208091040260200160405190810160405280929190818152602001828054610720906145dd565b801561076d5780601f106107425761010080835404028352916020019161076d565b820191906000526020600020905b81548152906001019060200180831161075057829003601f168201915b5050505050905090565b6000610782826122dd565b5060009081526069602052604090205473ffffffffffffffffffffffffffffffffffffffff1690565b60006107b68261138f565b90508073ffffffffffffffffffffffffffffffffffffffff168373ffffffffffffffffffffffffffffffffffffffff161415610879576040517f08c379a000000000000000000000000000000000000000000000000000000000815260206004820152602160248201527f4552433732313a20617070726f76616c20746f2063757272656e74206f776e6560448201527f720000000000000000000000000000000000000000000000000000000000000060648201526084015b60405180910390fd5b3373ffffffffffffffffffffffffffffffffffffffff821614806108a257506108a2813361063d565b61092e576040517f08c379a000000000000000000000000000000000000000000000000000000000815260206004820152603e60248201527f4552433732313a20617070726f76652063616c6c6572206973206e6f7420746f60448201527f6b656e206f776e6572206e6f7220617070726f76656420666f7220616c6c00006064820152608401610870565b6109388383612368565b505050565b3360009081527fe0601880cdabed0469f97fd15da07fe74fbbb126935f404539f62180845d005f602052604081205460ff166109d5576040517f08c379a000000000000000000000000000000000000000000000000000000000815260206004820152600c60248201527f4f4e4c59204d414e4147455200000000000000000000000000000000000000006044820152606401610870565b61012f5463ffffffff116109e857600080fd5b61012f80546001810182556000919091528251610a2c917f232da9e50dad2971456a78fb5cd6ff6b75019984d6e918139ce990999420f97901906020850190613def565b5061012f546106df9060019061465a565b919050565b60408051606081018252600080825260208083018290528284018290523382527fe0601880cdabed0469f97fd15da07fe74fbbb126935f404539f62180845d005f9052919091205460ff16610af3576040517f08c379a000000000000000000000000000000000000000000000000000000000815260206004820152600c60248201527f4f4e4c59204d414e4147455200000000000000000000000000000000000000006044820152606401610870565b73ffffffffffffffffffffffffffffffffffffffff8316600090815261012d602052604090208054819084908110610b2d57610b2d614671565b600091825260209182902060408051606081018252919092015463ffffffff80821683526401000000008204811694830194909452680100000000000000009004909216908201529150825b8154610b879060019061465a565b811015610c8e5781610b9a8260016146a0565b81548110610baa57610baa614671565b90600052602060002001828281548110610bc657610bc6614671565b6000918252602090912082549101805463ffffffff9283167fffffffffffffffffffffffffffffffffffffffffffffffffffffffff0000000082168117835584547fffffffffffffffffffffffffffffffffffffffffffffffff0000000000000000909216176401000000009182900484169091021780825592547fffffffffffffffffffffffffffffffffffffffff00000000ffffffffffffffff909316680100000000000000009384900490921690920217905580610c86816146b8565b915050610b79565b5080805480610c9f57610c9f6146f1565b6000828152602090207fffffffffffffffffffffffffffffffffffffffffffffffffffffffffffffffff908201810180547fffffffffffffffffffffffffffffffffffffffff000000000000000000000000169055019055604082015163ffffffff1673ffffffffffffffffffffffffffffffffffffffff8516600090815261012e602052604081208054909190610d38908490614720565b9091555091949350505050565b610d4f3382612408565b610ddb576040517f08c379a000000000000000000000000000000000000000000000000000000000815260206004820152602e60248201527f4552433732313a2063616c6c6572206973206e6f7420746f6b656e206f776e6560448201527f72206e6f7220617070726f7665640000000000000000000000000000000000006064820152608401610870565b6109388383836124c8565b600082815260976020526040902060010154610e018161273a565b6109388383612744565b73ffffffffffffffffffffffffffffffffffffffff81163314610eb0576040517f08c379a000000000000000000000000000000000000000000000000000000000815260206004820152602f60248201527f416363657373436f6e74726f6c3a2063616e206f6e6c792072656e6f756e636560448201527f20726f6c657320666f722073656c6600000000000000000000000000000000006064820152608401610870565b610eba8282612838565b5050565b73ffffffffffffffffffffffffffffffffffffffff8316600090815261012d60209081526040808320805482518185028101850190935280835260609493849084015b82821015610f5a576000848152602090819020604080516060810182529185015463ffffffff80821684526401000000008204811684860152680100000000000000009091041690820152825260019092019101610f01565b5050505090506000610f9060018587610f7391906146a0565b610f7d919061465a565b60018451610f8b919061465a565b6128f3565b905080851115610ffc576040517f08c379a000000000000000000000000000000000000000000000000000000000815260206004820152600a60248201527f4e4f205245434f524453000000000000000000000000000000000000000000006044820152606401610870565b611006858261465a565b6110119060016146a0565b67ffffffffffffffff81111561102957611029613fc3565b60405190808252806020026020018201604052801561109257816020015b60408051606081018252600080825260208083018290529282015282527fffffffffffffffffffffffffffffffffffffffffffffffffffffffffffffffff9092019101816110475790505b509250845b8181116110f3578281815181106110b0576110b0614671565b60200260200101518487836110c5919061465a565b815181106110d5576110d5614671565b602002602001018190525080806110eb906146b8565b915050611097565b5050509392505050565b61093883838360405180602001604052806000815250611b11565b606061012f8263ffffffff168154811061113457611134614671565b906000526020600020018054611149906145dd565b80601f0160208091040260200160405190810160405280929190818152602001828054611175906145dd565b80156111c25780601f10611197576101008083540402835291602001916111c2565b820191906000526020600020905b8154815290600101906020018083116111a557829003601f168201915b50505050509050919050565b600054610100900460ff16158080156111ee5750600054600160ff909116105b806112085750303b158015611208575060005460ff166001145b611294576040517f08c379a000000000000000000000000000000000000000000000000000000000815260206004820152602e60248201527f496e697469616c697a61626c653a20636f6e747261637420697320616c72656160448201527f647920696e697469616c697a65640000000000000000000000000000000000006064820152608401610870565b600080547fffffffffffffffffffffffffffffffffffffffffffffffffffffffffffffff0016600117905580156112f257600080547fffffffffffffffffffffffffffffffffffffffffffffffffffffffffffff00ff166101001790555b6112fc838361290b565b6113046129ac565b61130c6129ac565b611317600033612a43565b61132033612a4d565b611328612a9c565b801561093857600080547fffffffffffffffffffffffffffffffffffffffffffffffffffffffffffff00ff169055604051600181527f7f26b83ff96e1f2b6a682f133852f6798a09c465da95921460cefb38474024989060200160405180910390a1505050565b60008181526067602052604081205473ffffffffffffffffffffffffffffffffffffffff16806106df576040517f08c379a000000000000000000000000000000000000000000000000000000000815260206004820152601860248201527f4552433732313a20696e76616c696420746f6b656e20494400000000000000006044820152606401610870565b600080611427836114b8565b1161148e576040517f08c379a000000000000000000000000000000000000000000000000000000000815260206004820152600d60248201527f4e4f204d454d42455253484950000000000000000000000000000000000000006044820152606401610870565b5073ffffffffffffffffffffffffffffffffffffffff166000908152610130602052604090205490565b600073ffffffffffffffffffffffffffffffffffffffff821661155d576040517f08c379a000000000000000000000000000000000000000000000000000000000815260206004820152602960248201527f4552433732313a2061646472657373207a65726f206973206e6f74206120766160448201527f6c6964206f776e657200000000000000000000000000000000000000000000006064820152608401610870565b5073ffffffffffffffffffffffffffffffffffffffff1660009081526068602052604090205490565b61158e612b3b565b6115986000612bbc565b565b3360009081527fe0601880cdabed0469f97fd15da07fe74fbbb126935f404539f62180845d005f602052604090205460ff16611632576040517f08c379a000000000000000000000000000000000000000000000000000000000815260206004820152600c60248201527f4f4e4c59204d414e4147455200000000000000000000000000000000000000006044820152606401610870565b60008163ffffffff16116116a2576040517f08c379a000000000000000000000000000000000000000000000000000000000815260206004820152600860248201527f4e4f54205a45524f0000000000000000000000000000000000000000000000006044820152606401610870565b73ffffffffffffffffffffffffffffffffffffffff8316600090815261012d60205260409020548210611731576040517f08c379a000000000000000000000000000000000000000000000000000000000815260206004820152601060248201527f494e56414c4944204f52444552204944000000000000000000000000000000006044820152606401610870565b73ffffffffffffffffffffffffffffffffffffffff8316600090815261012d6020526040812080548490811061176957611769614671565b60009182526020808320919091015473ffffffffffffffffffffffffffffffffffffffff8716835261012d909152604090912080546801000000000000000090920463ffffffff1692508391859081106117c5576117c5614671565b600091825260209091200180547fffffffffffffffffffffffffffffffffffffffff00000000ffffffffffffffff166801000000000000000063ffffffff93841602179055828116908216101561186d5761182c6118238284614794565b63ffffffff1690565b73ffffffffffffffffffffffffffffffffffffffff8516600090815261012e6020526040812080549091906118629084906147b9565b909155506118b69050565b61187a6118238383614794565b73ffffffffffffffffffffffffffffffffffffffff8516600090815261012e6020526040812080549091906118b0908490614720565b90915550505b50505050565b6060606680546106f4906145dd565b610eba338383612c33565b60608167ffffffffffffffff8111156118f1576118f1613fc3565b60405190808252806020026020018201604052801561192457816020015b606081526020019060019003908161190f5790505b50905060005b828110156119c4576119943085858481811061194857611948614671565b905060200281019061195a919061482d565b8080601f016020809104026020016040519081016040528093929190818152602001838380828437600092019190915250612d6192505050565b8282815181106119a6576119a6614671565b602002602001018190525080806119bc906146b8565b91505061192a565b5092915050565b33600090815261012e602052604081205490811380156119f15750808563ffffffff1611155b611a57576040517f08c379a000000000000000000000000000000000000000000000000000000000815260206004820152600c60248201527f494e53554646494349454e5400000000000000000000000000000000000000006044820152606401610870565b33600090815261012e60205260408120805463ffffffff88169290611a7d908490614720565b90915550506040517fc7bc33f000000000000000000000000000000000000000000000000000000000815273ffffffffffffffffffffffffffffffffffffffff85169063c7bc33f090611ad890889087908790600401614899565b600060405180830381600087803b158015611af257600080fd5b505af1158015611b06573d6000803e3d6000fd5b505050505050505050565b611b1b3383612408565b611ba7576040517f08c379a000000000000000000000000000000000000000000000000000000000815260206004820152602e60248201527f4552433732313a2063616c6c6572206973206e6f7420746f6b656e206f776e6560448201527f72206e6f7220617070726f7665640000000000000000000000000000000000006064820152608401610870565b6118b684848484612ea0565b3360009081527fe0601880cdabed0469f97fd15da07fe74fbbb126935f404539f62180845d005f602052604090205460ff16611c4b576040517f08c379a000000000000000000000000000000000000000000000000000000000815260206004820152600c60248201527f4f4e4c59204d414e4147455200000000000000000000000000000000000000006044820152606401610870565b61012f5463ffffffff831610611cbd576040517f08c379a000000000000000000000000000000000000000000000000000000000815260206004820152600e60248201527f494e56414c4944205441472049440000000000000000000000000000000000006044820152606401610870565b60008163ffffffff1611611d2d576040517f08c379a000000000000000000000000000000000000000000000000000000000815260206004820152600860248201527f4e4f54205a45524f0000000000000000000000000000000000000000000000006044820152606401610870565b611d36836114b8565b611d4357611d4383612a4d565b73ffffffffffffffffffffffffffffffffffffffff8316600090815261012d60209081526040808320815160608101835263ffffffff808816825242811682860190815287821694830194855283546001810185559387529490952090519101805493519251851668010000000000000000027fffffffffffffffffffffffffffffffffffffffff00000000ffffffffffffffff938616640100000000027fffffffffffffffffffffffffffffffffffffffffffffffff000000000000000090951692909516919091179290921716919091179055611e258163ffffffff1690565b73ffffffffffffffffffffffffffffffffffffffff8416600090815261012e602052604081208054909190611e5b9084906147b9565b9091555050505050565b60606000611e728361138f565b90506000611eba611e8285612f43565b611e8b84613075565b611e9485613129565b604051602001611ea6939291906148f3565b60405160208183030381529060405261338a565b905080604051602001611ecd9190614a9f565b60405160208183030381529060405292505050919050565b600082815260976020526040902060010154611f008161273a565b6109388383612838565b3360009081527fe0601880cdabed0469f97fd15da07fe74fbbb126935f404539f62180845d005f602052604090205460ff16611fa2576040517f08c379a000000000000000000000000000000000000000000000000000000000815260206004820152600c60248201527f4f4e4c59204d414e4147455200000000000000000000000000000000000000006044820152606401610870565b61012f5463ffffffff831610612014576040517f08c379a000000000000000000000000000000000000000000000000000000000815260206004820152600e60248201527f494e56414c4944205441472049440000000000000000000000000000000000006044820152606401610870565b8061012f8363ffffffff168154811061202f5761202f614671565b906000526020600020019080519060200190610938929190613def565b604080516060810182526000808252602080830182905282840182905273ffffffffffffffffffffffffffffffffffffffff8616825261012d90529190912080548390811061209d5761209d614671565b600091825260209182902060408051606081018252919092015463ffffffff8082168352640100000000820481169483019490945268010000000000000000900490921690820152905092915050565b6120f5612b3b565b73ffffffffffffffffffffffffffffffffffffffff8116612198576040517f08c379a000000000000000000000000000000000000000000000000000000000815260206004820152602660248201527f4f776e61626c653a206e6577206f776e657220697320746865207a65726f206160448201527f64647265737300000000000000000000000000000000000000000000000000006064820152608401610870565b6121a181612bbc565b50565b60007fffffffff0000000000000000000000000000000000000000000000000000000082167f80ac58cd00000000000000000000000000000000000000000000000000000000148061223757507fffffffff0000000000000000000000000000000000000000000000000000000082167f5b5e139f00000000000000000000000000000000000000000000000000000000145b806106df57507f01ffc9a7000000000000000000000000000000000000000000000000000000007fffffffff000000000000000000000000000000000000000000000000000000008316146106df565b60007fffffffff0000000000000000000000000000000000000000000000000000000082167f7965db0b0000000000000000000000000000000000000000000000000000000014806106df57506106df826121a4565b60008181526067602052604090205473ffffffffffffffffffffffffffffffffffffffff166121a1576040517f08c379a000000000000000000000000000000000000000000000000000000000815260206004820152601860248201527f4552433732313a20696e76616c696420746f6b656e20494400000000000000006044820152606401610870565b600081815260696020526040902080547fffffffffffffffffffffffff00000000000000000000000000000000000000001673ffffffffffffffffffffffffffffffffffffffff841690811790915581906123c28261138f565b73ffffffffffffffffffffffffffffffffffffffff167f8c5be1e5ebec7d5bd14f71427d1e84f3dd0314c0f7b2291e5b200ac8c7c3b92560405160405180910390a45050565b6000806124148361138f565b90508073ffffffffffffffffffffffffffffffffffffffff168473ffffffffffffffffffffffffffffffffffffffff161480612482575073ffffffffffffffffffffffffffffffffffffffff8082166000908152606a602090815260408083209388168352929052205460ff165b806124c057508373ffffffffffffffffffffffffffffffffffffffff166124a884610777565b73ffffffffffffffffffffffffffffffffffffffff16145b949350505050565b8273ffffffffffffffffffffffffffffffffffffffff166124e88261138f565b73ffffffffffffffffffffffffffffffffffffffff161461258b576040517f08c379a000000000000000000000000000000000000000000000000000000000815260206004820152602560248201527f4552433732313a207472616e736665722066726f6d20696e636f72726563742060448201527f6f776e65720000000000000000000000000000000000000000000000000000006064820152608401610870565b73ffffffffffffffffffffffffffffffffffffffff821661262d576040517f08c379a0000000000000000000000000000000000000000000000000000000008152602060048201526024808201527f4552433732313a207472616e7366657220746f20746865207a65726f2061646460448201527f72657373000000000000000000000000000000000000000000000000000000006064820152608401610870565b6126388383836134de565b612643600082612368565b73ffffffffffffffffffffffffffffffffffffffff8316600090815260686020526040812080546001929061267990849061465a565b909155505073ffffffffffffffffffffffffffffffffffffffff821660009081526068602052604081208054600192906126b49084906146a0565b909155505060008181526067602052604080822080547fffffffffffffffffffffffff00000000000000000000000000000000000000001673ffffffffffffffffffffffffffffffffffffffff86811691821790925591518493918716917fddf252ad1be2c89b69c2b068fc378daa952ba7f163c4a11628f55a4df523b3ef91a4505050565b6121a1813361355c565b600082815260976020908152604080832073ffffffffffffffffffffffffffffffffffffffff8516845290915290205460ff16610eba57600082815260976020908152604080832073ffffffffffffffffffffffffffffffffffffffff85168452909152902080547fffffffffffffffffffffffffffffffffffffffffffffffffffffffffffffff001660011790556127da3390565b73ffffffffffffffffffffffffffffffffffffffff168173ffffffffffffffffffffffffffffffffffffffff16837f2f8788117e7eff1d82e926ec794901d17c78024a50270940304540a733656f0d60405160405180910390a45050565b600082815260976020908152604080832073ffffffffffffffffffffffffffffffffffffffff8516845290915290205460ff1615610eba57600082815260976020908152604080832073ffffffffffffffffffffffffffffffffffffffff8516808552925280832080547fffffffffffffffffffffffffffffffffffffffffffffffffffffffffffffff0016905551339285917ff6391f5c32d9c69d2a47ea670b442974b53935d1edc7fd64eb21e047a839171b9190a45050565b60008183106129025781612904565b825b9392505050565b600054610100900460ff166129a2576040517f08c379a000000000000000000000000000000000000000000000000000000000815260206004820152602b60248201527f496e697469616c697a61626c653a20636f6e7472616374206973206e6f74206960448201527f6e697469616c697a696e670000000000000000000000000000000000000000006064820152608401610870565b610eba828261362e565b600054610100900460ff16611598576040517f08c379a000000000000000000000000000000000000000000000000000000000815260206004820152602b60248201527f496e697469616c697a61626c653a20636f6e7472616374206973206e6f74206960448201527f6e697469616c697a696e670000000000000000000000000000000000000000006064820152608401610870565b610eba8282612744565b612a5a81610131546136ec565b610131805473ffffffffffffffffffffffffffffffffffffffff8316600090815261013060205260408120829055909190612a94836146b8565b919050555050565b600054610100900460ff16612b33576040517f08c379a000000000000000000000000000000000000000000000000000000000815260206004820152602b60248201527f496e697469616c697a61626c653a20636f6e7472616374206973206e6f74206960448201527f6e697469616c697a696e670000000000000000000000000000000000000000006064820152608401610870565b6115986138ba565b60fb5473ffffffffffffffffffffffffffffffffffffffff163314611598576040517f08c379a000000000000000000000000000000000000000000000000000000000815260206004820181905260248201527f4f776e61626c653a2063616c6c6572206973206e6f7420746865206f776e65726044820152606401610870565b60fb805473ffffffffffffffffffffffffffffffffffffffff8381167fffffffffffffffffffffffff0000000000000000000000000000000000000000831681179093556040519116919082907f8be0079c531659141344cd1fd0a4f28419497f9722a3daafe3b4186f6b6457e090600090a35050565b8173ffffffffffffffffffffffffffffffffffffffff168373ffffffffffffffffffffffffffffffffffffffff161415612cc9576040517f08c379a000000000000000000000000000000000000000000000000000000000815260206004820152601960248201527f4552433732313a20617070726f766520746f2063616c6c6572000000000000006044820152606401610870565b73ffffffffffffffffffffffffffffffffffffffff8381166000818152606a602090815260408083209487168084529482529182902080547fffffffffffffffffffffffffffffffffffffffffffffffffffffffffffffff001686151590811790915591519182527f17307eab39ab6107e8899845ad3d59bd9653f200f220920489ca2b5937696c31910160405180910390a3505050565b606073ffffffffffffffffffffffffffffffffffffffff83163b612e07576040517f08c379a000000000000000000000000000000000000000000000000000000000815260206004820152602660248201527f416464726573733a2064656c65676174652063616c6c20746f206e6f6e2d636f60448201527f6e747261637400000000000000000000000000000000000000000000000000006064820152608401610870565b6000808473ffffffffffffffffffffffffffffffffffffffff1684604051612e2f9190614ae4565b600060405180830381855af49150503d8060008114612e6a576040519150601f19603f3d011682016040523d82523d6000602084013e612e6f565b606091505b5091509150612e978282604051806060016040528060278152602001614ffb6027913961395a565b95945050505050565b612eab8484846124c8565b612eb7848484846139ad565b6118b6576040517f08c379a000000000000000000000000000000000000000000000000000000000815260206004820152603260248201527f4552433732313a207472616e7366657220746f206e6f6e20455243373231526560448201527f63656976657220696d706c656d656e74657200000000000000000000000000006064820152608401610870565b606081612f8357505060408051808201909152600181527f3000000000000000000000000000000000000000000000000000000000000000602082015290565b8160005b8115612fad5780612f97816146b8565b9150612fa69050600a83614b2f565b9150612f87565b60008167ffffffffffffffff811115612fc857612fc8613fc3565b6040519080825280601f01601f191660200182016040528015612ff2576020820181803683370190505b5090505b84156124c05761300760018361465a565b9150613014600a86614b43565b61301f9060306146a0565b60f81b81838151811061303457613034614671565b60200101907effffffffffffffffffffffffffffffffffffffffffffffffffffffffffffff1916908160001a90535061306e600a86614b2f565b9450612ff6565b73ffffffffffffffffffffffffffffffffffffffff8116600090815261012e60205260408120546060918082136130db576130b76130b283614b57565b612f43565b6040516020016130c79190614b90565b6040516020818303038152906040526130e4565b6130e482612f43565b73ffffffffffffffffffffffffffffffffffffffff8516600090815261012d602052604090205490915061311790612f43565b81604051602001611ecd929190614bd5565b73ffffffffffffffffffffffffffffffffffffffff8116600090815261012d60205260409020546060908015613371576040805160208082018352600080835273ffffffffffffffffffffffffffffffffffffffff8716815261012d90915291822080549194506131c19183906131a2576131a2614671565b600091825260209091200154640100000000900463ffffffff16612f43565b905082816040516020016131d6929190614cf7565b60405160208183030381529060405292505060005b8181101561336b5773ffffffffffffffffffffffffffffffffffffffff8416600090815261012d6020526040812080548390811061322b5761322b614671565b6000918252602080832060408051606081018252939091015463ffffffff808216808652640100000000830482169486019490945268010000000000000000909104169083015261012f805492945091811061328957613289614671565b90600052602060002001805461329e906145dd565b80601f01602080910402602001604051908101604052809291908181526020018280546132ca906145dd565b80156133175780601f106132ec57610100808354040283529160200191613317565b820191906000526020600020905b8154815290600101906020018083116132fa57829003601f168201915b505050505090508481613333846040015163ffffffff16612f43565b60405160200161334593929190614da0565b604051602081830303815290604052945050508080613363906146b8565b9150506131eb565b50613384565b6040518060200160405280600081525091505b50919050565b60608151600014156133aa57505060408051602081019091526000815290565b6000604051806060016040528060408152602001614fbb60409139905060006003845160026133d991906146a0565b6133e39190614b2f565b6133ee906004614e61565b67ffffffffffffffff81111561340657613406613fc3565b6040519080825280601f01601f191660200182016040528015613430576020820181803683370190505b509050600182016020820185865187015b8082101561349c576003820191508151603f8160121c168501518453600184019350603f81600c1c168501518453600184019350603f8160061c168501518453600184019350603f8116850151845350600183019250613441565b50506003865106600181146134b857600281146134cb576134d3565b603d6001830353603d60028303536134d3565b603d60018303535b509195945050505050565b73ffffffffffffffffffffffffffffffffffffffff831615610938576040517f08c379a000000000000000000000000000000000000000000000000000000000815260206004820152601060248201527f4e4f542d5452414e5346455241424c45000000000000000000000000000000006044820152606401610870565b600082815260976020908152604080832073ffffffffffffffffffffffffffffffffffffffff8516845290915290205460ff16610eba576135b48173ffffffffffffffffffffffffffffffffffffffff166014613bac565b6135bf836020613bac565b6040516020016135d0929190614e9e565b604080517fffffffffffffffffffffffffffffffffffffffffffffffffffffffffffffffe0818403018152908290527f08c379a000000000000000000000000000000000000000000000000000000000825261087091600401613f49565b600054610100900460ff166136c5576040517f08c379a000000000000000000000000000000000000000000000000000000000815260206004820152602b60248201527f496e697469616c697a61626c653a20636f6e7472616374206973206e6f74206960448201527f6e697469616c697a696e670000000000000000000000000000000000000000006064820152608401610870565b81516136d8906065906020850190613def565b508051610938906066906020840190613def565b73ffffffffffffffffffffffffffffffffffffffff8216613769576040517f08c379a000000000000000000000000000000000000000000000000000000000815260206004820181905260248201527f4552433732313a206d696e7420746f20746865207a65726f20616464726573736044820152606401610870565b60008181526067602052604090205473ffffffffffffffffffffffffffffffffffffffff16156137f5576040517f08c379a000000000000000000000000000000000000000000000000000000000815260206004820152601c60248201527f4552433732313a20746f6b656e20616c7265616479206d696e746564000000006044820152606401610870565b613801600083836134de565b73ffffffffffffffffffffffffffffffffffffffff821660009081526068602052604081208054600192906138379084906146a0565b909155505060008181526067602052604080822080547fffffffffffffffffffffffff00000000000000000000000000000000000000001673ffffffffffffffffffffffffffffffffffffffff861690811790915590518392907fddf252ad1be2c89b69c2b068fc378daa952ba7f163c4a11628f55a4df523b3ef908290a45050565b600054610100900460ff16613951576040517f08c379a000000000000000000000000000000000000000000000000000000000815260206004820152602b60248201527f496e697469616c697a61626c653a20636f6e7472616374206973206e6f74206960448201527f6e697469616c697a696e670000000000000000000000000000000000000000006064820152608401610870565b61159833612bbc565b60608315613969575081612904565b8251156139795782518084602001fd5b816040517f08c379a00000000000000000000000000000000000000000000000000000000081526004016108709190613f49565b600073ffffffffffffffffffffffffffffffffffffffff84163b15613ba1576040517f150b7a0200000000000000000000000000000000000000000000000000000000815273ffffffffffffffffffffffffffffffffffffffff85169063150b7a0290613a24903390899088908890600401614f1f565b602060405180830381600087803b158015613a3e57600080fd5b505af1925050508015613a8c575060408051601f3d9081017fffffffffffffffffffffffffffffffffffffffffffffffffffffffffffffffe0168201909252613a8991810190614f68565b60015b613b56573d808015613aba576040519150601f19603f3d011682016040523d82523d6000602084013e613abf565b606091505b508051613b4e576040517f08c379a000000000000000000000000000000000000000000000000000000000815260206004820152603260248201527f4552433732313a207472616e7366657220746f206e6f6e20455243373231526560448201527f63656976657220696d706c656d656e74657200000000000000000000000000006064820152608401610870565b805181602001fd5b7fffffffff00000000000000000000000000000000000000000000000000000000167f150b7a02000000000000000000000000000000000000000000000000000000001490506124c0565b506001949350505050565b60606000613bbb836002614e61565b613bc69060026146a0565b67ffffffffffffffff811115613bde57613bde613fc3565b6040519080825280601f01601f191660200182016040528015613c08576020820181803683370190505b5090507f300000000000000000000000000000000000000000000000000000000000000081600081518110613c3f57613c3f614671565b60200101907effffffffffffffffffffffffffffffffffffffffffffffffffffffffffffff1916908160001a9053507f780000000000000000000000000000000000000000000000000000000000000081600181518110613ca257613ca2614671565b60200101907effffffffffffffffffffffffffffffffffffffffffffffffffffffffffffff1916908160001a9053506000613cde846002614e61565b613ce99060016146a0565b90505b6001811115613d86577f303132333435363738396162636465660000000000000000000000000000000085600f1660108110613d2a57613d2a614671565b1a60f81b828281518110613d4057613d40614671565b60200101907effffffffffffffffffffffffffffffffffffffffffffffffffffffffffffff1916908160001a90535060049490941c93613d7f81614f85565b9050613cec565b508315612904576040517f08c379a000000000000000000000000000000000000000000000000000000000815260206004820181905260248201527f537472696e67733a20686578206c656e67746820696e73756666696369656e746044820152606401610870565b828054613dfb906145dd565b90600052602060002090601f016020900481019282613e1d5760008555613e63565b82601f10613e3657805160ff1916838001178555613e63565b82800160010185558215613e63579182015b82811115613e63578251825591602001919060010190613e48565b50613e6f929150613e73565b5090565b5b80821115613e6f5760008155600101613e74565b7fffffffff00000000000000000000000000000000000000000000000000000000811681146121a157600080fd5b600060208284031215613ec857600080fd5b813561290481613e88565b60005b83811015613eee578181015183820152602001613ed6565b838111156118b65750506000910152565b60008151808452613f17816020860160208601613ed3565b601f017fffffffffffffffffffffffffffffffffffffffffffffffffffffffffffffffe0169290920160200192915050565b6020815260006129046020830184613eff565b600060208284031215613f6e57600080fd5b5035919050565b803573ffffffffffffffffffffffffffffffffffffffff81168114610a3d57600080fd5b60008060408385031215613fac57600080fd5b613fb583613f75565b946020939093013593505050565b7f4e487b7100000000000000000000000000000000000000000000000000000000600052604160045260246000fd5b600067ffffffffffffffff8084111561400d5761400d613fc3565b604051601f85017fffffffffffffffffffffffffffffffffffffffffffffffffffffffffffffffe0908116603f0116810190828211818310171561405357614053613fc3565b8160405280935085815286868601111561406c57600080fd5b858560208301376000602087830101525050509392505050565b600082601f83011261409757600080fd5b61290483833560208501613ff2565b6000602082840312156140b857600080fd5b813567ffffffffffffffff8111156140cf57600080fd5b6124c084828501614086565b606081016106df8284805163ffffffff908116835260208083015182169084015260409182015116910152565b60008060006060848603121561411d57600080fd5b61412684613f75565b925061413460208501613f75565b9150604084013590509250925092565b6000806040838503121561415757600080fd5b8235915061416760208401613f75565b90509250929050565b60008060006060848603121561418557600080fd5b61418e84613f75565b95602085013595506040909401359392505050565b6020808252825182820181905260009190848201906040850190845b81811015614204576141f1838551805163ffffffff908116835260208083015182169084015260409182015116910152565b92840192606092909201916001016141bf565b50909695505050505050565b60006020828403121561422257600080fd5b61290482613f75565b803563ffffffff81168114610a3d57600080fd5b60006020828403121561425157600080fd5b6129048261422b565b6000806040838503121561426d57600080fd5b823567ffffffffffffffff8082111561428557600080fd5b61429186838701614086565b935060208501359150808211156142a757600080fd5b506142b485828601614086565b9150509250929050565b6000806000606084860312156142d357600080fd5b6142dc84613f75565b9250602084013591506142f16040850161422b565b90509250925092565b6000806040838503121561430d57600080fd5b61431683613f75565b91506020830135801515811461432b57600080fd5b809150509250929050565b6000806020838503121561434957600080fd5b823567ffffffffffffffff8082111561436157600080fd5b818501915085601f83011261437557600080fd5b81358181111561438457600080fd5b8660208260051b850101111561439957600080fd5b60209290920196919550909350505050565b6000602080830181845280855180835260408601915060408160051b870101925083870160005b8281101561441e577fffffffffffffffffffffffffffffffffffffffffffffffffffffffffffffffc088860301845261440c858351613eff565b945092850192908501906001016143d2565b5092979650505050505050565b6000806000806060858703121561444157600080fd5b61444a8561422b565b935061445860208601613f75565b9250604085013567ffffffffffffffff8082111561447557600080fd5b818701915087601f83011261448957600080fd5b81358181111561449857600080fd5b8860208285010111156144aa57600080fd5b95989497505060200194505050565b600080600080608085870312156144cf57600080fd5b6144d885613f75565b93506144e660208601613f75565b925060408501359150606085013567ffffffffffffffff81111561450957600080fd5b8501601f8101871361451a57600080fd5b61452987823560208401613ff2565b91505092959194509250565b60008060006060848603121561454a57600080fd5b61455384613f75565b92506145616020850161422b565b91506142f16040850161422b565b6000806040838503121561458257600080fd5b61458b8361422b565b9150602083013567ffffffffffffffff8111156145a757600080fd5b6142b485828601614086565b600080604083850312156145c657600080fd5b6145cf83613f75565b915061416760208401613f75565b600181811c908216806145f157607f821691505b60208210811415613384577f4e487b7100000000000000000000000000000000000000000000000000000000600052602260045260246000fd5b7f4e487b7100000000000000000000000000000000000000000000000000000000600052601160045260246000fd5b60008282101561466c5761466c61462b565b500390565b7f4e487b7100000000000000000000000000000000000000000000000000000000600052603260045260246000fd5b600082198211156146b3576146b361462b565b500190565b60007fffffffffffffffffffffffffffffffffffffffffffffffffffffffffffffffff8214156146ea576146ea61462b565b5060010190565b7f4e487b7100000000000000000000000000000000000000000000000000000000600052603160045260246000fd5b6000808312837f80000000000000000000000000000000000000000000000000000000000000000183128115161561475a5761475a61462b565b837f7fffffffffffffffffffffffffffffffffffffffffffffffffffffffffffffff01831381161561478e5761478e61462b565b50500390565b600063ffffffff838116908316818110156147b1576147b161462b565b039392505050565b6000808212827f7fffffffffffffffffffffffffffffffffffffffffffffffffffffffffffffff038413811516156147f3576147f361462b565b827f80000000000000000000000000000000000000000000000000000000000000000384128116156148275761482761462b565b50500190565b60008083357fffffffffffffffffffffffffffffffffffffffffffffffffffffffffffffffe184360301811261486257600080fd5b83018035915067ffffffffffffffff82111561487d57600080fd5b60200191503681900382131561489257600080fd5b9250929050565b63ffffffff8416815260406020820152816040820152818360608301376000818301606090810191909152601f9092017fffffffffffffffffffffffffffffffffffffffffffffffffffffffffffffffe016010192915050565b7f7b0000000000000000000000000000000000000000000000000000000000000081527f226e616d65223a2022434f4e5452494255544f52202300000000000000000000600182015260008451614951816017850160208901613ed3565b7f222c2000000000000000000000000000000000000000000000000000000000006017918401918201527f226465736372697074696f6e223a202250414e47454120436f6e747269627574601a8201527f696f6e20506f696e742c2074686973204e465420726570726573656e74732063603a8201527f6f6e747269627574696f6e20706f696e7420666f722050414e47454120636f6e605a8201527f7472696275746f7273222c000000000000000000000000000000000000000000607a8201527f2261747472696275746573223a205b000000000000000000000000000000000060858201528451614a4c816094840160208901613ed3565b8451910190614a62816094840160208801613ed3565b614a946094828401017f5d7d000000000000000000000000000000000000000000000000000000000000815260020190565b979650505050505050565b7f646174613a6170706c69636174696f6e2f6a736f6e3b6261736536342c000000815260008251614ad781601d850160208701613ed3565b91909101601d0192915050565b60008251614af6818460208701613ed3565b9190910192915050565b7f4e487b7100000000000000000000000000000000000000000000000000000000600052601260045260246000fd5b600082614b3e57614b3e614b00565b500490565b600082614b5257614b52614b00565b500690565b60007f8000000000000000000000000000000000000000000000000000000000000000821415614b8957614b8961462b565b5060000390565b7f2d00000000000000000000000000000000000000000000000000000000000000815260008251614bc8816001850160208701613ed3565b9190910160010192915050565b7f7b22646973706c61795f74797065223a20226e756d626572222c20227472616981527f745f74797065223a226e756d4f66436f6e747269627574696f6e73222c22766160208201527f6c7565223a000000000000000000000000000000000000000000000000000000604082015260008351614c59816045850160208801613ed3565b80830190507f7d000000000000000000000000000000000000000000000000000000000000008060458301527f2c7b22646973706c61795f74797065223a20226e756d626572222c202274726160468301527f69745f74797065223a22746f74616c506f696e7473222c2276616c7565223a0060668301528451614ce4816085850160208901613ed3565b6085920191820152608601949350505050565b60008351614d09818460208801613ed3565b80830190507f2c7b22646973706c61795f74797065223a202264617465222c2022747261697481527f5f74797065223a226a6f696e44617465222c2276616c7565223a00000000000060208201528351614d6a81603a840160208801613ed3565b7f7d00000000000000000000000000000000000000000000000000000000000000603a9290910191820152603b01949350505050565b60008451614db2818460208901613ed3565b7f2c7b2274726169745f74797065223a22000000000000000000000000000000009083019081528451614dec816010840160208901613ed3565b7f2c222c2276616c7565223a202200000000000000000000000000000000000000601092909101918201528351614e2a81601d840160208801613ed3565b7f227d000000000000000000000000000000000000000000000000000000000000601d9290910191820152601f0195945050505050565b6000817fffffffffffffffffffffffffffffffffffffffffffffffffffffffffffffffff0483118215151615614e9957614e9961462b565b500290565b7f416363657373436f6e74726f6c3a206163636f756e7420000000000000000000815260008351614ed6816017850160208801613ed3565b7f206973206d697373696e6720726f6c65200000000000000000000000000000006017918401918201528351614f13816028840160208801613ed3565b01602801949350505050565b600073ffffffffffffffffffffffffffffffffffffffff808716835280861660208401525083604083015260806060830152614f5e6080830184613eff565b9695505050505050565b600060208284031215614f7a57600080fd5b815161290481613e88565b600081614f9457614f9461462b565b507fffffffffffffffffffffffffffffffffffffffffffffffffffffffffffffffff019056fe4142434445464748494a4b4c4d4e4f505152535455565758595a6162636465666768696a6b6c6d6e6f707172737475767778797a303132333435363738392b2f416464726573733a206c6f772d6c6576656c2064656c65676174652063616c6c206661696c6564a2646970667358221220c3ad1afea0e471bbce2218eceab53a7b8b033c7f1cbe3f1a6c8478c06644c80a64736f6c63430008090033",
  "devdoc": {
    "kind": "dev",
    "methods": {
      "approve(address,uint256)": {
        "details": "See {IERC721-approve}."
      },
      "balanceOf(address)": {
        "details": "See {IERC721-balanceOf}."
      },
      "getApproved(uint256)": {
        "details": "See {IERC721-getApproved}."
      },
      "getRoleAdmin(bytes32)": {
        "details": "Returns the admin role that controls `role`. See {grantRole} and {revokeRole}. To change a role's admin, use {_setRoleAdmin}."
      },
      "grantRole(bytes32,address)": {
        "details": "Grants `role` to `account`. If `account` had not been already granted `role`, emits a {RoleGranted} event. Requirements: - the caller must have ``role``'s admin role. May emit a {RoleGranted} event."
      },
      "hasRole(bytes32,address)": {
        "details": "Returns `true` if `account` has been granted `role`."
      },
      "isApprovedForAll(address,address)": {
        "details": "See {IERC721-isApprovedForAll}."
      },
      "multicall(bytes[])": {
        "details": "Receives and executes a batch of function calls on this contract."
      },
      "name()": {
        "details": "See {IERC721Metadata-name}."
      },
      "owner()": {
        "details": "Returns the address of the current owner."
      },
      "ownerOf(uint256)": {
        "details": "See {IERC721-ownerOf}."
      },
      "renounceOwnership()": {
        "details": "Leaves the contract without owner. It will not be possible to call `onlyOwner` functions anymore. Can only be called by the current owner. NOTE: Renouncing ownership will leave the contract without an owner, thereby removing any functionality that is only available to the owner."
      },
      "renounceRole(bytes32,address)": {
        "details": "Revokes `role` from the calling account. Roles are often managed via {grantRole} and {revokeRole}: this function's purpose is to provide a mechanism for accounts to lose their privileges if they are compromised (such as when a trusted device is misplaced). If the calling account had been revoked `role`, emits a {RoleRevoked} event. Requirements: - the caller must be `account`. May emit a {RoleRevoked} event."
      },
      "revokeRole(bytes32,address)": {
        "details": "Revokes `role` from `account`. If `account` had been granted `role`, emits a {RoleRevoked} event. Requirements: - the caller must have ``role``'s admin role. May emit a {RoleRevoked} event."
      },
      "safeTransferFrom(address,address,uint256)": {
        "details": "See {IERC721-safeTransferFrom}."
      },
      "safeTransferFrom(address,address,uint256,bytes)": {
        "details": "See {IERC721-safeTransferFrom}."
      },
      "setApprovalForAll(address,bool)": {
        "details": "See {IERC721-setApprovalForAll}."
      },
      "symbol()": {
        "details": "See {IERC721Metadata-symbol}."
      },
      "transferFrom(address,address,uint256)": {
        "details": "See {IERC721-transferFrom}."
      },
      "transferOwnership(address)": {
        "details": "Transfers ownership of the contract to a new account (`newOwner`). Can only be called by the current owner."
      }
    },
    "version": 1
  },
  "userdoc": {
    "kind": "user",
    "methods": {
      "createRecord(address,uint32,uint32)": {
        "notice": "create contribution record"
      },
      "deleteRecord(address,uint256)": {
        "notice": "delete contribution record"
      },
      "tagDescription(uint32)": {
        "notice": "return contribution tag description"
      },
      "updateRecord(address,uint256,uint32)": {
        "notice": "modify contribution record"
      }
    },
    "notice": "Contribution Point membership NFT",
    "version": 1
  },
  "storageLayout": {
    "storage": [
      {
        "astId": 551,
        "contract": "contracts/ContributionPoint.sol:ContributionPoint",
        "label": "_initialized",
        "offset": 0,
        "slot": "0",
        "type": "t_uint8"
      },
      {
        "astId": 554,
        "contract": "contracts/ContributionPoint.sol:ContributionPoint",
        "label": "_initializing",
        "offset": 1,
        "slot": "0",
        "type": "t_bool"
      },
      {
        "astId": 2032,
        "contract": "contracts/ContributionPoint.sol:ContributionPoint",
        "label": "__gap",
        "offset": 0,
        "slot": "1",
        "type": "t_array(t_uint256)50_storage"
      },
      {
        "astId": 2411,
        "contract": "contracts/ContributionPoint.sol:ContributionPoint",
        "label": "__gap",
        "offset": 0,
        "slot": "51",
        "type": "t_array(t_uint256)50_storage"
      },
      {
        "astId": 724,
        "contract": "contracts/ContributionPoint.sol:ContributionPoint",
        "label": "_name",
        "offset": 0,
        "slot": "101",
        "type": "t_string_storage"
      },
      {
        "astId": 726,
        "contract": "contracts/ContributionPoint.sol:ContributionPoint",
        "label": "_symbol",
        "offset": 0,
        "slot": "102",
        "type": "t_string_storage"
      },
      {
        "astId": 730,
        "contract": "contracts/ContributionPoint.sol:ContributionPoint",
        "label": "_owners",
        "offset": 0,
        "slot": "103",
        "type": "t_mapping(t_uint256,t_address)"
      },
      {
        "astId": 734,
        "contract": "contracts/ContributionPoint.sol:ContributionPoint",
        "label": "_balances",
        "offset": 0,
        "slot": "104",
        "type": "t_mapping(t_address,t_uint256)"
      },
      {
        "astId": 738,
        "contract": "contracts/ContributionPoint.sol:ContributionPoint",
        "label": "_tokenApprovals",
        "offset": 0,
        "slot": "105",
        "type": "t_mapping(t_uint256,t_address)"
      },
      {
        "astId": 744,
        "contract": "contracts/ContributionPoint.sol:ContributionPoint",
        "label": "_operatorApprovals",
        "offset": 0,
        "slot": "106",
        "type": "t_mapping(t_address,t_mapping(t_address,t_bool))"
      },
      {
        "astId": 1586,
        "contract": "contracts/ContributionPoint.sol:ContributionPoint",
        "label": "__gap",
        "offset": 0,
        "slot": "107",
        "type": "t_array(t_uint256)44_storage"
      },
      {
        "astId": 39,
        "contract": "contracts/ContributionPoint.sol:ContributionPoint",
        "label": "_roles",
        "offset": 0,
        "slot": "151",
        "type": "t_mapping(t_bytes32,t_struct(RoleData)34_storage)"
      },
      {
        "astId": 338,
        "contract": "contracts/ContributionPoint.sol:ContributionPoint",
        "label": "__gap",
        "offset": 0,
        "slot": "152",
        "type": "t_array(t_uint256)49_storage"
      },
      {
        "astId": 2141,
        "contract": "contracts/ContributionPoint.sol:ContributionPoint",
        "label": "__gap",
        "offset": 0,
        "slot": "201",
        "type": "t_array(t_uint256)50_storage"
      },
      {
        "astId": 423,
        "contract": "contracts/ContributionPoint.sol:ContributionPoint",
        "label": "_owner",
        "offset": 0,
        "slot": "251",
        "type": "t_address"
      },
      {
        "astId": 543,
        "contract": "contracts/ContributionPoint.sol:ContributionPoint",
        "label": "__gap",
        "offset": 0,
        "slot": "252",
        "type": "t_array(t_uint256)49_storage"
      },
      {
        "astId": 3240,
        "contract": "contracts/ContributionPoint.sol:ContributionPoint",
        "label": "_contributionRecords",
        "offset": 0,
        "slot": "301",
        "type": "t_mapping(t_address,t_array(t_struct(ContributionRecord)4225_storage)dyn_storage)"
      },
      {
        "astId": 3244,
        "contract": "contracts/ContributionPoint.sol:ContributionPoint",
        "label": "_pointOf",
        "offset": 0,
        "slot": "302",
        "type": "t_mapping(t_address,t_int256)"
      },
      {
        "astId": 3247,
        "contract": "contracts/ContributionPoint.sol:ContributionPoint",
        "label": "_tagDescriptions",
        "offset": 0,
        "slot": "303",
        "type": "t_array(t_string_storage)dyn_storage"
      },
      {
        "astId": 3251,
        "contract": "contracts/ContributionPoint.sol:ContributionPoint",
        "label": "_contributorIdOf",
        "offset": 0,
        "slot": "304",
        "type": "t_mapping(t_address,t_uint256)"
      },
      {
        "astId": 3253,
        "contract": "contracts/ContributionPoint.sol:ContributionPoint",
        "label": "_contributorCounter",
        "offset": 0,
        "slot": "305",
        "type": "t_uint256"
      }
    ],
    "types": {
      "t_address": {
        "encoding": "inplace",
        "label": "address",
        "numberOfBytes": "20"
      },
      "t_array(t_string_storage)dyn_storage": {
        "base": "t_string_storage",
        "encoding": "dynamic_array",
        "label": "string[]",
        "numberOfBytes": "32"
      },
      "t_array(t_struct(ContributionRecord)4225_storage)dyn_storage": {
        "base": "t_struct(ContributionRecord)4225_storage",
        "encoding": "dynamic_array",
        "label": "struct IContributionStruct.ContributionRecord[]",
        "numberOfBytes": "32"
      },
      "t_array(t_uint256)44_storage": {
        "base": "t_uint256",
        "encoding": "inplace",
        "label": "uint256[44]",
        "numberOfBytes": "1408"
      },
      "t_array(t_uint256)49_storage": {
        "base": "t_uint256",
        "encoding": "inplace",
        "label": "uint256[49]",
        "numberOfBytes": "1568"
      },
      "t_array(t_uint256)50_storage": {
        "base": "t_uint256",
        "encoding": "inplace",
        "label": "uint256[50]",
        "numberOfBytes": "1600"
      },
      "t_bool": {
        "encoding": "inplace",
        "label": "bool",
        "numberOfBytes": "1"
      },
      "t_bytes32": {
        "encoding": "inplace",
        "label": "bytes32",
        "numberOfBytes": "32"
      },
      "t_int256": {
        "encoding": "inplace",
        "label": "int256",
        "numberOfBytes": "32"
      },
      "t_mapping(t_address,t_array(t_struct(ContributionRecord)4225_storage)dyn_storage)": {
        "encoding": "mapping",
        "key": "t_address",
        "label": "mapping(address => struct IContributionStruct.ContributionRecord[])",
        "numberOfBytes": "32",
        "value": "t_array(t_struct(ContributionRecord)4225_storage)dyn_storage"
      },
      "t_mapping(t_address,t_bool)": {
        "encoding": "mapping",
        "key": "t_address",
        "label": "mapping(address => bool)",
        "numberOfBytes": "32",
        "value": "t_bool"
      },
      "t_mapping(t_address,t_int256)": {
        "encoding": "mapping",
        "key": "t_address",
        "label": "mapping(address => int256)",
        "numberOfBytes": "32",
        "value": "t_int256"
      },
      "t_mapping(t_address,t_mapping(t_address,t_bool))": {
        "encoding": "mapping",
        "key": "t_address",
        "label": "mapping(address => mapping(address => bool))",
        "numberOfBytes": "32",
        "value": "t_mapping(t_address,t_bool)"
      },
      "t_mapping(t_address,t_uint256)": {
        "encoding": "mapping",
        "key": "t_address",
        "label": "mapping(address => uint256)",
        "numberOfBytes": "32",
        "value": "t_uint256"
      },
      "t_mapping(t_bytes32,t_struct(RoleData)34_storage)": {
        "encoding": "mapping",
        "key": "t_bytes32",
        "label": "mapping(bytes32 => struct AccessControlUpgradeable.RoleData)",
        "numberOfBytes": "32",
        "value": "t_struct(RoleData)34_storage"
      },
      "t_mapping(t_uint256,t_address)": {
        "encoding": "mapping",
        "key": "t_uint256",
        "label": "mapping(uint256 => address)",
        "numberOfBytes": "32",
        "value": "t_address"
      },
      "t_string_storage": {
        "encoding": "bytes",
        "label": "string",
        "numberOfBytes": "32"
      },
      "t_struct(ContributionRecord)4225_storage": {
        "encoding": "inplace",
        "label": "struct IContributionStruct.ContributionRecord",
        "members": [
          {
            "astId": 4220,
            "contract": "contracts/ContributionPoint.sol:ContributionPoint",
            "label": "tagId",
            "offset": 0,
            "slot": "0",
            "type": "t_uint32"
          },
          {
            "astId": 4222,
            "contract": "contracts/ContributionPoint.sol:ContributionPoint",
            "label": "time",
            "offset": 4,
            "slot": "0",
            "type": "t_uint32"
          },
          {
            "astId": 4224,
            "contract": "contracts/ContributionPoint.sol:ContributionPoint",
            "label": "point",
            "offset": 8,
            "slot": "0",
            "type": "t_uint32"
          }
        ],
        "numberOfBytes": "32"
      },
      "t_struct(RoleData)34_storage": {
        "encoding": "inplace",
        "label": "struct AccessControlUpgradeable.RoleData",
        "members": [
          {
            "astId": 31,
            "contract": "contracts/ContributionPoint.sol:ContributionPoint",
            "label": "members",
            "offset": 0,
            "slot": "0",
            "type": "t_mapping(t_address,t_bool)"
          },
          {
            "astId": 33,
            "contract": "contracts/ContributionPoint.sol:ContributionPoint",
            "label": "adminRole",
            "offset": 0,
            "slot": "1",
            "type": "t_bytes32"
          }
        ],
        "numberOfBytes": "64"
      },
      "t_uint256": {
        "encoding": "inplace",
        "label": "uint256",
        "numberOfBytes": "32"
      },
      "t_uint32": {
        "encoding": "inplace",
        "label": "uint32",
        "numberOfBytes": "4"
      },
      "t_uint8": {
        "encoding": "inplace",
        "label": "uint8",
        "numberOfBytes": "1"
      }
    }
  }
}