{
  "address": "0x749C20A4194202FA7f6B3d9Dde570ED1646C935C",
  "abi": [
    {
      "inputs": [],
      "name": "RESOURCE",
      "outputs": [
        {
          "internalType": "string",
          "name": "",
          "type": "string"
        }
      ],
      "stateMutability": "pure",
      "type": "function"
    }
  ],
  "transactionHash": "0x752989a3f5a6209ed70b2b07c1967d69923ac6f1c3b184db85d81aea034a449e",
  "args": [],
  "numDeployments": 2,
  "solcInputHash": "d4f4be53d7a4d379d682f733428c1e1c",
  "bytecode": "0x6125e661003a600b82828239805160001a60731461002d57634e487b7160e01b600052600060045260246000fd5b30600052607381538281f3fe73000000000000000000000000000000000000000030146080604052600436106100355760003560e01c80632b3ed84e1461003a575b600080fd5b610042610058565b60405161004f919061007b565b60405180910390f35b60606040518061250001604052806124c281526020016100ef6124c29139905090565b600060208083528351808285015260005b818110156100a85785810183015185820160400152820161008c565b818111156100ba576000604083870101525b50601f017fffffffffffffffffffffffffffffffffffffffffffffffffffffffffffffffe01692909201604001939250505056fe3c7376672077696474683d22343922206865696768743d223138302220783d2232382220793d223630222076696577426f783d2230203020313632203233222066696c6c3d226e6f6e652220786d6c6e733d22687474703a2f2f7777772e77332e6f72672f323030302f737667223e203c67207472616e73666f726d3d22726f74617465282d393029223e3c7061746820643d224d3020302e34363130393448382e333631333156322e373638313543382e373730323120322e3431303120392e323037343820322e303835383320392e363638383120312e37393835324331302e3531303620312e33343231372031312e3430333320302e3938363737352031322e3332383420302e3733393732344331332e3635333620302e3334323431342031352e3033303920302e3134353831352031362e3431343320302e3135363436314831372e303630364331382e3635393320302e3132333832312032302e3235323920302e3334353738372032312e3738313820302e38313430334332322e3934333320312e31363033382032332e3939363220312e383030312032342e3833383820322e36373135374332352e3532333820332e343038342032362e30353220342e323736372032362e3339313420352e32323338324332362e3731393720362e31393839392032362e3838303520372e32323237332032362e3836363920382e3235313656382e38393830324332362e3837353120392e39333938332032362e373034322031302e393735332032362e333631372031312e393539324332362e303031362031322e393437322032352e343532382031332e383535372032342e373435392031342e363334314332332e383834312031352e3534342032322e383035342031362e323230322032312e363130392031362e353939344332302e303635352031372e313132382031382e343433362031372e333537382031362e383135352031372e333233384831362e323332334331342e383838332031372e333332332031332e353439312031372e313631312031322e323530342031362e383134384331312e333333382031362e353938322031302e343436312031362e32373420392e36303536372031352e3834383943392e31363639322031352e3539373920382e373530362031352e3330393520382e33363133312031342e3938375632322e37383837483056302e3436313039345a4d382e333631333120382e363334323556382e373536383543382e333638313620392e323837323520382e343931383820392e383039363120382e37323336362031302e3238363743382e39353534342031302e3736333820392e32383935372031312e31383420392e37303232342031312e353137314331302e353833382031322e333034372031312e383534322031322e363938352031332e353133332031322e363938354831332e363639334331352e333438332031322e363938352031362e353536372031322e333039372031372e323934372031312e3533324331372e363533362031312e313636392031372e393336382031302e373334342031382e3132382031302e323539344331382e3331393220392e373834342031382e3431343720392e32373632392031382e34303920382e373634323856382e36343136374331382e3432323820382e31323833332031382e3333333220372e36313734362031382e3134353620372e31333934334331372e39353820362e36363134312031372e3637363220362e3232362031372e3331363920352e38353930394331362e3538383920352e31313630382031352e3337353520342e37343435372031332e3637363720342e37343435374831332e353230374331312e3831393520342e37343435372031302e3533393220352e313233353120392e363739393620352e383831333843392e3236383420362e323134313320382e3933363420362e363334363820382e373038323520372e313132323643382e3438303120372e353839383420382e333631353720382e313132333820382e333631333120382e363431363756382e36333432355a222066696c6c3d2223303030303030222f3e3c7061746820643d224d34332e363233342031342e373839344334312e393434342031362e343731312033392e333631362031372e3331322033352e383734392031372e3331324833352e353336394333322e393534312031372e3331322033312e303333372031362e373939332032392e373735372031352e373733394332392e313930312031352e333333362032382e373135372031342e373632312032382e333930362031342e313035334332382e303635352031332e343438362032372e383938372031322e373234382032372e393033362031312e3939325631312e363230354332372e383730372031302e393738392032372e393934392031302e333338392032382e3236353520392e37353631384332382e3533363120392e31373334382032382e3934343820382e36363536392032392e3435363320382e32373639334333302e3438383920372e34383433382033322e32303520362e39393634372033342e3630343620362e38313331394c34322e3536343720362e31303733334334332e3138313320362e303235362034332e3438393620352e37353831312034332e3438393620352e33303835394334332e3439363820352e30383539312034332e3432353820342e38363737352034332e3238393120342e36393138394334322e3939333720342e34353132332034322e3633373620342e32393639332034322e3236303120342e32343630384334312e3437393620342e303934382034302e36383520342e30323837382033392e3839303320342e30343931384833392e373637374333392e3038323920342e30333736312033382e3339383620342e30393336312033372e3732343720342e32313633364333372e3330343620342e32373235312033362e3930393820342e34343933312033362e3538383120342e37323533324333362e3433313820342e38373435312033362e3239363820352e30343435322033362e3138363920352e32333035374333362e3132313620352e33393433342033362e3037353520352e35363531332033362e3034393520352e37333935334832382e3237353156352e35353337384332382e3236393720352e30363835352032382e3331353820342e35383431332032382e3431323520342e31303836324332382e3536323120332e35383234392032382e3831343620332e30393132382032392e3135353420322e36363334354332392e3539373820322e30383533362033302e3137323320312e36323136372033302e3833303720312e33313131374333312e3833323220302e3837343939352033322e3838353920302e3537303330332033332e3936353720302e3430343639344333352e3538363820302e3133333532352033372e3232393120302e303039313834392033382e3837323520302e303333313836394834302e353932334334322e3330303320302e303133313330312034342e3030373120302e3133313135372034352e36393620302e3338363131374334362e3831333720302e35333336392034372e3930383320302e3832323034322034382e3935333620312e323434334334392e3632383920312e35333630372035302e3232383620312e39373832362035302e3730363920322e35333731344335312e3036373420322e39333339372035312e3333353120332e34303630342035312e3439303620332e39313931354335312e3538393920342e33383932362035312e36333620342e38363930342035312e3632383120352e33343934355631312e343638324335312e363134342031312e353634352035312e363233342031312e363632372035312e363534322031312e3735354335312e363835312031312e383437342035312e373336392031312e393331322035312e383035372031324335312e383734362031322e303638392035312e393538342031322e313230372035322e303530372031322e313531364335322e3134332031322e313832342035322e323431322031322e313931342035322e333337352031322e313737384835332e3232395631372e303037334834362e323937384334342e37362031372e303034392034332e383638352031362e323635362034332e363233342031342e373839345a4d34332e3437313120392e393030343156392e31393435354c33372e393332382031302e3137394333372e333833342031302e323339322033362e3835312031302e343035382033362e333635322031302e363639344333362e323134362031302e373639332033362e303932372031302e393036392033362e303131392031312e303638364333352e393331312031312e323330332033352e383934312031312e343130332033352e393034362031312e353930385631312e363234324333352e393033392031312e383536352033352e393537362031322e303835372033362e303631352031322e323933344333362e313635342031322e353031322033362e333136352031322e363831372033362e353032372031322e383230354333362e393033382031332e313531312033372e353732342031332e333134362033382e353135392031332e333134364334302e303031372031332e333134362034312e313935332031322e393731352034322e303936372031322e323835354334322e393938312031312e353939342034332e343536322031302e383034342034332e3437313120392e39303034315a222066696c6c3d2223303030303030222f3e3c7061746820643d224d35342e363837352031372e30303456302e3436303738394836322e3938393456332e33383435354336332e3239373720332e30393437372036332e3533393120322e38373535382036332e3733323320322e37323332364336342e30393520322e34323930382036342e3437343620322e31353631392036342e3836383920312e39303539364336352e3430333420312e35343430382036352e39373520312e32343032312036362e3537333920302e3939393437384336372e3238303320302e3734303237322036382e3030353520302e3533353334352036382e3734333120302e3338363438384336392e36363720302e3138363731382037302e3630393820302e3038383330392037312e35353520302e303933303030334837312e373430374337332e3035303920302e303637323539372037342e3335353620302e3236393634362037352e3539363420302e3639313132314337362e3535353120312e30303534392037372e3432343820312e35343432362037382e3133333420322e323632364337382e3638353720322e38343334392037392e3132383620332e35313933332037392e3434303920342e32353735394337392e3731333420342e39323635332037392e3835343720352e363431372037392e3835363920362e33363430345631372e3030344837312e3436323156392e31303230354337312e35313620382e303833332037312e3136373820372e30383431332037302e3439323720362e33313934354336392e3834383820352e36333039322036382e3833393720352e323837392036372e3436353420352e32393033384336362e30393120352e32393033382036352e3031373520352e36363138392036342e3233373520362e343034394336332e3834373120362e37383130382036332e3534313320372e32333539392036332e3334303220372e37333934344336332e3133393120382e32343238382036332e3034373420382e37383333342036332e3037313120392e33323439355631372e303131344c35342e363837352031372e3030345a222066696c6c3d2223303030303030222f3e3c7061746820643d224d39362e3134332032322e393939384839332e373736394339322e303439372032332e303139312039302e333234392032322e383634372038382e363238362032322e353339324338372e343433382032322e333330392038362e323934342032312e393535372038352e3231352032312e343234364338342e343837362032312e303434352038332e383430352032302e353237332038332e333039342031392e393031354338322e393038352031392e343536322038322e353934372031382e393339352038322e333834352031382e333738334338322e323533372031372e393631312038322e313837332031372e353236342038322e313837372031372e303839325631362e393936334839302e353738374339302e373831372031372e393137362039322e323136382031382e333738332039342e383833382031382e333738334839342e393736364339382e333137322031382e333738332039392e393837352031362e393735322039392e393837352031342e313639315631332e3833314339382e333435372031352e343638312039352e363630312031362e323837392039312e393330382031362e323930344839312e343430344338372e393134322031362e323930342038352e333231342031352e353431322038332e363632332031342e303432384338322e383630332031332e333435332038322e323231362031322e343739382038312e373931352031312e353037384338312e333631342031302e353335372038312e3135303420392e34383039322038312e3137333620382e343138313956372e38363436344338312e3135333320362e38333638332038312e33353120352e38313633382038312e3735333720342e38373035364338322e3135363420332e39323437342038322e37353520332e30373530352038332e353120322e33373734384338352e3036373620302e3839313435322038372e3532363620302e3134383433382039302e38383720302e3134383433384839312e3536334339352e3231303720302e3134383433382039382e3030373720302e3935373038342039392e3935343120322e353734333856302e343533303736483130382e3331395631342e32323836433130382e3332312031342e39373935203130382e3233332031352e37323739203130382e3035352031362e34353736433130372e3833332031372e32383031203130372e3437352031382e30353938203130362e3939372031382e37363437433130362e3434352031392e36303038203130352e37342032302e33323535203130342e39322032302e39303038433130332e3833342032312e36303831203130322e3633322032322e31313837203130312e3336392032322e343039314339392e363539342032322e383237372039372e393033312032332e303236322039362e3134332032322e393939385a4d39342e3630353220342e38323934334839342e343233324339322e3732313920342e38323934332039312e3439373420352e31343634352039302e3734393520352e37383034394339302e3339353620362e303633382039302e3131313220362e34323433342038392e3931383120362e38333435324338392e3732343920372e323434372038392e3632383220372e36393336352038392e3633353220382e313436393856382e33323135394338392e3632393520382e37393630392038392e373320392e32363538342038392e3932393220392e363936354339302e313238352031302e313237322039302e343231342031302e353037392039302e373836372031302e383130374339312e353536382031312e343836382039322e373731352031312e383234392039342e343330362031312e383234394839342e363132364339362e3334362031312e383234392039372e363538352031312e343831392039382e35352031302e373935384339382e393538322031302e353233312039392e323934342031302e313535372039392e3532393920392e37323438314339392e3736353320392e32393339362039392e38393320382e38313235322039392e39303220382e333231353956382e32323837324339392e3839373920372e37343636372039392e3737333420372e32373332392039392e3533393920362e38353135384339392e3330363320362e34323938382039382e3937313220362e30373331392039382e3536343820352e38313339324339372e3636383420352e31353531312039362e3334383520342e38323639352039342e3630353220342e38323934335a222066696c6c3d2223303030303030222f3e3c7061746820643d224d3133352e3632342031302e393738335631312e30333737433133352e3632382031312e35363739203133352e3535362031322e303936203133352e3430392031322e36303535433133352e3139342031332e32323436203133342e38362031332e37393532203133342e3432342031342e32383437433133332e3836322031342e39343737203133332e3137322031352e34393039203133322e3339362031352e38383232433133312e3235392031362e343136203133302e3035352031362e373931203132382e3831362031362e39393637433132372e3033372031372e33323438203132352e3233312031372e34373931203132332e3432322031372e34353734483132312e373931433132302e3035352031372e34373934203131382e3332312031372e33303337203131362e3632352031362e39333335433131352e33372031362e36383032203131342e3136362031362e32323334203131332e3035392031352e35383133433131322e3232312031352e30363632203131312e34392031342e33393338203131302e3930382031332e36303131433131302e3339392031322e39313734203131302e3032312031322e31343533203130392e3739342031312e33323338433130392e3539342031302e353436203130392e34393520392e3734353535203130392e3520382e393432343356382e333232433130392e3520322e3736393231203131332e353639202d302e3030383431373637203132312e373036202d302e30313038393434483132332e333936433132342e373634202d302e30323138343337203132362e313320302e303736323935203132372e34383220302e323832353934433132382e35333720302e343335303232203132392e35373320302e363937373535203133302e35373220312e3036363437433133312e33363220312e33363434203133322e31303220312e37373839203133322e37363820322e3239363136433133332e33323720322e3732323733203133332e38323720332e3232323534203133342e32353420332e3738323139433133342e36323920342e3330303734203133342e39323920342e3836393834203133352e31343520352e3437323534433133352e33353320362e3034303333203133352e35303220362e3632373839203133352e35393120372e3232363035433133352e36363520372e3831323538203133352e37303120382e3430333237203133352e36393820382e393934343356392e3931353737483131372e373032433131372e3938372031312e39343932203131392e3635372031322e39363436203132322e3731332031322e39363231483132322e373432433132332e3430382031322e39363836203132342e3037332031322e39303633203132342e3732362031322e37373634433132352e3139322031322e363932203132352e3634352031322e35353233203132362e3037382031322e33363033433132362e3336382031322e32323739203132362e3633332031322e303437203132362e3836322031312e38323533433132372e3032332031312e36373932203132372e3135382031312e35303732203132372e3236332031312e33313633433132372e3332312031312e31393837203132372e3336322031312e30373337203132372e3338352031302e393434384c3133352e3632342031302e393738335a4d3132322e353620342e3036303832433131392e38333620342e3036303832203131382e32343820342e3839303532203131372e37393520362e3534393932483132372e333236433132362e39373720342e3838383035203132352e33383820342e3035383334203132322e353620342e30363038325a222066696c6c3d2223303030303030222f3e3c7061746820643d224d3135322e33382031342e37383935433135302e3639392031362e34373132203134382e3131362031372e333132203134342e3633322031372e333132483134342e323934433134312e3731312031372e333132203133392e3738392031362e37393933203133382e3532392031352e373734433133372e39342031352e33333439203133372e3436332031342e37363432203133372e3133342031342e31303735433133362e3830362031332e34353038203133362e3633362031322e37323633203133362e3633382031312e3939325631312e36323035433133362e3630352031302e39373839203133362e3732392031302e333338392031333720392e3735363232433133372e323720392e3137333532203133372e36373920382e3636353733203133382e31393120382e3237363937433133392e32323820372e3438343432203134302e39343420362e3939363531203134332e33333920362e38313332334c3135312e33303320362e3130373337433135312e39313620362e3032353634203135322e32323420352e3735383136203135322e32323420352e3330383633433135322e32333120352e3038353936203135322e313620342e3836373739203135322e30323320342e3639313933433135312e37323920342e3435303433203135312e33373220342e3239363032203135302e39393520342e3234363132433135302e32313520342e3039343832203134392e34323220342e30323838203134382e36323820342e3034393232483134382e353036433134372e383220342e3033373637203134372e31333420342e3039333637203134362e34353920342e32313634433134362e313420342e3234383733203134352e38333420342e33353739203134352e35363720342e3533343535433134352e3320342e37313132203134352e303820342e3935303035203134342e39323520352e3233303631433134342e38353820352e3339343134203134342e38313120352e3536343936203134342e37383420352e3733393537483133372e30333956352e3535333832433133372e30333220352e3036383532203133372e30373820342e3538333839203133372e31373720342e3130383636433133372e33323520332e3538323036203133372e35373820332e3039303632203133372e393220322e3636333439433133382e333620322e3038333736203133382e39333520312e3631393732203133392e35393520312e3331313231433134302e35393620302e383734343833203134312e363520302e353639373731203134322e373320302e343034373334433134342e333520302e313333333836203134352e39393120302e3030393034343235203134372e36333320302e30333332323734483134392e333638433135312e30373420302e30313332383939203135322e373820302e313331333137203135342e34363820302e333836313538433135352e35383620302e353333363538203135362e36383220302e383232303038203135372e37323920312e3234343334433135382e34303320312e3533353537203135392e30303220312e3937373839203135392e34373820322e3533373138433135392e383420322e3933333035203136302e31303820332e3430353434203136302e32363220332e3931393139433136302e33363320342e3338393134203136302e343120342e3836383934203136302e34303320352e33343934395631312e34363832433136302e3338392031312e35363434203136302e3339372031312e36363235203136302e3432382031312e37353439433136302e3435382031312e38343732203136302e35312031312e39333132203136302e3537382031322e30303031433136302e3634372031322e30363931203136302e37332031322e313231203136302e3832332031322e31353139433136302e3931352031322e31383237203136312e3031332031322e31393136203136312e3130392031322e31373738483136312e3939375631372e30303734483135352e303531433135332e3531352031372e30303439203135322e3632352031362e32363536203135322e33382031342e373839355a4d3135322e32323420392e393030343556392e31393435394c3134362e3638392031302e31373931433134362e31342031302e32333939203134352e3630382031302e34303634203134352e3132322031302e36363935433134342e3937322031302e37363938203134342e38352031302e39303736203134342e37372031312e30363931433134342e3638392031312e32333037203134342e3635322031312e34313035203134342e3636312031312e353930385631312e36323433433134342e3636312031312e38353638203134342e3731352031322e30383632203134342e38322031322e323934433134342e3932342031322e35303138203134352e3037362031322e36383231203134352e3236332031322e38323035433134352e3635392031332e31343939203134362e33332031332e33313436203134372e3237362031332e33313436433134382e3535312031332e33373436203134392e3830392031332e30313239203135302e3835372031322e32383535433135312e3736382031312e35393935203135322e3232342031302e38303435203135322e32323420392e39303034355a222066696c6c3d2223303030303030222f3e203c2f673e203c2f7376673ea2646970667358221220e6f4d4d328758bece45d2c9d82d78fbd46dc20bec366d47276bc71d6f182878764736f6c63430008090033",
  "devdoc": {
    "kind": "dev",
    "methods": {},
    "version": 1
  },
  "userdoc": {
    "kind": "user",
    "methods": {},
    "version": 1
  },
  "storageLayout": {
    "storage": [],
    "types": null
  }
}