{
  "address": "0xFCD30ae6ce1D9DC82C5ad263f7a89621430d8A12",
  "abi": [
    {
      "inputs": [
        {
          "internalType": "uint256",
          "name": "tokenId",
          "type": "uint256"
        },
        {
          "internalType": "address",
          "name": "owner",
          "type": "address"
        },
        {
          "internalType": "int256",
          "name": "point",
          "type": "int256"
        }
      ],
      "name": "image",
      "outputs": [
        {
          "internalType": "string",
          "name": "",
          "type": "string"
        }
      ],
      "stateMutability": "pure",
      "type": "function"
    }
  ],
  "transactionHash": "0x30ac4e5ca2f4de82bbca1594afa3b6ab822527b68779efddf91928487333952c",
  "args": [],
  "numDeployments": 6,
  "solcInputHash": "7d02888ae56ff6ae79f19a3ef3942c7b",
  "bytecode": "0x61120d61003a600b82828239805160001a60731461002d57634e487b7160e01b600052600060045260246000fd5b30600052607381538281f3fe73000000000000000000000000000000000000000030146080604052600436106100355760003560e01c8063c5bb75a11461003a575b600080fd5b61004d610048366004610835565b610063565b60405161005a91906108b6565b60405180910390f35b606061006d6100ea565b61007685610354565b61007f8461040b565b61008886610462565b6040518060400160405280600681526020017f3c2f7376673e00000000000000000000000000000000000000000000000000008152506040516020016100d2959493929190610907565b60405160208183030381529060405290509392505050565b60606040518060a0016040528060748152602001611111607491397397fba1c8Cd757b429A5A41970e1EDfaA0aC60336630506eb406040518163ffffffff1660e01b815260040160006040518083038186803b15801561014957600080fd5b505af415801561015d573d6000803e3d6000fd5b505050506040513d6000823e601f3d9081017fffffffffffffffffffffffffffffffffffffffffffffffffffffffffffffffe01682016040526101a391908101906109a1565b6040518060600160405280603c81526020016110d5603c91396040518060600160405280603f8152602001611096603f913960405180608001604052806053815260200161118560539139739f9849c1cb50937c53644E8271319777fD5722C3632b3ed84e6040518163ffffffff1660e01b815260040160006040518083038186803b15801561023257600080fd5b505af4158015610246573d6000803e3d6000fd5b505050506040513d6000823e601f3d9081017fffffffffffffffffffffffffffffffffffffffffffffffffffffffffffffffe016820160405261028c91908101906109a1565b73749C20A4194202FA7f6B3d9Dde570ED1646C935C632b3ed84e6040518163ffffffff1660e01b815260040160006040518083038186803b1580156102d057600080fd5b505af41580156102e4573d6000803e3d6000fd5b505050506040513d6000823e601f3d9081017fffffffffffffffffffffffffffffffffffffffffffffffffffffffffffffffe016820160405261032a91908101906109a1565b6040516020016103409796959493929190610a6c565b604051602081830303815290604052905090565b60408051602081019091526000815260609060055b80156103e257816103ad61037e600184610b2d565b61038990600a610c64565b61039484600a610c64565b61039e9088610ca6565b6103a89190610cba565b6104ab565b6040516020016103be929190610cce565b604051602081830303815290604052915080806103da90610cfd565b915050610369565b50806040516020016103f49190610d32565b604051602081830303815290604052915050919050565b60606000808313610446576104226103a884610dc4565b6040516020016104329190610dfd565b60405160208183030381529060405261044f565b61044f836104ab565b9050806040516020016103f49190610e42565b60606104858273ffffffffffffffffffffffffffffffffffffffff1660146105e5565b6040516020016104959190610efa565b6040516020818303038152906040529050919050565b6060816104eb57505060408051808201909152600181527f3000000000000000000000000000000000000000000000000000000000000000602082015290565b8160005b811561051557806104ff81610fd8565b915061050e9050600a83610cba565b91506104ef565b60008167ffffffffffffffff81111561053057610530610972565b6040519080825280601f01601f19166020018201604052801561055a576020820181803683370190505b5090505b84156105dd5761056f600183610b2d565b915061057c600a86610ca6565b610587906030611011565b60f81b81838151811061059c5761059c611029565b60200101907effffffffffffffffffffffffffffffffffffffffffffffffffffffffffffff1916908160001a9053506105d6600a86610cba565b945061055e565b949350505050565b606060006105f4836002611058565b6105ff906002611011565b67ffffffffffffffff81111561061757610617610972565b6040519080825280601f01601f191660200182016040528015610641576020820181803683370190505b5090507f30000000000000000000000000000000000000000000000000000000000000008160008151811061067857610678611029565b60200101907effffffffffffffffffffffffffffffffffffffffffffffffffffffffffffff1916908160001a9053507f7800000000000000000000000000000000000000000000000000000000000000816001815181106106db576106db611029565b60200101907effffffffffffffffffffffffffffffffffffffffffffffffffffffffffffff1916908160001a9053506000610717846002611058565b610722906001611011565b90505b60018111156107bf577f303132333435363738396162636465660000000000000000000000000000000085600f166010811061076357610763611029565b1a60f81b82828151811061077957610779611029565b60200101907effffffffffffffffffffffffffffffffffffffffffffffffffffffffffffff1916908160001a90535060049490941c936107b881610cfd565b9050610725565b50831561082c576040517f08c379a000000000000000000000000000000000000000000000000000000000815260206004820181905260248201527f537472696e67733a20686578206c656e67746820696e73756666696369656e74604482015260640160405180910390fd5b90505b92915050565b60008060006060848603121561084a57600080fd5b83359250602084013573ffffffffffffffffffffffffffffffffffffffff8116811461087557600080fd5b929592945050506040919091013590565b60005b838110156108a1578181015183820152602001610889565b838111156108b0576000848401525b50505050565b60208152600082518060208401526108d5816040850160208701610886565b601f017fffffffffffffffffffffffffffffffffffffffffffffffffffffffffffffffe0169190910160400192915050565b60008651610919818460208b01610886565b86519083019061092d818360208b01610886565b8651910190610940818360208a01610886565b8551910190610953818360208901610886565b8451910190610966818360208801610886565b01979650505050505050565b7f4e487b7100000000000000000000000000000000000000000000000000000000600052604160045260246000fd5b6000602082840312156109b357600080fd5b815167ffffffffffffffff808211156109cb57600080fd5b818401915084601f8301126109df57600080fd5b8151818111156109f1576109f1610972565b604051601f82017fffffffffffffffffffffffffffffffffffffffffffffffffffffffffffffffe0908116603f01168101908382118183101715610a3757610a37610972565b81604052828152876020848701011115610a5057600080fd5b610a61836020830160208801610886565b979650505050505050565b600088516020610a7f8285838e01610886565b895191840191610a928184848e01610886565b8951920191610aa48184848d01610886565b8851920191610ab68184848c01610886565b8751920191610ac88184848b01610886565b8651920191610ada8184848a01610886565b8551920191610aec8184848901610886565b919091019a9950505050505050505050565b7f4e487b7100000000000000000000000000000000000000000000000000000000600052601160045260246000fd5b600082821015610b3f57610b3f610afe565b500390565b600181815b80851115610b9d57817fffffffffffffffffffffffffffffffffffffffffffffffffffffffffffffffff04821115610b8357610b83610afe565b80851615610b9057918102915b93841c9390800290610b49565b509250929050565b600082610bb45750600161082f565b81610bc15750600061082f565b8160018114610bd75760028114610be157610bfd565b600191505061082f565b60ff841115610bf257610bf2610afe565b50506001821b61082f565b5060208310610133831016604e8410600b8410161715610c20575081810a61082f565b610c2a8383610b44565b807fffffffffffffffffffffffffffffffffffffffffffffffffffffffffffffffff04821115610c5c57610c5c610afe565b029392505050565b6000610c708383610ba5565b9392505050565b7f4e487b7100000000000000000000000000000000000000000000000000000000600052601260045260246000fd5b600082610cb557610cb5610c77565b500690565b600082610cc957610cc9610c77565b500490565b60008351610ce0818460208801610886565b835190830190610cf4818360208801610886565b01949350505050565b600081610d0c57610d0c610afe565b507fffffffffffffffffffffffffffffffffffffffffffffffffffffffffffffffff0190565b7f3c7465787420783d223233332220793d2232352220746578742d616e63686f7281527f3d22656e642220666f6e742d73697a653d223130223e23000000000000000000602082015260008251610d90816037850160208701610886565b7f3c2f746578743e000000000000000000000000000000000000000000000000006037939091019283015250603e01919050565b60007f8000000000000000000000000000000000000000000000000000000000000000821415610df657610df6610afe565b5060000390565b7f2d00000000000000000000000000000000000000000000000000000000000000815260008251610e35816001850160208701610886565b9190910160010192915050565b7f3c7465787420783d223233382220793d223132322220746578742d616e63686f81527f723d22656e642220666f6e742d73697a653d223234222066696c6c3d2223303060208201527f30303030223e0000000000000000000000000000000000000000000000000000604082015260008251610ec6816046850160208701610886565b7f3c2f746578743e000000000000000000000000000000000000000000000000006046939091019283015250604d01919050565b7f3c7465787420783d223133322220793d223232352220746578742d616e63686f81527f723d226d6964646c652220666f6e742d73697a653d22392220666f6e742d666160208201527f6d696c793d2249424d506c657853616e73222066696c6c3d222330303030303060408201527f223e000000000000000000000000000000000000000000000000000000000000606082015260008251610fa4816062850160208701610886565b7f3c2f746578743e000000000000000000000000000000000000000000000000006062939091019283015250606901919050565b60007fffffffffffffffffffffffffffffffffffffffffffffffffffffffffffffffff82141561100a5761100a610afe565b5060010190565b6000821982111561102457611024610afe565b500190565b7f4e487b7100000000000000000000000000000000000000000000000000000000600052603260045260246000fd5b6000817fffffffffffffffffffffffffffffffffffffffffffffffffffffffffffffffff048311821515161561109057611090610afe565b50029056fe3c7465787420783d2233302220793d2232352220666f6e742d73697a653d2231302e35223e436f6e747269627574696f6e20506f696e74733c2f746578743e3c7265637420783d2232382220793d223136222077696474683d2232303822206865696768743d223131222066696c6c3d2223303030303030222f3e3c73766720786d6c6e733d22687474703a2f2f7777772e77332e6f72672f323030302f737667222077696474683d2232363422206865696768743d22323434222076657273696f6e3d22312e312220666f6e742d66616d696c793d22766f6c63616e6f222066696c6c3d2223666666666666223e3c7465787420783d223233382220793d223133362220746578742d616e63686f723d22656e642220666f6e742d73697a653d223134222066696c6c3d2223303030303030223e706f696e74733c2f746578743ea264697066735822122048c074f06eb8aa573553f4dd56bcaec4f38c3a127f43f9374d9b9e4962ea6b5c64736f6c63430008090033",
  "deployedBytecode": "0x73000000000000000000000000000000000000000030146080604052600436106100355760003560e01c8063c5bb75a11461003a575b600080fd5b61004d610048366004610835565b610063565b60405161005a91906108b6565b60405180910390f35b606061006d6100ea565b61007685610354565b61007f8461040b565b61008886610462565b6040518060400160405280600681526020017f3c2f7376673e00000000000000000000000000000000000000000000000000008152506040516020016100d2959493929190610907565b60405160208183030381529060405290509392505050565b60606040518060a00160405280607481526020016111116074913973__$d5d4d0a28dc79a263fbf5805b65197ac12$__630506eb406040518163ffffffff1660e01b815260040160006040518083038186803b15801561014957600080fd5b505af415801561015d573d6000803e3d6000fd5b505050506040513d6000823e601f3d9081017fffffffffffffffffffffffffffffffffffffffffffffffffffffffffffffffe01682016040526101a391908101906109a1565b6040518060600160405280603c81526020016110d5603c91396040518060600160405280603f8152602001611096603f91396040518060800160405280605381526020016111856053913973__$067a2f90969b825b7dd5a1b8816a7fe2a1$__632b3ed84e6040518163ffffffff1660e01b815260040160006040518083038186803b15801561023257600080fd5b505af4158015610246573d6000803e3d6000fd5b505050506040513d6000823e601f3d9081017fffffffffffffffffffffffffffffffffffffffffffffffffffffffffffffffe016820160405261028c91908101906109a1565b73__$d2da178d99bc22b5eb6712190c8d50872a$__632b3ed84e6040518163ffffffff1660e01b815260040160006040518083038186803b1580156102d057600080fd5b505af41580156102e4573d6000803e3d6000fd5b505050506040513d6000823e601f3d9081017fffffffffffffffffffffffffffffffffffffffffffffffffffffffffffffffe016820160405261032a91908101906109a1565b6040516020016103409796959493929190610a6c565b604051602081830303815290604052905090565b60408051602081019091526000815260609060055b80156103e257816103ad61037e600184610b2d565b61038990600a610c64565b61039484600a610c64565b61039e9088610ca6565b6103a89190610cba565b6104ab565b6040516020016103be929190610cce565b604051602081830303815290604052915080806103da90610cfd565b915050610369565b50806040516020016103f49190610d32565b604051602081830303815290604052915050919050565b60606000808313610446576104226103a884610dc4565b6040516020016104329190610dfd565b60405160208183030381529060405261044f565b61044f836104ab565b9050806040516020016103f49190610e42565b60606104858273ffffffffffffffffffffffffffffffffffffffff1660146105e5565b6040516020016104959190610efa565b6040516020818303038152906040529050919050565b6060816104eb57505060408051808201909152600181527f3000000000000000000000000000000000000000000000000000000000000000602082015290565b8160005b811561051557806104ff81610fd8565b915061050e9050600a83610cba565b91506104ef565b60008167ffffffffffffffff81111561053057610530610972565b6040519080825280601f01601f19166020018201604052801561055a576020820181803683370190505b5090505b84156105dd5761056f600183610b2d565b915061057c600a86610ca6565b610587906030611011565b60f81b81838151811061059c5761059c611029565b60200101907effffffffffffffffffffffffffffffffffffffffffffffffffffffffffffff1916908160001a9053506105d6600a86610cba565b945061055e565b949350505050565b606060006105f4836002611058565b6105ff906002611011565b67ffffffffffffffff81111561061757610617610972565b6040519080825280601f01601f191660200182016040528015610641576020820181803683370190505b5090507f30000000000000000000000000000000000000000000000000000000000000008160008151811061067857610678611029565b60200101907effffffffffffffffffffffffffffffffffffffffffffffffffffffffffffff1916908160001a9053507f7800000000000000000000000000000000000000000000000000000000000000816001815181106106db576106db611029565b60200101907effffffffffffffffffffffffffffffffffffffffffffffffffffffffffffff1916908160001a9053506000610717846002611058565b610722906001611011565b90505b60018111156107bf577f303132333435363738396162636465660000000000000000000000000000000085600f166010811061076357610763611029565b1a60f81b82828151811061077957610779611029565b60200101907effffffffffffffffffffffffffffffffffffffffffffffffffffffffffffff1916908160001a90535060049490941c936107b881610cfd565b9050610725565b50831561082c576040517f08c379a000000000000000000000000000000000000000000000000000000000815260206004820181905260248201527f537472696e67733a20686578206c656e67746820696e73756666696369656e74604482015260640160405180910390fd5b90505b92915050565b60008060006060848603121561084a57600080fd5b83359250602084013573ffffffffffffffffffffffffffffffffffffffff8116811461087557600080fd5b929592945050506040919091013590565b60005b838110156108a1578181015183820152602001610889565b838111156108b0576000848401525b50505050565b60208152600082518060208401526108d5816040850160208701610886565b601f017fffffffffffffffffffffffffffffffffffffffffffffffffffffffffffffffe0169190910160400192915050565b60008651610919818460208b01610886565b86519083019061092d818360208b01610886565b8651910190610940818360208a01610886565b8551910190610953818360208901610886565b8451910190610966818360208801610886565b01979650505050505050565b7f4e487b7100000000000000000000000000000000000000000000000000000000600052604160045260246000fd5b6000602082840312156109b357600080fd5b815167ffffffffffffffff808211156109cb57600080fd5b818401915084601f8301126109df57600080fd5b8151818111156109f1576109f1610972565b604051601f82017fffffffffffffffffffffffffffffffffffffffffffffffffffffffffffffffe0908116603f01168101908382118183101715610a3757610a37610972565b81604052828152876020848701011115610a5057600080fd5b610a61836020830160208801610886565b979650505050505050565b600088516020610a7f8285838e01610886565b895191840191610a928184848e01610886565b8951920191610aa48184848d01610886565b8851920191610ab68184848c01610886565b8751920191610ac88184848b01610886565b8651920191610ada8184848a01610886565b8551920191610aec8184848901610886565b919091019a9950505050505050505050565b7f4e487b7100000000000000000000000000000000000000000000000000000000600052601160045260246000fd5b600082821015610b3f57610b3f610afe565b500390565b600181815b80851115610b9d57817fffffffffffffffffffffffffffffffffffffffffffffffffffffffffffffffff04821115610b8357610b83610afe565b80851615610b9057918102915b93841c9390800290610b49565b509250929050565b600082610bb45750600161082f565b81610bc15750600061082f565b8160018114610bd75760028114610be157610bfd565b600191505061082f565b60ff841115610bf257610bf2610afe565b50506001821b61082f565b5060208310610133831016604e8410600b8410161715610c20575081810a61082f565b610c2a8383610b44565b807fffffffffffffffffffffffffffffffffffffffffffffffffffffffffffffffff04821115610c5c57610c5c610afe565b029392505050565b6000610c708383610ba5565b9392505050565b7f4e487b7100000000000000000000000000000000000000000000000000000000600052601260045260246000fd5b600082610cb557610cb5610c77565b500690565b600082610cc957610cc9610c77565b500490565b60008351610ce0818460208801610886565b835190830190610cf4818360208801610886565b01949350505050565b600081610d0c57610d0c610afe565b507fffffffffffffffffffffffffffffffffffffffffffffffffffffffffffffffff0190565b7f3c7465787420783d223233332220793d2232352220746578742d616e63686f7281527f3d22656e642220666f6e742d73697a653d223130223e23000000000000000000602082015260008251610d90816037850160208701610886565b7f3c2f746578743e000000000000000000000000000000000000000000000000006037939091019283015250603e01919050565b60007f8000000000000000000000000000000000000000000000000000000000000000821415610df657610df6610afe565b5060000390565b7f2d00000000000000000000000000000000000000000000000000000000000000815260008251610e35816001850160208701610886565b9190910160010192915050565b7f3c7465787420783d223233382220793d223132322220746578742d616e63686f81527f723d22656e642220666f6e742d73697a653d223234222066696c6c3d2223303060208201527f30303030223e0000000000000000000000000000000000000000000000000000604082015260008251610ec6816046850160208701610886565b7f3c2f746578743e000000000000000000000000000000000000000000000000006046939091019283015250604d01919050565b7f3c7465787420783d223133322220793d223232352220746578742d616e63686f81527f723d226d6964646c652220666f6e742d73697a653d22392220666f6e742d666160208201527f6d696c793d2249424d506c657853616e73222066696c6c3d222330303030303060408201527f223e000000000000000000000000000000000000000000000000000000000000606082015260008251610fa4816062850160208701610886565b7f3c2f746578743e000000000000000000000000000000000000000000000000006062939091019283015250606901919050565b60007fffffffffffffffffffffffffffffffffffffffffffffffffffffffffffffffff82141561100a5761100a610afe565b5060010190565b6000821982111561102457611024610afe565b500190565b7f4e487b7100000000000000000000000000000000000000000000000000000000600052603260045260246000fd5b6000817fffffffffffffffffffffffffffffffffffffffffffffffffffffffffffffffff048311821515161561109057611090610afe565b50029056fe3c7465787420783d2233302220793d2232352220666f6e742d73697a653d2231302e35223e436f6e747269627574696f6e20506f696e74733c2f746578743e3c7265637420783d2232382220793d223136222077696474683d2232303822206865696768743d223131222066696c6c3d2223303030303030222f3e3c73766720786d6c6e733d22687474703a2f2f7777772e77332e6f72672f323030302f737667222077696474683d2232363422206865696768743d22323434222076657273696f6e3d22312e312220666f6e742d66616d696c793d22766f6c63616e6f222066696c6c3d2223666666666666223e3c7465787420783d223233382220793d223133362220746578742d616e63686f723d22656e642220666f6e742d73697a653d223134222066696c6c3d2223303030303030223e706f696e74733c2f746578743ea264697066735822122048c074f06eb8aa573553f4dd56bcaec4f38c3a127f43f9374d9b9e4962ea6b5c64736f6c63430008090033",
  "libraries": {
    "Background": "0x97fba1c8Cd757b429A5A41970e1EDfaA0aC60336",
    "Logo": "0x749C20A4194202FA7f6B3d9Dde570ED1646C935C",
    "Font": "0x9f9849c1cb50937c53644E8271319777fD5722C3"
  },
  "devdoc": {
    "kind": "dev",
    "methods": {},
    "version": 1
  },
  "userdoc": {
    "kind": "user",
    "methods": {},
    "version": 1
  },
  "storageLayout": {
    "storage": [],
    "types": null
  }
}